{
  "_format": "hh-sol-artifact-1",
  "contractName": "GeoTaggedNFT",
  "sourceName": "contracts/GeoTaggedNFT.sol",
  "abi": [
    {
      "inputs": [],
      "stateMutability": "nonpayable",
      "type": "constructor"
    },
    {
      "anonymous": false,
      "inputs": [
        {
          "indexed": true,
          "internalType": "address",
          "name": "owner",
          "type": "address"
        },
        {
          "indexed": true,
          "internalType": "address",
          "name": "approved",
          "type": "address"
        },
        {
          "indexed": true,
          "internalType": "uint256",
          "name": "tokenId",
          "type": "uint256"
        }
      ],
      "name": "Approval",
      "type": "event"
    },
    {
      "anonymous": false,
      "inputs": [
        {
          "indexed": true,
          "internalType": "address",
          "name": "owner",
          "type": "address"
        },
        {
          "indexed": true,
          "internalType": "address",
          "name": "operator",
          "type": "address"
        },
        {
          "indexed": false,
          "internalType": "bool",
          "name": "approved",
          "type": "bool"
        }
      ],
      "name": "ApprovalForAll",
      "type": "event"
    },
    {
      "anonymous": false,
      "inputs": [
        {
          "indexed": true,
          "internalType": "address",
          "name": "artist",
          "type": "address"
        }
      ],
      "name": "ArtistRegistered",
      "type": "event"
    },
    {
      "anonymous": false,
      "inputs": [
        {
          "indexed": false,
          "internalType": "uint256",
          "name": "_fromTokenId",
          "type": "uint256"
        },
        {
          "indexed": false,
          "internalType": "uint256",
          "name": "_toTokenId",
          "type": "uint256"
        }
      ],
      "name": "BatchMetadataUpdate",
      "type": "event"
    },
    {
      "anonymous": false,
      "inputs": [
        {
          "indexed": true,
          "internalType": "uint256",
          "name": "tokenId",
          "type": "uint256"
        },
        {
          "indexed": false,
          "internalType": "int256",
          "name": "latitude",
          "type": "int256"
        },
        {
          "indexed": false,
          "internalType": "int256",
          "name": "longitude",
          "type": "int256"
        }
      ],
      "name": "LocationUpdated",
      "type": "event"
    },
    {
      "anonymous": false,
      "inputs": [
        {
          "indexed": false,
          "internalType": "uint256",
          "name": "_tokenId",
          "type": "uint256"
        }
      ],
      "name": "MetadataUpdate",
      "type": "event"
    },
    {
      "anonymous": false,
      "inputs": [
        {
          "indexed": true,
          "internalType": "uint256",
          "name": "tokenId",
          "type": "uint256"
        },
        {
          "indexed": true,
          "internalType": "address",
          "name": "artist",
          "type": "address"
        },
        {
          "indexed": false,
          "internalType": "int256",
          "name": "latitude",
          "type": "int256"
        },
        {
          "indexed": false,
          "internalType": "int256",
          "name": "longitude",
          "type": "int256"
        },
        {
          "indexed": false,
          "internalType": "string",
          "name": "metadataURI",
          "type": "string"
        },
        {
          "indexed": false,
          "internalType": "string",
          "name": "geoHash",
          "type": "string"
        }
      ],
      "name": "NFTMinted",
      "type": "event"
    },
    {
      "anonymous": false,
      "inputs": [
        {
          "indexed": true,
          "internalType": "address",
          "name": "previousOwner",
          "type": "address"
        },
        {
          "indexed": true,
          "internalType": "address",
          "name": "newOwner",
          "type": "address"
        }
      ],
      "name": "OwnershipTransferred",
      "type": "event"
    },
    {
      "anonymous": false,
      "inputs": [
        {
          "indexed": true,
          "internalType": "address",
          "name": "from",
          "type": "address"
        },
        {
          "indexed": true,
          "internalType": "address",
          "name": "to",
          "type": "address"
        },
        {
          "indexed": true,
          "internalType": "uint256",
          "name": "tokenId",
          "type": "uint256"
        }
      ],
      "name": "Transfer",
      "type": "event"
    },
    {
      "inputs": [],
      "name": "DEFAULT_ROYALTY_PERCENTAGE",
      "outputs": [
        {
          "internalType": "uint256",
          "name": "",
          "type": "uint256"
        }
      ],
      "stateMutability": "view",
      "type": "function"
    },
    {
      "inputs": [],
      "name": "MAX_ROYALTY_PERCENTAGE",
      "outputs": [
        {
          "internalType": "uint256",
          "name": "",
          "type": "uint256"
        }
      ],
      "stateMutability": "view",
      "type": "function"
    },
    {
      "inputs": [
        {
          "internalType": "address",
          "name": "to",
          "type": "address"
        },
        {
          "internalType": "uint256",
          "name": "tokenId",
          "type": "uint256"
        }
      ],
      "name": "approve",
      "outputs": [],
      "stateMutability": "nonpayable",
      "type": "function"
    },
    {
      "inputs": [
        {
          "internalType": "address",
          "name": "owner",
          "type": "address"
        }
      ],
      "name": "balanceOf",
      "outputs": [
        {
          "internalType": "uint256",
          "name": "",
          "type": "uint256"
        }
      ],
      "stateMutability": "view",
      "type": "function"
    },
    {
      "inputs": [
        {
          "internalType": "uint256",
          "name": "",
          "type": "uint256"
        }
      ],
      "name": "geoData",
      "outputs": [
        {
          "internalType": "int256",
          "name": "latitude",
          "type": "int256"
        },
        {
          "internalType": "int256",
          "name": "longitude",
          "type": "int256"
        },
        {
          "internalType": "string",
          "name": "location",
          "type": "string"
        },
        {
          "internalType": "address",
          "name": "artist",
          "type": "address"
        },
        {
          "internalType": "uint256",
          "name": "mintedAt",
          "type": "uint256"
        },
        {
          "internalType": "string",
          "name": "geoHash",
          "type": "string"
        },
        {
          "internalType": "bool",
          "name": "claimable",
          "type": "bool"
        }
      ],
      "stateMutability": "view",
      "type": "function"
    },
    {
      "inputs": [
        {
          "internalType": "uint256",
          "name": "tokenId",
          "type": "uint256"
        }
      ],
      "name": "getApproved",
      "outputs": [
        {
          "internalType": "address",
          "name": "",
          "type": "address"
        }
      ],
      "stateMutability": "view",
      "type": "function"
    },
    {
      "inputs": [
        {
          "internalType": "uint256",
          "name": "tokenId",
          "type": "uint256"
        }
      ],
      "name": "getGeoData",
      "outputs": [
        {
          "components": [
            {
              "internalType": "int256",
              "name": "latitude",
              "type": "int256"
            },
            {
              "internalType": "int256",
              "name": "longitude",
              "type": "int256"
            },
            {
              "internalType": "string",
              "name": "location",
              "type": "string"
            },
            {
              "internalType": "address",
              "name": "artist",
              "type": "address"
            },
            {
              "internalType": "uint256",
              "name": "mintedAt",
              "type": "uint256"
            },
            {
              "internalType": "string",
              "name": "geoHash",
              "type": "string"
            },
            {
              "internalType": "bool",
              "name": "claimable",
              "type": "bool"
            }
          ],
          "internalType": "struct GeoTaggedNFT.GeoData",
          "name": "",
          "type": "tuple"
        }
      ],
      "stateMutability": "view",
      "type": "function"
    },
    {
      "inputs": [
        {
          "internalType": "address",
          "name": "owner",
          "type": "address"
        },
        {
          "internalType": "address",
          "name": "operator",
          "type": "address"
        }
      ],
      "name": "isApprovedForAll",
      "outputs": [
        {
          "internalType": "bool",
          "name": "",
          "type": "bool"
        }
      ],
      "stateMutability": "view",
      "type": "function"
    },
    {
      "inputs": [
        {
          "internalType": "address",
          "name": "to",
          "type": "address"
        },
        {
          "internalType": "string",
          "name": "metadataURI",
          "type": "string"
        },
        {
          "internalType": "int256",
          "name": "latitude",
          "type": "int256"
        },
        {
          "internalType": "int256",
          "name": "longitude",
          "type": "int256"
        },
        {
          "internalType": "string",
          "name": "location",
          "type": "string"
        },
        {
          "internalType": "string",
          "name": "geoHash",
          "type": "string"
        },
        {
          "internalType": "bool",
          "name": "claimable",
          "type": "bool"
        },
        {
          "internalType": "uint256",
          "name": "royaltyBasisPoints",
          "type": "uint256"
        }
      ],
      "name": "mintGeoTaggedNFT",
      "outputs": [
        {
          "internalType": "uint256",
          "name": "",
          "type": "uint256"
        }
      ],
      "stateMutability": "nonpayable",
      "type": "function"
    },
    {
      "inputs": [],
      "name": "name",
      "outputs": [
        {
          "internalType": "string",
          "name": "",
          "type": "string"
        }
      ],
      "stateMutability": "view",
      "type": "function"
    },
    {
      "inputs": [],
      "name": "owner",
      "outputs": [
        {
          "internalType": "address",
          "name": "",
          "type": "address"
        }
      ],
      "stateMutability": "view",
      "type": "function"
    },
    {
      "inputs": [
        {
          "internalType": "uint256",
          "name": "tokenId",
          "type": "uint256"
        }
      ],
      "name": "ownerOf",
      "outputs": [
        {
          "internalType": "address",
          "name": "",
          "type": "address"
        }
      ],
      "stateMutability": "view",
      "type": "function"
    },
    {
      "inputs": [
        {
          "internalType": "address",
          "name": "artist",
          "type": "address"
        }
      ],
      "name": "registerArtist",
      "outputs": [],
      "stateMutability": "nonpayable",
      "type": "function"
    },
    {
      "inputs": [
        {
          "internalType": "address",
          "name": "",
          "type": "address"
        }
      ],
      "name": "registeredArtists",
      "outputs": [
        {
          "internalType": "bool",
          "name": "",
          "type": "bool"
        }
      ],
      "stateMutability": "view",
      "type": "function"
    },
    {
      "inputs": [],
      "name": "renounceOwnership",
      "outputs": [],
      "stateMutability": "nonpayable",
      "type": "function"
    },
    {
      "inputs": [
        {
          "internalType": "uint256",
          "name": "tokenId",
          "type": "uint256"
        },
        {
          "internalType": "uint256",
          "name": "salePrice",
          "type": "uint256"
        }
      ],
      "name": "royaltyInfo",
      "outputs": [
        {
          "internalType": "address",
          "name": "receiver",
          "type": "address"
        },
        {
          "internalType": "uint256",
          "name": "royaltyAmount",
          "type": "uint256"
        }
      ],
      "stateMutability": "view",
      "type": "function"
    },
    {
      "inputs": [
        {
          "internalType": "uint256",
          "name": "",
          "type": "uint256"
        }
      ],
      "name": "royaltyPercentage",
      "outputs": [
        {
          "internalType": "uint256",
          "name": "",
          "type": "uint256"
        }
      ],
      "stateMutability": "view",
      "type": "function"
    },
    {
      "inputs": [
        {
          "internalType": "address",
          "name": "from",
          "type": "address"
        },
        {
          "internalType": "address",
          "name": "to",
          "type": "address"
        },
        {
          "internalType": "uint256",
          "name": "tokenId",
          "type": "uint256"
        }
      ],
      "name": "safeTransferFrom",
      "outputs": [],
      "stateMutability": "nonpayable",
      "type": "function"
    },
    {
      "inputs": [
        {
          "internalType": "address",
          "name": "from",
          "type": "address"
        },
        {
          "internalType": "address",
          "name": "to",
          "type": "address"
        },
        {
          "internalType": "uint256",
          "name": "tokenId",
          "type": "uint256"
        },
        {
          "internalType": "bytes",
          "name": "data",
          "type": "bytes"
        }
      ],
      "name": "safeTransferFrom",
      "outputs": [],
      "stateMutability": "nonpayable",
      "type": "function"
    },
    {
      "inputs": [
        {
          "internalType": "address",
          "name": "operator",
          "type": "address"
        },
        {
          "internalType": "bool",
          "name": "approved",
          "type": "bool"
        }
      ],
      "name": "setApprovalForAll",
      "outputs": [],
      "stateMutability": "nonpayable",
      "type": "function"
    },
    {
      "inputs": [
        {
          "internalType": "bytes4",
          "name": "interfaceId",
          "type": "bytes4"
        }
      ],
      "name": "supportsInterface",
      "outputs": [
        {
          "internalType": "bool",
          "name": "",
          "type": "bool"
        }
      ],
      "stateMutability": "view",
      "type": "function"
    },
    {
      "inputs": [],
      "name": "symbol",
      "outputs": [
        {
          "internalType": "string",
          "name": "",
          "type": "string"
        }
      ],
      "stateMutability": "view",
      "type": "function"
    },
    {
      "inputs": [
        {
          "internalType": "uint256",
          "name": "tokenId",
          "type": "uint256"
        }
      ],
      "name": "toggleClaimable",
      "outputs": [],
      "stateMutability": "nonpayable",
      "type": "function"
    },
    {
      "inputs": [
        {
          "internalType": "uint256",
          "name": "tokenId",
          "type": "uint256"
        }
      ],
      "name": "tokenURI",
      "outputs": [
        {
          "internalType": "string",
          "name": "",
          "type": "string"
        }
      ],
      "stateMutability": "view",
      "type": "function"
    },
    {
      "inputs": [],
      "name": "totalSupply",
      "outputs": [
        {
          "internalType": "uint256",
          "name": "",
          "type": "uint256"
        }
      ],
      "stateMutability": "view",
      "type": "function"
    },
    {
      "inputs": [
        {
          "internalType": "address",
          "name": "from",
          "type": "address"
        },
        {
          "internalType": "address",
          "name": "to",
          "type": "address"
        },
        {
          "internalType": "uint256",
          "name": "tokenId",
          "type": "uint256"
        }
      ],
      "name": "transferFrom",
      "outputs": [],
      "stateMutability": "nonpayable",
      "type": "function"
    },
    {
      "inputs": [
        {
          "internalType": "address",
          "name": "newOwner",
          "type": "address"
        }
      ],
      "name": "transferOwnership",
      "outputs": [],
      "stateMutability": "nonpayable",
      "type": "function"
    },
    {
      "inputs": [
        {
          "internalType": "uint256",
          "name": "tokenId",
          "type": "uint256"
        },
        {
          "internalType": "int256",
          "name": "newLatitude",
          "type": "int256"
        },
        {
          "internalType": "int256",
          "name": "newLongitude",
          "type": "int256"
        }
      ],
      "name": "updateLocation",
      "outputs": [],
      "stateMutability": "nonpayable",
      "type": "function"
    }
  ],
  "bytecode": "0x6080346200036e576001600160401b039060408181018381118382101762000358578152601682526020917f43757272656e742047656f2d546167676564204e465400000000000000000000838201528151938285018581108282111762000358578352600785526610d5549491539560ca1b84860152815181811162000358576000948554916001948584811c941680156200034d575b8385101462000339578190601f94858111620002e6575b5083908583116001146200028257899262000276575b5050600019600383901b1c191690851b1786555b8651928311620002625783548481811c9116801562000257575b828210146200024357828111620001fb575b50809183116001146200019457508495829394959262000188575b5050600019600383901b1c191690821b1790555b60078054336001600160a01b03198216811790925591519290916001600160a01b0316907f8be0079c531659141344cd1fd0a4f28419497f9722a3daafe3b4186f6b6457e09080a361200c9081620003748239f35b0151905038806200011f565b90601f198316968487528287209287905b898210620001e3575050838596979810620001c9575b505050811b01905562000133565b015160001960f88460031b161c19169055388080620001bb565b808785968294968601518155019501930190620001a5565b8487528187208380860160051c82019284871062000239575b0160051c019085905b8281106200022d57505062000104565b8881550185906200021d565b9250819262000214565b634e487b7160e01b87526022600452602487fd5b90607f1690620000f2565b634e487b7160e01b86526041600452602486fd5b015190503880620000c4565b898052848a208894509190601f1984168b5b87828210620002cf5750508411620002b5575b505050811b018655620000d8565b015160001960f88460031b161c19169055388080620002a7565b8385015186558b9790950194938401930162000294565b9091508880528389208580850160051c8201928686106200032f575b918991869594930160051c01915b82811062000320575050620000ae565b8b815585945089910162000310565b9250819262000302565b634e487b7160e01b88526022600452602488fd5b93607f169362000097565b634e487b7160e01b600052604160045260246000fd5b600080fdfe608080604052600436101561001357600080fd5b60003560e01c90816301ffc9a7146117485750806306fdde03146116a5578063081812fc14611687578063095ea7b31461150d57806312926030146114e157806318160ddd146114c357806323b872dd1461149a57806328088de31461147d5780632a55205a146113e357806342842e0e146113bb5780634cb33d5b146113525780634d077cd5146112505780635800e73f146111705780636352211e1461114057806370a08231146110a9578063715018a61461104c5780638da5cb5b146110235780638e99005e14610f7d57806393e661da146106b057806395d89b41146105d1578063a22cb465146104f6578063a9225d1b146104d9578063b88d4fde14610477578063c87b56dd14610401578063d305485d146102b1578063e985e9c51461025b578063f2fde38b146101975763f558369f1461015357600080fd5b34610192576020366003190112610192576001600160a01b03610174611827565b16600052600a602052602060ff604060002054166040519015158152f35b600080fd5b34610192576020366003190112610192576101b0611827565b6101b8611a33565b6001600160a01b0390811690811561020757600754826001600160601b0360a01b821617600755167f8be0079c531659141344cd1fd0a4f28419497f9722a3daafe3b4186f6b6457e0600080a3005b60405162461bcd60e51b815260206004820152602660248201527f4f776e61626c653a206e6577206f776e657220697320746865207a65726f206160448201526564647265737360d01b6064820152608490fd5b3461019257604036600319011261019257610274611827565b61027c61183d565b9060018060a01b03809116600052600560205260406000209116600052602052602060ff604060002054166040519015158152f35b346101925760208060031936011261019257600435600060c06040516102d6816118c2565b828152828582015260606040820152826060820152826080820152606060a0820152015261032161031c82600052600260205260018060a01b0360406000205416151590565b611f7f565b6000526009815260406000206040519061033a826118c2565b805482526103f46001820154918484019283526103596002820161191c565b906040850191825260018060a01b03918260038301541692606087019384526103d46004840154926080890193845260ff60066103986005880161191c565b9660a08c019788520154169760c08a0198151589526040519a8b9a818c5251908b01525160408a01525160e060608a01526101008901906117e7565b93511660808701525160a086015251848203601f190160c08601526117e7565b9051151560e08301520390f35b3461019257602036600319011261019257600435600081815260026020526040902054610438906001600160a01b03161515611a8b565b6000526006602052610473610450604060002061191c565b600060405161045e816118de565b526040519182916020835260208301906117e7565b0390f35b3461019257608036600319011261019257610490611827565b61049861183d565b6064359167ffffffffffffffff83116101925736602384011215610192576104cd6104d79336906024816004013591016119de565b9160443591611b9a565b005b346101925760003660031901126101925760206040516103e88152f35b346101925760403660031901126101925761050f611827565b6024359081151590818303610192576001600160a01b03169133831461058c5761055e9033600052600560205260406000208460005260205260406000209060ff801983541691151516179055565b6040519081527f17307eab39ab6107e8899845ad3d59bd9653f200f220920489ca2b5937696c3160203392a3005b60405162461bcd60e51b815260206004820152601960248201527f4552433732313a20617070726f766520746f2063616c6c6572000000000000006044820152606490fd5b3461019257600036600319011261019257604051600060018054906105f582611888565b808552918181169081156106895750600114610630575b6104738461061c818603826118fa565b6040519182916020835260208301906117e7565b600081815292507fb10e2d527612073b26eecdfd717e6a320cf44b4afac2b0732d9fcbe2b7fa0cf65b82841061067157505050810160200161061c8261060c565b80546020858701810191909152909301928101610659565b60ff191660208087019190915292151560051b8501909201925061061c915083905061060c565b3461019257610100366003190112610192576106ca611827565b60243567ffffffffffffffff8111610192576106ea903690600401611a15565b9060843567ffffffffffffffff81116101925761070b903690600401611a15565b60a43567ffffffffffffffff81116101925761072b903690600401611a15565b9060c43580151581036101925733600052600a60205260ff604060002054168015610f69575b15610f0c5763055d4a7f19604435121580610efc575b15610eb757630aba94ff19606435121580610ea7575b15610e62576103e860e43511610e0b576008805460010190819055936001600160a01b03811615610dc7576000858152600260205260409020548591906107d0906001600160a01b031615155b15611f33565b6000828152600260205260409020546107f3906001600160a01b031615156107ca565b6001600160a01b03166000818152600360209081526040808320805460010190558483526002909152812080546001600160a01b031916831790557fddf252ad1be2c89b69c2b068fc378daa952ba7f163c4a11628f55a4df523b3ef8180a46000848152600260205260409020546001600160a01b031615610d6b578360005260066020526040600020855167ffffffffffffffff8111610bd4576108988254611888565b601f8111610d27575b50806020601f8211600114610cc057600091610cb5575b508160011b916000199060031b1c19161790555b7ff8e1a15aba9398e019f0b49df1a4fde98ee17ae345cb5f6b5e2c27f5033e8ce76020604051868152a160405191610903836118c2565b6044358352606435602084015260408301523360608301524260808301528260a0830152151560c08201528260005260096020526040600020908051825560208101516001830155604081015180519067ffffffffffffffff8211610bd45781906109716002860154611888565b601f8111610c62575b50602090601f8311600114610bf557600092610bea575b50508160011b916000199060031b1c19161760028301555b6003820160018060a01b036060830151166001600160601b0360a01b8254161790556080810151600483015560a081015180519067ffffffffffffffff8211610bd4576109f96005850154611888565b601f8111610b8d575b5091859391602097938890601f8311600114610aee5760c07ff768becb6273be6cc55b302c8f33cfa89c5ad244e0f469bacb55329f869415a0969484610a8195610ac19895600695600092610ae3575b50508160011b916000199060031b1c19161760058501555b0151151591019060ff801983541691151516179055565b60e43515610adb5760e4355b84600052600b8852604060002055610ad060405192839260443584526064358a8501526080604085015260808401906117e7565b828103606084015233966117e7565b0390a3604051908152f35b6101f4610a8d565b015190508e80610a52565b9060058501600052896000209160005b601f1985168110610b7357507ff768becb6273be6cc55b302c8f33cfa89c5ad244e0f469bacb55329f869415a09694600185610ac1989560069560c095610a8199601f19811610610b5a575b505050811b016005850155610a6a565b015160001960f88460031b161c191690558e8080610b4a565b8183015184558a9850600190930192918b01918b01610afe565b600585016000526020600020601f840160051c810160208510610bcd575b601f830160051c82018110610bc1575050610a02565b60008155600101610bab565b5080610bab565b634e487b7160e01b600052604160045260246000fd5b015190508780610991565b600286016000908152602081209350601f198516905b818110610c4a5750908460019594939210610c31575b505050811b0160028301556109a9565b015160001960f88460031b161c19169055878080610c21565b92936020600181928786015181550195019301610c0b565b909150600285016000526020600020601f840160051c810160208510610cae575b90849392915b601f830160051c82018110610c9f57505061097a565b60008155859450600101610c89565b5080610c83565b9050870151886108b8565b91508260005260206000206000925b601f1983168410610d0f576001935082601f19811610610cf6575b5050811b0190556108cc565b89015160001960f88460031b161c191690558880610cea565b89810151825560209384019360019092019101610ccf565b826000526020600020601f830160051c810160208410610d64575b601f830160051c82018110610d585750506108a1565b60008155600101610d42565b5080610d42565b60405162461bcd60e51b815260206004820152602e60248201527f45524337323155524953746f726167653a2055524920736574206f66206e6f6e60448201526d32bc34b9ba32b73a103a37b5b2b760911b6064820152608490fd5b606460405162461bcd60e51b815260206004820152602060248201527f4552433732313a206d696e7420746f20746865207a65726f20616464726573736044820152fd5b60405162461bcd60e51b815260206004820152602960248201527f47656f5461676765644e46543a20526f79616c74792070657263656e74616765604482015268040e8dede40d0d2ced60bb1b6064820152608490fd5b60405162461bcd60e51b815260206004820152601f60248201527f47656f5461676765644e46543a20496e76616c6964206c6f6e676974756465006044820152606490fd5b50630aba9500606435131561077d565b60405162461bcd60e51b815260206004820152601e60248201527f47656f5461676765644e46543a20496e76616c6964206c6174697475646500006044820152606490fd5b5063055d4a806044351315610767565b60405162461bcd60e51b815260206004820152602f60248201527f47656f5461676765644e46543a2043616c6c6572206973206e6f74206120726560448201526e19da5cdd195c995908185c9d1a5cdd608a1b6064820152608490fd5b506007546001600160a01b03163314610751565b3461019257602036600319011261019257600435600052600960205260406000208054600182015491611017610fb56002830161191c565b9160018060a01b03600382015416906004810154610fff60ff6006610fdc6005860161191c565b94015416956040519889988952602089015260e0604089015260e08801906117e7565b926060870152608086015284820360a08601526117e7565b90151560c08301520390f35b34610192576000366003190112610192576007546040516001600160a01b039091168152602090f35b3461019257600036600319011261019257611065611a33565b600780546001600160a01b031981169091556000906001600160a01b03167f8be0079c531659141344cd1fd0a4f28419497f9722a3daafe3b4186f6b6457e08280a3005b34610192576020366003190112610192576001600160a01b036110ca611827565b1680156110e95760005260036020526020604060002054604051908152f35b60405162461bcd60e51b815260206004820152602960248201527f4552433732313a2061646472657373207a65726f206973206e6f7420612076616044820152683634b21037bbb732b960b91b6064820152608490fd5b3461019257602036600319011261019257602061115e600435611ad7565b6040516001600160a01b039091168152f35b34610192576020366003190112610192576004356000818152600260205260409020546111a7906001600160a01b03161515611f7f565b6000818152600960205260409020600301546001600160a01b031633036111ed576000908152600960205260409020600601805460ff818116151660ff19909116179055005b60405162461bcd60e51b815260206004820152603560248201527f47656f5461676765644e46543a204f6e6c79206172746973742063616e20746f60448201527467676c6520636c61696d61626c652073746174757360581b6064820152608490fd5b3461019257606036600319011261019257600435600081815260026020526040902054602435906044359061128f906001600160a01b03161515611f7f565b6000838152600960205260409020600301546001600160a01b031633036112f7577fa7d7153cb853320cae55bf1bdc5c4526cd74ebb8c17bbfe765498d85633452b09160409184600052600960205280600184600020848155015582519182526020820152a2005b60405162461bcd60e51b815260206004820152602d60248201527f47656f5461676765644e46543a204f6e6c79206172746973742063616e20757060448201526c3230ba32903637b1b0ba34b7b760991b6064820152608490fd5b346101925760203660031901126101925761136b611827565b611373611a33565b6001600160a01b03166000818152600a60205260408120805460ff191660011790557fa8476a100dfe10a5a1eaf141fb52ce03e930b3592d93f086ea603b0f9152649a9080a2005b34610192576104d76113cc36611853565b90604051926113da846118de565b60008452611b9a565b3461019257604036600319011261019257600435600081815260026020526040902054602435919061141f906001600160a01b03161515611f7f565b600052600960205260018060a01b0360036040600020015416600b60205260406000205491828102928184041490151715611467576127106040928351928352046020820152f35b634e487b7160e01b600052601160045260246000fd5b346101925760003660031901126101925760206040516101f48152f35b34610192576104d76114ab36611853565b916114be6114b98433611c35565b611b38565b611cfd565b34610192576000366003190112610192576020600854604051908152f35b3461019257602036600319011261019257600435600052600b6020526020604060002054604051908152f35b3461019257604036600319011261019257611526611827565b602435906001600160a01b03808061153d85611ad7565b1692169180831461163857803314908115611613575b50156115a857600083815260046020526040902080546001600160a01b0319168317905561158083611ad7565b167f8c5be1e5ebec7d5bd14f71427d1e84f3dd0314c0f7b2291e5b200ac8c7c3b925600080a4005b60405162461bcd60e51b815260206004820152603d60248201527f4552433732313a20617070726f76652063616c6c6572206973206e6f7420746f60448201527f6b656e206f776e6572206f7220617070726f76656420666f7220616c6c0000006064820152608490fd5b9050600052600560205260406000203360005260205260ff6040600020541684611553565b60405162461bcd60e51b815260206004820152602160248201527f4552433732313a20617070726f76616c20746f2063757272656e74206f776e656044820152603960f91b6064820152608490fd5b3461019257602036600319011261019257602061115e600435611afa565b3461019257600036600319011261019257604051600080546116c681611888565b8084529060019081811690811561068957506001146116ef576104738461061c818603826118fa565b600080805292507f290decd9548b62a8d60345a988386fc84ba6bc95484008f6362f93160ef3e5635b82841061173057505050810160200161061c8261060c565b80546020858701810191909152909301928101611718565b34610192576020366003190112610192576004359063ffffffff60e01b82168092036101925760209163152a902d60e11b811490811561178a575b5015158152f35b632483248360e11b8114915081156117a4575b5083611783565b6380ac58cd60e01b8114915081156117d6575b81156117c5575b508361179d565b6301ffc9a760e01b149050836117be565b635b5e139f60e01b811491506117b7565b919082519283825260005b848110611813575050826000602080949584010152601f8019910116010190565b6020818301810151848301820152016117f2565b600435906001600160a01b038216820361019257565b602435906001600160a01b038216820361019257565b6060906003190112610192576001600160a01b0390600435828116810361019257916024359081168103610192579060443590565b90600182811c921680156118b8575b60208310146118a257565b634e487b7160e01b600052602260045260246000fd5b91607f1691611897565b60e0810190811067ffffffffffffffff821117610bd457604052565b6020810190811067ffffffffffffffff821117610bd457604052565b90601f8019910116810190811067ffffffffffffffff821117610bd457604052565b906040519182600082549261193084611888565b90818452600194858116908160001461199f575060011461195c575b505061195a925003836118fa565b565b9093915060005260209081600020936000915b81831061198757505061195a9350820101388061194c565b8554888401850152948501948794509183019161196f565b91505061195a94506020925060ff191682840152151560051b820101388061194c565b67ffffffffffffffff8111610bd457601f01601f191660200190565b9291926119ea826119c2565b916119f860405193846118fa565b829481845281830111610192578281602093846000960137010152565b9080601f8301121561019257816020611a30933591016119de565b90565b6007546001600160a01b03163303611a4757565b606460405162461bcd60e51b815260206004820152602060248201527f4f776e61626c653a2063616c6c6572206973206e6f7420746865206f776e65726044820152fd5b15611a9257565b60405162461bcd60e51b815260206004820152601860248201527f4552433732313a20696e76616c696420746f6b656e20494400000000000000006044820152606490fd5b6000908152600260205260409020546001600160a01b0316611a30811515611a8b565b600081815260026020526040902054611b1d906001600160a01b03161515611a8b565b6000908152600460205260409020546001600160a01b031690565b15611b3f57565b60405162461bcd60e51b815260206004820152602d60248201527f4552433732313a2063616c6c6572206973206e6f7420746f6b656e206f776e6560448201526c1c881bdc88185c1c1c9bdd9959609a1b6064820152608490fd5b90611bbe939291611bae6114b98433611c35565b611bb9838383611cfd565b611e0e565b15611bc557565b60405162461bcd60e51b815280611bde60048201611be2565b0390fd5b60809060208152603260208201527f4552433732313a207472616e7366657220746f206e6f6e20455243373231526560408201527131b2b4bb32b91034b6b83632b6b2b73a32b960711b60608201520190565b906001600160a01b038080611c4984611ad7565b16931691838314938415611c7c575b508315611c66575b50505090565b611c7291929350611afa565b1614388080611c60565b909350600052600560205260406000208260005260205260ff604060002054169238611c58565b15611caa57565b60405162461bcd60e51b815260206004820152602560248201527f4552433732313a207472616e736665722066726f6d20696e636f72726563742060448201526437bbb732b960d91b6064820152608490fd5b90611d2591611d0b84611ad7565b6001600160a01b0393918416928492909183168414611ca3565b16918215611dbd5781611d4291611d3b86611ad7565b1614611ca3565b7fddf252ad1be2c89b69c2b068fc378daa952ba7f163c4a11628f55a4df523b3ef60008481526004602052604081206001600160601b0360a01b9081815416905583825260036020526040822060001981540190558482526040822060018154019055858252600260205284604083209182541617905580a4565b60405162461bcd60e51b8152602060048201526024808201527f4552433732313a207472616e7366657220746f20746865207a65726f206164646044820152637265737360e01b6064820152608490fd5b9293600093909291803b15611f2857948491611e689660405180948193630a85bd0160e11b9788845233600485015260018060a01b0380921660248501526044840152608060648401528260209b8c9760848301906117e7565b0393165af1849181611ee4575b50611ed3575050503d600014611ecb573d611e8f816119c2565b90611e9d60405192836118fa565b81528091833d92013e5b80519182611ec85760405162461bcd60e51b815280611bde60048201611be2565b01fd5b506060611ea7565b6001600160e01b0319161492509050565b9091508581813d8311611f21575b611efc81836118fa565b81010312611f1d57516001600160e01b031981168103611f1d579038611e75565b8480fd5b503d611ef2565b505050915050600190565b15611f3a57565b60405162461bcd60e51b815260206004820152601c60248201527f4552433732313a20746f6b656e20616c7265616479206d696e746564000000006044820152606490fd5b15611f8657565b60405162461bcd60e51b815260206004820152602260248201527f47656f5461676765644e46543a20546f6b656e20646f6573206e6f74206578696044820152611cdd60f21b6064820152608490fdfea2646970667358221220bb27f8f92f131e648bca4ae0214def2c57086df07a7d5f81c1db8bdab1bf505e64736f6c63430008130033",
  "linkReferences": {},
  "deployedLinkReferences": {}
}