{"contracts/NFTClaimContract.sol":{"NFTClaimContract":{"abi":[{"inputs":[{"internalType":"address","name":"_geoTaggedNFTContract","type":"address"}],"stateMutability":"nonpayable","type":"constructor"},{"anonymous":false,"inputs":[{"indexed":true,"internalType":"address","name":"owner","type":"address"},{"indexed":true,"internalType":"address","name":"approved","type":"address"},{"indexed":true,"internalType":"uint256","name":"tokenId","type":"uint256"}],"name":"Approval","type":"event"},{"anonymous":false,"inputs":[{"indexed":true,"internalType":"address","name":"owner","type":"address"},{"indexed":true,"internalType":"address","name":"operator","type":"address"},{"indexed":false,"internalType":"bool","name":"approved","type":"bool"}],"name":"ApprovalForAll","type":"event"},{"anonymous":false,"inputs":[{"indexed":false,"internalType":"uint256","name":"_fromTokenId","type":"uint256"},{"indexed":false,"internalType":"uint256","name":"_toTokenId","type":"uint256"}],"name":"BatchMetadataUpdate","type":"event"},{"anonymous":false,"inputs":[{"indexed":true,"internalType":"address","name":"oldContract","type":"address"},{"indexed":true,"internalType":"address","name":"newContract","type":"address"}],"name":"ClaimContractUpdated","type":"event"},{"anonymous":false,"inputs":[{"indexed":false,"internalType":"uint256","name":"_tokenId","type":"uint256"}],"name":"MetadataUpdate","type":"event"},{"anonymous":false,"inputs":[{"indexed":true,"internalType":"uint256","name":"claimTokenId","type":"uint256"},{"indexed":true,"internalType":"uint256","name":"originalTokenId","type":"uint256"},{"indexed":true,"internalType":"address","name":"claimer","type":"address"},{"indexed":false,"internalType":"uint256","name":"claimOrder","type":"uint256"},{"indexed":false,"internalType":"uint256","name":"timestamp","type":"uint256"}],"name":"NFTClaimed","type":"event"},{"anonymous":false,"inputs":[{"indexed":true,"internalType":"address","name":"previousOwner","type":"address"},{"indexed":true,"internalType":"address","name":"newOwner","type":"address"}],"name":"OwnershipTransferred","type":"event"},{"anonymous":false,"inputs":[{"indexed":true,"internalType":"address","name":"from","type":"address"},{"indexed":true,"internalType":"address","name":"to","type":"address"},{"indexed":true,"internalType":"uint256","name":"tokenId","type":"uint256"}],"name":"Transfer","type":"event"},{"inputs":[],"name":"LOCATION_TOLERANCE","outputs":[{"internalType":"uint256","name":"","type":"uint256"}],"stateMutability":"view","type":"function"},{"inputs":[{"internalType":"address","name":"to","type":"address"},{"internalType":"uint256","name":"tokenId","type":"uint256"}],"name":"approve","outputs":[],"stateMutability":"nonpayable","type":"function"},{"inputs":[{"internalType":"address","name":"owner","type":"address"}],"name":"balanceOf","outputs":[{"internalType":"uint256","name":"","type":"uint256"}],"stateMutability":"view","type":"function"},{"inputs":[{"internalType":"uint256","name":"","type":"uint256"}],"name":"claimData","outputs":[{"internalType":"uint256","name":"originalTokenId","type":"uint256"},{"internalType":"address","name":"claimer","type":"address"},{"internalType":"uint256","name":"claimedAt","type":"uint256"},{"internalType":"uint256","name":"claimOrder","type":"uint256"},{"internalType":"string","name":"claimLocation","type":"string"},{"internalType":"bool","name":"verified","type":"bool"}],"stateMutability":"view","type":"function"},{"inputs":[{"internalType":"uint256","name":"originalTokenId","type":"uint256"},{"internalType":"string","name":"claimMetadataURI","type":"string"},{"internalType":"int256","name":"userLatitude","type":"int256"},{"internalType":"int256","name":"userLongitude","type":"int256"},{"internalType":"uint256","name":"timestamp","type":"uint256"},{"internalType":"bytes","name":"signature","type":"bytes"}],"name":"claimNFT","outputs":[{"internalType":"uint256","name":"","type":"uint256"}],"stateMutability":"nonpayable","type":"function"},{"inputs":[{"internalType":"uint256","name":"","type":"uint256"},{"internalType":"uint256","name":"","type":"uint256"}],"name":"claimTokenByOrder","outputs":[{"internalType":"uint256","name":"","type":"uint256"}],"stateMutability":"view","type":"function"},{"inputs":[{"internalType":"uint256","name":"originalTokenId","type":"uint256"},{"internalType":"address","name":"claimer","type":"address"},{"internalType":"string","name":"claimMetadataURI","type":"string"}],"name":"emergencyClaim","outputs":[{"internalType":"uint256","name":"","type":"uint256"}],"stateMutability":"nonpayable","type":"function"},{"inputs":[],"name":"geoTaggedNFTContract","outputs":[{"internalType":"contract IGeoTaggedNFT","name":"","type":"address"}],"stateMutability":"view","type":"function"},{"inputs":[{"internalType":"uint256","name":"tokenId","type":"uint256"}],"name":"getApproved","outputs":[{"internalType":"address","name":"","type":"address"}],"stateMutability":"view","type":"function"},{"inputs":[{"internalType":"uint256","name":"claimTokenId","type":"uint256"}],"name":"getClaimData","outputs":[{"components":[{"internalType":"uint256","name":"originalTokenId","type":"uint256"},{"internalType":"address","name":"claimer","type":"address"},{"internalType":"uint256","name":"claimedAt","type":"uint256"},{"internalType":"uint256","name":"claimOrder","type":"uint256"},{"internalType":"string","name":"claimLocation","type":"string"},{"internalType":"bool","name":"verified","type":"bool"}],"internalType":"struct NFTClaimContract.ClaimData","name":"","type":"tuple"}],"stateMutability":"view","type":"function"},{"inputs":[{"internalType":"uint256","name":"originalTokenId","type":"uint256"},{"internalType":"uint256","name":"order","type":"uint256"}],"name":"getClaimTokenByOrder","outputs":[{"internalType":"uint256","name":"","type":"uint256"}],"stateMutability":"view","type":"function"},{"inputs":[{"internalType":"uint256","name":"originalTokenId","type":"uint256"}],"name":"getTotalClaims","outputs":[{"internalType":"uint256","name":"","type":"uint256"}],"stateMutability":"view","type":"function"},{"inputs":[{"internalType":"uint256","name":"","type":"uint256"},{"internalType":"address","name":"","type":"address"}],"name":"hasClaimed","outputs":[{"internalType":"bool","name":"","type":"bool"}],"stateMutability":"view","type":"function"},{"inputs":[{"internalType":"uint256","name":"originalTokenId","type":"uint256"},{"internalType":"address","name":"user","type":"address"}],"name":"hasUserClaimed","outputs":[{"internalType":"bool","name":"","type":"bool"}],"stateMutability":"view","type":"function"},{"inputs":[{"internalType":"address","name":"owner","type":"address"},{"internalType":"address","name":"operator","type":"address"}],"name":"isApprovedForAll","outputs":[{"internalType":"bool","name":"","type":"bool"}],"stateMutability":"view","type":"function"},{"inputs":[],"name":"name","outputs":[{"internalType":"string","name":"","type":"string"}],"stateMutability":"view","type":"function"},{"inputs":[],"name":"owner","outputs":[{"internalType":"address","name":"","type":"address"}],"stateMutability":"view","type":"function"},{"inputs":[{"internalType":"uint256","name":"tokenId","type":"uint256"}],"name":"ownerOf","outputs":[{"internalType":"address","name":"","type":"address"}],"stateMutability":"view","type":"function"},{"inputs":[],"name":"renounceOwnership","outputs":[],"stateMutability":"nonpayable","type":"function"},{"inputs":[{"internalType":"address","name":"from","type":"address"},{"internalType":"address","name":"to","type":"address"},{"internalType":"uint256","name":"tokenId","type":"uint256"}],"name":"safeTransferFrom","outputs":[],"stateMutability":"nonpayable","type":"function"},{"inputs":[{"internalType":"address","name":"from","type":"address"},{"internalType":"address","name":"to","type":"address"},{"internalType":"uint256","name":"tokenId","type":"uint256"},{"internalType":"bytes","name":"data","type":"bytes"}],"name":"safeTransferFrom","outputs":[],"stateMutability":"nonpayable","type":"function"},{"inputs":[{"internalType":"address","name":"operator","type":"address"},{"internalType":"bool","name":"approved","type":"bool"}],"name":"setApprovalForAll","outputs":[],"stateMutability":"nonpayable","type":"function"},{"inputs":[{"internalType":"address","name":"_verificationSigner","type":"address"}],"name":"setVerificationSigner","outputs":[],"stateMutability":"nonpayable","type":"function"},{"inputs":[{"internalType":"bytes4","name":"interfaceId","type":"bytes4"}],"name":"supportsInterface","outputs":[{"internalType":"bool","name":"","type":"bool"}],"stateMutability":"view","type":"function"},{"inputs":[],"name":"symbol","outputs":[{"internalType":"string","name":"","type":"string"}],"stateMutability":"view","type":"function"},{"inputs":[{"internalType":"uint256","name":"tokenId","type":"uint256"}],"name":"tokenURI","outputs":[{"internalType":"string","name":"","type":"string"}],"stateMutability":"view","type":"function"},{"inputs":[{"internalType":"uint256","name":"","type":"uint256"}],"name":"totalClaims","outputs":[{"internalType":"uint256","name":"","type":"uint256"}],"stateMutability":"view","type":"function"},{"inputs":[],"name":"totalSupply","outputs":[{"internalType":"uint256","name":"","type":"uint256"}],"stateMutability":"view","type":"function"},{"inputs":[{"internalType":"address","name":"from","type":"address"},{"internalType":"address","name":"to","type":"address"},{"internalType":"uint256","name":"tokenId","type":"uint256"}],"name":"transferFrom","outputs":[],"stateMutability":"nonpayable","type":"function"},{"inputs":[{"internalType":"address","name":"newOwner","type":"address"}],"name":"transferOwnership","outputs":[],"stateMutability":"nonpayable","type":"function"},{"inputs":[{"internalType":"address","name":"_newContract","type":"address"}],"name":"updateGeoTaggedNFTContract","outputs":[],"stateMutability":"nonpayable","type":"function"},{"inputs":[{"internalType":"bytes32","name":"","type":"bytes32"}],"name":"usedSignatures","outputs":[{"internalType":"bool","name":"","type":"bool"}],"stateMutability":"view","type":"function"},{"inputs":[],"name":"verificationSigner","outputs":[{"internalType":"address","name":"","type":"address"}],"stateMutability":"view","type":"function"}],"evm":{"bytecode":{"linkReferences":{},"object":"608034620003c257601f90601f19906001600160401b0390620029d4388190038581018516830184811184821017620003ac57839282916040528339602092839181010312620003c257516001600160a01b03948582169391849003620003c2576200006a620003c7565b92601484527f43757272656e7420436c61696d20546f6b656e73000000000000000000000000818501526200009e620003c7565b906005825264434c41494d60d81b81830152845196848811620003ac576000978854966001978881811c91168015620003a1575b858210146200038d579081878493116200033a575b508490878311600114620002d9578b92620002cd575b5050600019600383901b1c191690871b1788555b8251948511620002b95785548681811c91168015620002ae575b838210146200029a5790818587969594931162000241575b5081938511600114620001dc5750508692620001d0575b5050600019600383901b1c191690821b1781555b60075460018060a01b03199333858316176007557f8be0079c531659141344cd1fd0a4f28419497f9722a3daafe3b4186f6b6457e0604051963393169180a360085581600a541617600a55339060105416176010556125ec9081620003e88239f35b0151905038806200015a565b869593929193168589528389209389905b8282106200022757505084116200020d575b505050811b0181556200016e565b015160001960f88460031b161c19169055388080620001ff565b8484015186558897909501949384019390810190620001ed565b9091929394508689528289208580880160051c82019285891062000290575b9188978a9297969594930160051c01915b8281106200028157505062000143565b8b815588975089910162000271565b9250819262000260565b634e487b7160e01b89526022600452602489fd5b90607f16906200012b565b634e487b7160e01b88526041600452602488fd5b015190503880620000fd565b90848a9416918c8052868d20928d5b8882821062000323575050841162000309575b505050811b01885562000111565b015160001960f88460031b161c19169055388080620002fb565b8385015186558d97909501949384019301620002e8565b9091508a8052848b208780850160051c82019287861062000383575b918b91869594930160051c01915b82811062000374575050620000e7565b8d81558594508b910162000364565b9250819262000356565b634e487b7160e01b8b52602260045260248bfd5b90607f1690620000d2565b634e487b7160e01b600052604160045260246000fd5b600080fd5b60408051919082016001600160401b03811183821017620003ac5760405256fe608080604052600436101561001357600080fd5b60003560e01c90816301ffc9a7146117385750806305289552146113ec57806306fdde031461134957806307c7a72d146106bd578063081812fc1461132b578063095ea7b3146111b157806318160ddd146111935780631afce6e91461102857806323b872dd14610fff57806339d40ec4146103d857806342842e0e14610fd75780634e0a9927146108f757806354903f46146104345780636352211e146108c757806370a082311461083057806371364b8b146107ed578063715018a61461079057806377c7794f146107265780637fde37611461070a578063873f6f9e146106bd5780638da5cb5b1461069457806395d89b41146105b5578063a22cb465146104da578063b88d4fde14610489578063ba92c79914610460578063bbc538fb14610434578063c29bb1dc1461040b578063c4a9c1f0146103d8578063c6f0308c14610350578063c87b56dd146102da578063e985e9c514610284578063f2fde38b146101c05763f978fd611461018a57600080fd5b346101bb5760203660031901126101bb57600435600052600f602052602060ff604060002054166040519015158152f35b600080fd5b346101bb5760203660031901126101bb576101d96117d3565b6101e1611a19565b6001600160a01b0390811690811561023057600754826001600160601b0360a01b821617600755167f8be0079c531659141344cd1fd0a4f28419497f9722a3daafe3b4186f6b6457e0600080a3005b60405162461bcd60e51b815260206004820152602660248201527f4f776e61626c653a206e6577206f776e657220697320746865207a65726f206160448201526564647265737360d01b6064820152608490fd5b346101bb5760403660031901126101bb5761029d6117d3565b6102a56117bd565b9060018060a01b03809116600052600560205260406000209116600052602052602060ff604060002054166040519015158152f35b346101bb5760203660031901126101bb57600435600081815260026020526040902054610311906001600160a01b03161515611a71565b600052600660205261034c6103296040600020611973565b600060405161033781611805565b526040519182916020835260208301906118c9565b0390f35b346101bb5760203660031901126101bb57600435600052600b6020526040600020805460018060a01b03600183015416916103cc600282015491600381015460ff600561039f60048501611973565b9301541693604051968796875260208701526040860152606085015260c0608085015260c08401906118c9565b90151560a08301520390f35b346101bb576103e636611923565b90600052600e6020526040600020906000526020526020604060002054604051908152f35b346101bb5760003660031901126101bb57600a546040516001600160a01b039091168152602090f35b346101bb5760203660031901126101bb57600435600052600c6020526020604060002054604051908152f35b346101bb5760003660031901126101bb576010546040516001600160a01b039091168152602090f35b346101bb5760803660031901126101bb576104a26117d3565b6104aa6117bd565b6064359167ffffffffffffffff83116101bb576104ce6104d893369060040161185f565b9160443591611b83565b005b346101bb5760403660031901126101bb576104f36117d3565b60243590811515908183036101bb576001600160a01b031691338314610570576105429033600052600560205260406000208460005260205260406000209060ff801983541691151516179055565b6040519081527f17307eab39ab6107e8899845ad3d59bd9653f200f220920489ca2b5937696c3160203392a3005b60405162461bcd60e51b815260206004820152601960248201527f4552433732313a20617070726f766520746f2063616c6c6572000000000000006044820152606490fd5b346101bb5760003660031901126101bb57604051600060018054906105d982611939565b8085529181811690811561066d5750600114610614575b61034c8461060081860382611821565b6040519182916020835260208301906118c9565b600081815292507fb10e2d527612073b26eecdfd717e6a320cf44b4afac2b0732d9fcbe2b7fa0cf65b828410610655575050508101602001610600826105f0565b8054602085870181019190915290930192810161063d565b60ff191660208087019190915292151560051b8501909201925061060091508390506105f0565b346101bb5760003660031901126101bb576007546040516001600160a01b039091168152602090f35b346101bb5760403660031901126101bb576106d66117bd565b600435600052600d60205260406000209060018060a01b0316600052602052602060ff604060002054166040519015158152f35b346101bb5760003660031901126101bb57602060405160648152f35b346101bb5760203660031901126101bb5761073f6117d3565b610747611a19565b600a80546001600160a01b039283166001600160a01b0319821681179092559091167ff86b5de3fae5d5998dccfd7996efa6f426ba2f69659e888427ffb2ef9135380b600080a3005b346101bb5760003660031901126101bb576107a9611a19565b600780546001600160a01b031981169091556000906001600160a01b03167f8be0079c531659141344cd1fd0a4f28419497f9722a3daafe3b4186f6b6457e08280a3005b346101bb5760203660031901126101bb576108066117d3565b61080e611a19565b601080546001600160a01b0319166001600160a01b0392909216919091179055005b346101bb5760203660031901126101bb576001600160a01b036108516117d3565b1680156108705760005260036020526020604060002054604051908152f35b60405162461bcd60e51b815260206004820152602960248201527f4552433732313a2061646472657373207a65726f206973206e6f7420612076616044820152683634b21037bbb732b960b91b6064820152608490fd5b346101bb5760203660031901126101bb5760206108e5600435611abd565b6040516001600160a01b039091168152f35b346101bb5760c03660031901126101bb5760243567ffffffffffffffff81116101bb5761092890369060040161185f565b60649081359160a43567ffffffffffffffff81116101bb5761094e90369060040161185f565b600260085414610f94576002600855600a5460405163d305485d60e01b81526004803590820152939490600090859060249082906001600160a01b03165afa938415610f8857600094610f63575b5060c084015115610f0f57600435600052600d6020526040600020336000526020526109d060ff604060002054161561201e565b608435916102588301808411610ef9574211610eab57604051602081019060043582523360601b604082015260443594856054830152846074830152609482015260948152610a1e816117e9565b5190207f19457468657265756d205369676e6564204d6573736167653a0a333200000000600052601c52603c6000209081600052600f60205260ff60406000205416610e6857610a71610a7991836124d6565b9190916123bc565b6010546001600160a01b03908116911603610e2457600052600f6020526040600020600160ff19825416179055835191602085015192818113600014610e155790610ac39161259d565b915b81811315610e065790610ad79161259d565b905b620dbba0809111159182610dfb575b505015610d9b575060406001600954019182600955600435600052600c60205281600020610b16815461207e565b9055600435600052600c602052610b3c826000205494610b3685336120d9565b846121cd565b01519160405192610b4c846117e9565b6004358452602084019033825260408501428152606086019084825260808701928352600160a088015285600052600b60205260406000209387518555600185019060018060a01b039051166001600160601b0360a01b8254161790555160028401555160038301555193845167ffffffffffffffff8111610d8557610bd56004840154611939565b95601f8711610d3a575b602096508690601f8311600114610cc357928260059360a093610c349796600092610cb8575b50508160011b916000199060031b1c19161760048501555b0151151591019060ff801983541691151516179055565b600435600052600d835260406000203360005283526040600020600160ff19825416179055600435600052600e835260406000208160005283528160406000205560405190815242838201523390827f6a637cd1359e4eec19d4267c8234482f1071920bc10dde1e5fbf69204c26cdee604060043593a46001600855604051908152f35b015190508a80610c05565b9060048501600052876000209160005b601f1985168110610d2357508360a093610c34979693600193600597601f19811610610d0a575b505050811b016004850155610c1d565b015160001960f88460031b161c191690558a8080610cfa565b919289600181928685015181550194019201610cd3565b600484016000526020600020601f830160051c81019760208410610d7b575b601f0160051c01965b878110610d6f5750610bdf565b60008155600101610d62565b9097508790610d59565b634e487b7160e01b600052604160045260246000fd5b608490723a379030b93a3bb7b935903637b1b0ba34b7b760691b6040519162461bcd60e51b835260206004840152603360248401527f4e4654436c61696d3a2055736572206e6f7420636c6f736520656e6f756768206044840152820152fd5b111590508480610ae8565b610e0f9161259d565b90610ad9565b610e1e9161259d565b91610ac5565b60405162461bcd60e51b815260206004820152601b60248201527f4e4654436c61696d3a20496e76616c6964207369676e6174757265000000000060448201528490fd5b8460405162461bcd60e51b815260206004820152602060248201527f4e4654436c61696d3a205369676e617475726520616c726561647920757365646044820152fd5b60405162461bcd60e51b815260206004820152602160248201527f4e4654436c61696d3a20436c61696d2074696d657374616d7020746f6f206f6c6044820152601960fa1b81860152608490fd5b634e487b7160e01b600052601160045260246000fd5b60405162461bcd60e51b815260206004820152602760248201527f4e4654436c61696d3a204f726967696e616c204e4654206973206e6f7420636c60448201526661696d61626c6560c81b81850152608490fd5b610f819194503d806000833e610f798183611821565b810190611f5e565b928561099c565b6040513d6000823e3d90fd5b5060405162461bcd60e51b815260206004820152601f60248201527f5265656e7472616e637947756172643a207265656e7472616e742063616c6c006044820152fd5b346101bb576104d8610fe8366118ee565b9060405192610ff684611805565b60008452611b83565b346101bb576104d8611010366118ee565b9161102361101e8433611c1e565b611b21565b611ce6565b346101bb576020806003193601126101bb57600435600060a060405161104d816117e9565b828152828582015282604082015282606082015260606080820152015261108981600052600260205260018060a01b0360406000205416151590565b1561114257600052600b81526040600020604051906110a7826117e9565b8054825261113560018060a01b039182600182015416928585019384526002820154604086019081526003830154916060870192835260ff60056110ed60048701611973565b9560808a019687520154169560a088019615158752604051988998818a525190890152511660408701525160608601525160808501525160c060a085015260e08401906118c9565b9051151560c08301520390f35b60405162461bcd60e51b8152600481018390526024808201527f4e4654436c61696d3a20436c61696d20746f6b656e20646f6573206e6f7420656044820152631e1a5cdd60e21b6064820152608490fd5b346101bb5760003660031901126101bb576020600954604051908152f35b346101bb5760403660031901126101bb576111ca6117d3565b602435906001600160a01b0380806111e185611abd565b169216918083146112dc578033149081156112b7575b501561124c57600083815260046020526040902080546001600160a01b0319168317905561122483611abd565b167f8c5be1e5ebec7d5bd14f71427d1e84f3dd0314c0f7b2291e5b200ac8c7c3b925600080a4005b60405162461bcd60e51b815260206004820152603d60248201527f4552433732313a20617070726f76652063616c6c6572206973206e6f7420746f60448201527f6b656e206f776e6572206f7220617070726f76656420666f7220616c6c0000006064820152608490fd5b9050600052600560205260406000203360005260205260ff60406000205416846111f7565b60405162461bcd60e51b815260206004820152602160248201527f4552433732313a20617070726f76616c20746f2063757272656e74206f776e656044820152603960f91b6064820152608490fd5b346101bb5760203660031901126101bb5760206108e5600435611ae3565b346101bb5760003660031901126101bb576040516000805461136a81611939565b8084529060019081811690811561066d57506001146113935761034c8461060081860382611821565b600080805292507f290decd9548b62a8d60345a988386fc84ba6bc95484008f6362f93160ef3e5635b8284106113d4575050508101602001610600826105f0565b805460208587018101919091529093019281016113bc565b346101bb5760603660031901126101bb576114056117bd565b60443567ffffffffffffffff918282116101bb57611429602492369060040161185f565b90611432611a19565b600a5460405163d305485d60e01b81526004803590820152936001600160a01b0392916000918691829086165afa938415610f885760009461171b575b50600435600052600d602052604060002082821660005260205261149b60ff604060002054161561201e565b60406001600954019485600955600435600052600c602052816000206114c1815461207e565b9055600435600052600c6020526114e78260002054956114e188866120d9565b876121cd565b01516040516114f5816117e9565b60043581526020810191848416835260408201428152606083019087825260808401928352600060a085015288600052600b6020526040600020948451865587600187019151166001600160601b0360a01b82541617905551600285015551600384015551968751908111610d85576115716004840154611939565b97601f89116116d0575b602098508890601f831160011461165a57928260059360a0936115ce979660009261164f5750508160011b916000199060031b1c19161760048501550151151591019060ff801983541691151516179055565b600435600052600d8552604060002082821660005285526040600020600160ff19825416179055600435600052600e855260406000208360005285528360406000205560405192835242858401521690827f6a637cd1359e4eec19d4267c8234482f1071920bc10dde1e5fbf69204c26cdee604060043593a4604051908152f35b015190508c80610c05565b9060048501600052896000209160005b601f19851681106116b957508360a0936115ce979693600193600597601f198116106116a057505050811b016004850155610c1d565b015160001960f88460031b161c191690558c8080610cfa565b91928b60018192868501518155019401920161166a565b600484016000526020600020601f830160051c81019960208410611711575b601f0160051c01985b898110611705575061157b565b600081556001016116f8565b90995089906116ef565b6117319194503d806000833e610f798183611821565b928561146f565b346101bb5760203660031901126101bb576004359063ffffffff60e01b82168092036101bb57602091632483248360e11b811490811561177a575b5015158152f35b6380ac58cd60e01b8114915081156117ac575b811561179b575b5083611773565b6301ffc9a760e01b14905083611794565b635b5e139f60e01b8114915061178d565b602435906001600160a01b03821682036101bb57565b600435906001600160a01b03821682036101bb57565b60c0810190811067ffffffffffffffff821117610d8557604052565b6020810190811067ffffffffffffffff821117610d8557604052565b90601f8019910116810190811067ffffffffffffffff821117610d8557604052565b67ffffffffffffffff8111610d8557601f01601f191660200190565b81601f820112156101bb5780359061187682611843565b926118846040519485611821565b828452602083830101116101bb57816000926020809301838601378301015290565b60005b8381106118b95750506000910152565b81810151838201526020016118a9565b906020916118e2815180928185528580860191016118a6565b601f01601f1916010190565b60609060031901126101bb576001600160a01b039060043582811681036101bb579160243590811681036101bb579060443590565b60409060031901126101bb576004359060243590565b90600182811c92168015611969575b602083101461195357565b634e487b7160e01b600052602260045260246000fd5b91607f1691611948565b906040519182600082549261198784611939565b9081845260019485811690816000146119f657506001146119b3575b50506119b192500383611821565b565b9093915060005260209081600020936000915b8183106119de5750506119b1935082010138806119a3565b855488840185015294850194879450918301916119c6565b9150506119b194506020925060ff191682840152151560051b82010138806119a3565b6007546001600160a01b03163303611a2d57565b606460405162461bcd60e51b815260206004820152602060248201527f4f776e61626c653a2063616c6c6572206973206e6f7420746865206f776e65726044820152fd5b15611a7857565b60405162461bcd60e51b815260206004820152601860248201527f4552433732313a20696e76616c696420746f6b656e20494400000000000000006044820152606490fd5b6000908152600260205260409020546001600160a01b0316611ae0811515611a71565b90565b600081815260026020526040902054611b06906001600160a01b03161515611a71565b6000908152600460205260409020546001600160a01b031690565b15611b2857565b60405162461bcd60e51b815260206004820152602d60248201527f4552433732313a2063616c6c6572206973206e6f7420746f6b656e206f776e6560448201526c1c881bdc88185c1c1c9bdd9959609a1b6064820152608490fd5b90611ba7939291611b9761101e8433611c1e565b611ba2838383611ce6565b611df7565b15611bae57565b60405162461bcd60e51b815280611bc760048201611bcb565b0390fd5b60809060208152603260208201527f4552433732313a207472616e7366657220746f206e6f6e20455243373231526560408201527131b2b4bb32b91034b6b83632b6b2b73a32b960711b60608201520190565b906001600160a01b038080611c3284611abd565b16931691838314938415611c65575b508315611c4f575b50505090565b611c5b91929350611ae3565b1614388080611c49565b909350600052600560205260406000208260005260205260ff604060002054169238611c41565b15611c9357565b60405162461bcd60e51b815260206004820152602560248201527f4552433732313a207472616e736665722066726f6d20696e636f72726563742060448201526437bbb732b960d91b6064820152608490fd5b90611d0e91611cf484611abd565b6001600160a01b0393918416928492909183168414611c8c565b16918215611da65781611d2b91611d2486611abd565b1614611c8c565b7fddf252ad1be2c89b69c2b068fc378daa952ba7f163c4a11628f55a4df523b3ef60008481526004602052604081206001600160601b0360a01b9081815416905583825260036020526040822060001981540190558482526040822060018154019055858252600260205284604083209182541617905580a4565b60405162461bcd60e51b8152602060048201526024808201527f4552433732313a207472616e7366657220746f20746865207a65726f206164646044820152637265737360e01b6064820152608490fd5b9293600093909291803b15611f1157948491611e519660405180948193630a85bd0160e11b9788845233600485015260018060a01b0380921660248501526044840152608060648401528260209b8c9760848301906118c9565b0393165af1849181611ecd575b50611ebc575050503d600014611eb4573d611e7881611843565b90611e866040519283611821565b81528091833d92013e5b80519182611eb15760405162461bcd60e51b815280611bc760048201611bcb565b01fd5b506060611e90565b6001600160e01b0319161492509050565b9091508581813d8311611f0a575b611ee58183611821565b81010312611f0657516001600160e01b031981168103611f06579038611e5e565b8480fd5b503d611edb565b505050915050600190565b81601f820112156101bb578051611f3281611843565b92611f406040519485611821565b818452602082840101116101bb57611ae091602080850191016118a6565b906020828203126101bb57815167ffffffffffffffff928382116101bb570160e0818303126101bb576040519260e0840184811082821117610d8557604052815184526020820151602085015260408201518181116101bb5783611fc3918401611f1c565b604085015260608201516001600160a01b03811681036101bb5760608501526080820151608085015260a08201519081116101bb5760c092612006918301611f1c565b60a0840152015180151581036101bb5760c082015290565b1561202557565b60405162461bcd60e51b815260206004820152602b60248201527f4e4654436c61696d3a20557365722068617320616c726561647920636c61696d60448201526a1959081d1a1a5cc813919560aa1b6064820152608490fd5b6000198114610ef95760010190565b1561209457565b60405162461bcd60e51b815260206004820152601c60248201527f4552433732313a20746f6b656e20616c7265616479206d696e746564000000006044820152606490fd5b6001600160a01b031680156121895760008281526002602052604090205461210d906001600160a01b031615155b1561208d565b600082815260026020526040902054612130906001600160a01b03161515612107565b600081815260036020526040812060018154019055828152600260205260408120826001600160601b0360a01b8254161790557fddf252ad1be2c89b69c2b068fc378daa952ba7f163c4a11628f55a4df523b3ef8180a4565b606460405162461bcd60e51b815260206004820152602060248201527f4552433732313a206d696e7420746f20746865207a65726f20616464726573736044820152fd5b6000818152600260205260409020549192916001600160a01b0316156123605760009080825260209160068352604081209085519067ffffffffffffffff821161234c5761221b8354611939565b601f8111612309575b508490601f831160011461228557907ff8e1a15aba9398e019f0b49df1a4fde98ee17ae345cb5f6b5e2c27f5033e8ce796978361227a575b50508160011b916000199060031b1c19161790555b604051908152a1565b01519050388061225c565b9196601f198816848452868420935b8181106122f257509160019391897ff8e1a15aba9398e019f0b49df1a4fde98ee17ae345cb5f6b5e2c27f5033e8ce7999a94106122d9575b505050811b019055612271565b015160001960f88460031b161c191690553880806122cc565b929387600181928786015181550195019301612294565b838252858220601f840160051c810191878510612342575b601f0160051c01905b8181106123375750612224565b82815560010161232a565b9091508190612321565b634e487b7160e01b81526041600452602490fd5b60405162461bcd60e51b815260206004820152602e60248201527f45524337323155524953746f726167653a2055524920736574206f66206e6f6e60448201526d32bc34b9ba32b73a103a37b5b2b760911b6064820152608490fd5b60058110156124c057806123cd5750565b6001810361241a5760405162461bcd60e51b815260206004820152601860248201527f45434453413a20696e76616c6964207369676e617475726500000000000000006044820152606490fd5b600281036124675760405162461bcd60e51b815260206004820152601f60248201527f45434453413a20696e76616c6964207369676e6174757265206c656e677468006044820152606490fd5b60031461247057565b60405162461bcd60e51b815260206004820152602260248201527f45434453413a20696e76616c6964207369676e6174757265202773272076616c604482015261756560f01b6064820152608490fd5b634e487b7160e01b600052602160045260246000fd5b90604181511460001461250457612500916020820151906060604084015193015160001a9061250e565b9091565b5050600090600290565b9291907f7fffffffffffffffffffffffffffffff5d576e7357a4501ddfe92f46681b20a083116125915791608094939160ff602094604051948552168484015260408301526060820152600093849182805260015afa156125845781516001600160a01b0381161561257e579190565b50600190565b50604051903d90823e3d90fd5b50505050600090600390565b81810392916000138015828513169184121617610ef95756fea2646970667358221220b42427c68dc4220c9455d4f00cf1064d1d720602484d38389489f22c96a5baf664736f6c63430008130033","opcodes":"PUSH1 0x80 CALLVALUE PUSH3 0x3C2 JUMPI PUSH1 0x1F SWAP1 PUSH1 0x1F NOT SWAP1 PUSH1 0x1 PUSH1 0x1 PUSH1 0x40 SHL SUB SWAP1 PUSH3 0x29D4 CODESIZE DUP2 SWAP1 SUB DUP6 DUP2 ADD DUP6 AND DUP4 ADD DUP5 DUP2 GT DUP5 DUP3 LT OR PUSH3 0x3AC JUMPI DUP4 SWAP3 DUP3 SWAP2 PUSH1 0x40 MSTORE DUP4 CODECOPY PUSH1 0x20 SWAP3 DUP4 SWAP2 DUP2 ADD SUB SLT PUSH3 0x3C2 JUMPI MLOAD PUSH1 0x1 PUSH1 0x1 PUSH1 0xA0 SHL SUB SWAP5 DUP6 DUP3 AND SWAP4 SWAP2 DUP5 SWAP1 SUB PUSH3 0x3C2 JUMPI PUSH3 0x6A PUSH3 0x3C7 JUMP JUMPDEST SWAP3 PUSH1 0x14 DUP5 MSTORE PUSH32 0x43757272656E7420436C61696D20546F6B656E73000000000000000000000000 DUP2 DUP6 ADD MSTORE PUSH3 0x9E PUSH3 0x3C7 JUMP JUMPDEST SWAP1 PUSH1 0x5 DUP3 MSTORE PUSH5 0x434C41494D PUSH1 0xD8 SHL DUP2 DUP4 ADD MSTORE DUP5 MLOAD SWAP7 DUP5 DUP9 GT PUSH3 0x3AC JUMPI PUSH1 0x0 SWAP8 DUP9 SLOAD SWAP7 PUSH1 0x1 SWAP8 DUP9 DUP2 DUP2 SHR SWAP2 AND DUP1 ISZERO PUSH3 0x3A1 JUMPI JUMPDEST DUP6 DUP3 LT EQ PUSH3 0x38D JUMPI SWAP1 DUP2 DUP8 DUP5 SWAP4 GT PUSH3 0x33A JUMPI JUMPDEST POP DUP5 SWAP1 DUP8 DUP4 GT PUSH1 0x1 EQ PUSH3 0x2D9 JUMPI DUP12 SWAP3 PUSH3 0x2CD JUMPI JUMPDEST POP POP PUSH1 0x0 NOT PUSH1 0x3 DUP4 SWAP1 SHL SHR NOT AND SWAP1 DUP8 SHL OR DUP9 SSTORE JUMPDEST DUP3 MLOAD SWAP5 DUP6 GT PUSH3 0x2B9 JUMPI DUP6 SLOAD DUP7 DUP2 DUP2 SHR SWAP2 AND DUP1 ISZERO PUSH3 0x2AE JUMPI JUMPDEST DUP4 DUP3 LT EQ PUSH3 0x29A JUMPI SWAP1 DUP2 DUP6 DUP8 SWAP7 SWAP6 SWAP5 SWAP4 GT PUSH3 0x241 JUMPI JUMPDEST POP DUP2 SWAP4 DUP6 GT PUSH1 0x1 EQ PUSH3 0x1DC JUMPI POP POP DUP7 SWAP3 PUSH3 0x1D0 JUMPI JUMPDEST POP POP PUSH1 0x0 NOT PUSH1 0x3 DUP4 SWAP1 SHL SHR NOT AND SWAP1 DUP3 SHL OR DUP2 SSTORE JUMPDEST PUSH1 0x7 SLOAD PUSH1 0x1 DUP1 PUSH1 0xA0 SHL SUB NOT SWAP4 CALLER DUP6 DUP4 AND OR PUSH1 0x7 SSTORE PUSH32 0x8BE0079C531659141344CD1FD0A4F28419497F9722A3DAAFE3B4186F6B6457E0 PUSH1 0x40 MLOAD SWAP7 CALLER SWAP4 AND SWAP2 DUP1 LOG3 PUSH1 0x8 SSTORE DUP2 PUSH1 0xA SLOAD AND OR PUSH1 0xA SSTORE CALLER SWAP1 PUSH1 0x10 SLOAD AND OR PUSH1 0x10 SSTORE PUSH2 0x25EC SWAP1 DUP2 PUSH3 0x3E8 DUP3 CODECOPY RETURN JUMPDEST ADD MLOAD SWAP1 POP CODESIZE DUP1 PUSH3 0x15A JUMP JUMPDEST DUP7 SWAP6 SWAP4 SWAP3 SWAP2 SWAP4 AND DUP6 DUP10 MSTORE DUP4 DUP10 KECCAK256 SWAP4 DUP10 SWAP1 JUMPDEST DUP3 DUP3 LT PUSH3 0x227 JUMPI POP POP DUP5 GT PUSH3 0x20D JUMPI JUMPDEST POP POP POP DUP2 SHL ADD DUP2 SSTORE PUSH3 0x16E JUMP JUMPDEST ADD MLOAD PUSH1 0x0 NOT PUSH1 0xF8 DUP5 PUSH1 0x3 SHL AND SHR NOT AND SWAP1 SSTORE CODESIZE DUP1 DUP1 PUSH3 0x1FF JUMP JUMPDEST DUP5 DUP5 ADD MLOAD DUP7 SSTORE DUP9 SWAP8 SWAP1 SWAP6 ADD SWAP5 SWAP4 DUP5 ADD SWAP4 SWAP1 DUP2 ADD SWAP1 PUSH3 0x1ED JUMP JUMPDEST SWAP1 SWAP2 SWAP3 SWAP4 SWAP5 POP DUP7 DUP10 MSTORE DUP3 DUP10 KECCAK256 DUP6 DUP1 DUP9 ADD PUSH1 0x5 SHR DUP3 ADD SWAP3 DUP6 DUP10 LT PUSH3 0x290 JUMPI JUMPDEST SWAP2 DUP9 SWAP8 DUP11 SWAP3 SWAP8 SWAP7 SWAP6 SWAP5 SWAP4 ADD PUSH1 0x5 SHR ADD SWAP2 JUMPDEST DUP3 DUP2 LT PUSH3 0x281 JUMPI POP POP PUSH3 0x143 JUMP JUMPDEST DUP12 DUP2 SSTORE DUP9 SWAP8 POP DUP10 SWAP2 ADD PUSH3 0x271 JUMP JUMPDEST SWAP3 POP DUP2 SWAP3 PUSH3 0x260 JUMP JUMPDEST PUSH4 0x4E487B71 PUSH1 0xE0 SHL DUP10 MSTORE PUSH1 0x22 PUSH1 0x4 MSTORE PUSH1 0x24 DUP10 REVERT JUMPDEST SWAP1 PUSH1 0x7F AND SWAP1 PUSH3 0x12B JUMP JUMPDEST PUSH4 0x4E487B71 PUSH1 0xE0 SHL DUP9 MSTORE PUSH1 0x41 PUSH1 0x4 MSTORE PUSH1 0x24 DUP9 REVERT JUMPDEST ADD MLOAD SWAP1 POP CODESIZE DUP1 PUSH3 0xFD JUMP JUMPDEST SWAP1 DUP5 DUP11 SWAP5 AND SWAP2 DUP13 DUP1 MSTORE DUP7 DUP14 KECCAK256 SWAP3 DUP14 JUMPDEST DUP9 DUP3 DUP3 LT PUSH3 0x323 JUMPI POP POP DUP5 GT PUSH3 0x309 JUMPI JUMPDEST POP POP POP DUP2 SHL ADD DUP9 SSTORE PUSH3 0x111 JUMP JUMPDEST ADD MLOAD PUSH1 0x0 NOT PUSH1 0xF8 DUP5 PUSH1 0x3 SHL AND SHR NOT AND SWAP1 SSTORE CODESIZE DUP1 DUP1 PUSH3 0x2FB JUMP JUMPDEST DUP4 DUP6 ADD MLOAD DUP7 SSTORE DUP14 SWAP8 SWAP1 SWAP6 ADD SWAP5 SWAP4 DUP5 ADD SWAP4 ADD PUSH3 0x2E8 JUMP JUMPDEST SWAP1 SWAP2 POP DUP11 DUP1 MSTORE DUP5 DUP12 KECCAK256 DUP8 DUP1 DUP6 ADD PUSH1 0x5 SHR DUP3 ADD SWAP3 DUP8 DUP7 LT PUSH3 0x383 JUMPI JUMPDEST SWAP2 DUP12 SWAP2 DUP7 SWAP6 SWAP5 SWAP4 ADD PUSH1 0x5 SHR ADD SWAP2 JUMPDEST DUP3 DUP2 LT PUSH3 0x374 JUMPI POP POP PUSH3 0xE7 JUMP JUMPDEST DUP14 DUP2 SSTORE DUP6 SWAP5 POP DUP12 SWAP2 ADD PUSH3 0x364 JUMP JUMPDEST SWAP3 POP DUP2 SWAP3 PUSH3 0x356 JUMP JUMPDEST PUSH4 0x4E487B71 PUSH1 0xE0 SHL DUP12 MSTORE PUSH1 0x22 PUSH1 0x4 MSTORE PUSH1 0x24 DUP12 REVERT JUMPDEST SWAP1 PUSH1 0x7F AND SWAP1 PUSH3 0xD2 JUMP JUMPDEST PUSH4 0x4E487B71 PUSH1 0xE0 SHL PUSH1 0x0 MSTORE PUSH1 0x41 PUSH1 0x4 MSTORE PUSH1 0x24 PUSH1 0x0 REVERT JUMPDEST PUSH1 0x0 DUP1 REVERT JUMPDEST PUSH1 0x40 DUP1 MLOAD SWAP2 SWAP1 DUP3 ADD PUSH1 0x1 PUSH1 0x1 PUSH1 0x40 SHL SUB DUP2 GT DUP4 DUP3 LT OR PUSH3 0x3AC JUMPI PUSH1 0x40 MSTORE JUMP INVALID PUSH1 0x80 DUP1 PUSH1 0x40 MSTORE PUSH1 0x4 CALLDATASIZE LT ISZERO PUSH2 0x13 JUMPI PUSH1 0x0 DUP1 REVERT JUMPDEST PUSH1 0x0 CALLDATALOAD PUSH1 0xE0 SHR SWAP1 DUP2 PUSH4 0x1FFC9A7 EQ PUSH2 0x1738 JUMPI POP DUP1 PUSH4 0x5289552 EQ PUSH2 0x13EC JUMPI DUP1 PUSH4 0x6FDDE03 EQ PUSH2 0x1349 JUMPI DUP1 PUSH4 0x7C7A72D EQ PUSH2 0x6BD JUMPI DUP1 PUSH4 0x81812FC EQ PUSH2 0x132B JUMPI DUP1 PUSH4 0x95EA7B3 EQ PUSH2 0x11B1 JUMPI DUP1 PUSH4 0x18160DDD EQ PUSH2 0x1193 JUMPI DUP1 PUSH4 0x1AFCE6E9 EQ PUSH2 0x1028 JUMPI DUP1 PUSH4 0x23B872DD EQ PUSH2 0xFFF JUMPI DUP1 PUSH4 0x39D40EC4 EQ PUSH2 0x3D8 JUMPI DUP1 PUSH4 0x42842E0E EQ PUSH2 0xFD7 JUMPI DUP1 PUSH4 0x4E0A9927 EQ PUSH2 0x8F7 JUMPI DUP1 PUSH4 0x54903F46 EQ PUSH2 0x434 JUMPI DUP1 PUSH4 0x6352211E EQ PUSH2 0x8C7 JUMPI DUP1 PUSH4 0x70A08231 EQ PUSH2 0x830 JUMPI DUP1 PUSH4 0x71364B8B EQ PUSH2 0x7ED JUMPI DUP1 PUSH4 0x715018A6 EQ PUSH2 0x790 JUMPI DUP1 PUSH4 0x77C7794F EQ PUSH2 0x726 JUMPI DUP1 PUSH4 0x7FDE3761 EQ PUSH2 0x70A JUMPI DUP1 PUSH4 0x873F6F9E EQ PUSH2 0x6BD JUMPI DUP1 PUSH4 0x8DA5CB5B EQ PUSH2 0x694 JUMPI DUP1 PUSH4 0x95D89B41 EQ PUSH2 0x5B5 JUMPI DUP1 PUSH4 0xA22CB465 EQ PUSH2 0x4DA JUMPI DUP1 PUSH4 0xB88D4FDE EQ PUSH2 0x489 JUMPI DUP1 PUSH4 0xBA92C799 EQ PUSH2 0x460 JUMPI DUP1 PUSH4 0xBBC538FB EQ PUSH2 0x434 JUMPI DUP1 PUSH4 0xC29BB1DC EQ PUSH2 0x40B JUMPI DUP1 PUSH4 0xC4A9C1F0 EQ PUSH2 0x3D8 JUMPI DUP1 PUSH4 0xC6F0308C EQ PUSH2 0x350 JUMPI DUP1 PUSH4 0xC87B56DD EQ PUSH2 0x2DA JUMPI DUP1 PUSH4 0xE985E9C5 EQ PUSH2 0x284 JUMPI DUP1 PUSH4 0xF2FDE38B EQ PUSH2 0x1C0 JUMPI PUSH4 0xF978FD61 EQ PUSH2 0x18A JUMPI PUSH1 0x0 DUP1 REVERT JUMPDEST CALLVALUE PUSH2 0x1BB JUMPI PUSH1 0x20 CALLDATASIZE PUSH1 0x3 NOT ADD SLT PUSH2 0x1BB JUMPI PUSH1 0x4 CALLDATALOAD PUSH1 0x0 MSTORE PUSH1 0xF PUSH1 0x20 MSTORE PUSH1 0x20 PUSH1 0xFF PUSH1 0x40 PUSH1 0x0 KECCAK256 SLOAD AND PUSH1 0x40 MLOAD SWAP1 ISZERO ISZERO DUP2 MSTORE RETURN JUMPDEST PUSH1 0x0 DUP1 REVERT JUMPDEST CALLVALUE PUSH2 0x1BB JUMPI PUSH1 0x20 CALLDATASIZE PUSH1 0x3 NOT ADD SLT PUSH2 0x1BB JUMPI PUSH2 0x1D9 PUSH2 0x17D3 JUMP JUMPDEST PUSH2 0x1E1 PUSH2 0x1A19 JUMP JUMPDEST PUSH1 0x1 PUSH1 0x1 PUSH1 0xA0 SHL SUB SWAP1 DUP2 AND SWAP1 DUP2 ISZERO PUSH2 0x230 JUMPI PUSH1 0x7 SLOAD DUP3 PUSH1 0x1 PUSH1 0x1 PUSH1 0x60 SHL SUB PUSH1 0xA0 SHL DUP3 AND OR PUSH1 0x7 SSTORE AND PUSH32 0x8BE0079C531659141344CD1FD0A4F28419497F9722A3DAAFE3B4186F6B6457E0 PUSH1 0x0 DUP1 LOG3 STOP JUMPDEST PUSH1 0x40 MLOAD PUSH3 0x461BCD PUSH1 0xE5 SHL DUP2 MSTORE PUSH1 0x20 PUSH1 0x4 DUP3 ADD MSTORE PUSH1 0x26 PUSH1 0x24 DUP3 ADD MSTORE PUSH32 0x4F776E61626C653A206E6577206F776E657220697320746865207A65726F2061 PUSH1 0x44 DUP3 ADD MSTORE PUSH6 0x646472657373 PUSH1 0xD0 SHL PUSH1 0x64 DUP3 ADD MSTORE PUSH1 0x84 SWAP1 REVERT JUMPDEST CALLVALUE PUSH2 0x1BB JUMPI PUSH1 0x40 CALLDATASIZE PUSH1 0x3 NOT ADD SLT PUSH2 0x1BB JUMPI PUSH2 0x29D PUSH2 0x17D3 JUMP JUMPDEST PUSH2 0x2A5 PUSH2 0x17BD JUMP JUMPDEST SWAP1 PUSH1 0x1 DUP1 PUSH1 0xA0 SHL SUB DUP1 SWAP2 AND PUSH1 0x0 MSTORE PUSH1 0x5 PUSH1 0x20 MSTORE PUSH1 0x40 PUSH1 0x0 KECCAK256 SWAP2 AND PUSH1 0x0 MSTORE PUSH1 0x20 MSTORE PUSH1 0x20 PUSH1 0xFF PUSH1 0x40 PUSH1 0x0 KECCAK256 SLOAD AND PUSH1 0x40 MLOAD SWAP1 ISZERO ISZERO DUP2 MSTORE RETURN JUMPDEST CALLVALUE PUSH2 0x1BB JUMPI PUSH1 0x20 CALLDATASIZE PUSH1 0x3 NOT ADD SLT PUSH2 0x1BB JUMPI PUSH1 0x4 CALLDATALOAD PUSH1 0x0 DUP2 DUP2 MSTORE PUSH1 0x2 PUSH1 0x20 MSTORE PUSH1 0x40 SWAP1 KECCAK256 SLOAD PUSH2 0x311 SWAP1 PUSH1 0x1 PUSH1 0x1 PUSH1 0xA0 SHL SUB AND ISZERO ISZERO PUSH2 0x1A71 JUMP JUMPDEST PUSH1 0x0 MSTORE PUSH1 0x6 PUSH1 0x20 MSTORE PUSH2 0x34C PUSH2 0x329 PUSH1 0x40 PUSH1 0x0 KECCAK256 PUSH2 0x1973 JUMP JUMPDEST PUSH1 0x0 PUSH1 0x40 MLOAD PUSH2 0x337 DUP2 PUSH2 0x1805 JUMP JUMPDEST MSTORE PUSH1 0x40 MLOAD SWAP2 DUP3 SWAP2 PUSH1 0x20 DUP4 MSTORE PUSH1 0x20 DUP4 ADD SWAP1 PUSH2 0x18C9 JUMP JUMPDEST SUB SWAP1 RETURN JUMPDEST CALLVALUE PUSH2 0x1BB JUMPI PUSH1 0x20 CALLDATASIZE PUSH1 0x3 NOT ADD SLT PUSH2 0x1BB JUMPI PUSH1 0x4 CALLDATALOAD PUSH1 0x0 MSTORE PUSH1 0xB PUSH1 0x20 MSTORE PUSH1 0x40 PUSH1 0x0 KECCAK256 DUP1 SLOAD PUSH1 0x1 DUP1 PUSH1 0xA0 SHL SUB PUSH1 0x1 DUP4 ADD SLOAD AND SWAP2 PUSH2 0x3CC PUSH1 0x2 DUP3 ADD SLOAD SWAP2 PUSH1 0x3 DUP2 ADD SLOAD PUSH1 0xFF PUSH1 0x5 PUSH2 0x39F PUSH1 0x4 DUP6 ADD PUSH2 0x1973 JUMP JUMPDEST SWAP4 ADD SLOAD AND SWAP4 PUSH1 0x40 MLOAD SWAP7 DUP8 SWAP7 DUP8 MSTORE PUSH1 0x20 DUP8 ADD MSTORE PUSH1 0x40 DUP7 ADD MSTORE PUSH1 0x60 DUP6 ADD MSTORE PUSH1 0xC0 PUSH1 0x80 DUP6 ADD MSTORE PUSH1 0xC0 DUP5 ADD SWAP1 PUSH2 0x18C9 JUMP JUMPDEST SWAP1 ISZERO ISZERO PUSH1 0xA0 DUP4 ADD MSTORE SUB SWAP1 RETURN JUMPDEST CALLVALUE PUSH2 0x1BB JUMPI PUSH2 0x3E6 CALLDATASIZE PUSH2 0x1923 JUMP JUMPDEST SWAP1 PUSH1 0x0 MSTORE PUSH1 0xE PUSH1 0x20 MSTORE PUSH1 0x40 PUSH1 0x0 KECCAK256 SWAP1 PUSH1 0x0 MSTORE PUSH1 0x20 MSTORE PUSH1 0x20 PUSH1 0x40 PUSH1 0x0 KECCAK256 SLOAD PUSH1 0x40 MLOAD SWAP1 DUP2 MSTORE RETURN JUMPDEST CALLVALUE PUSH2 0x1BB JUMPI PUSH1 0x0 CALLDATASIZE PUSH1 0x3 NOT ADD SLT PUSH2 0x1BB JUMPI PUSH1 0xA SLOAD PUSH1 0x40 MLOAD PUSH1 0x1 PUSH1 0x1 PUSH1 0xA0 SHL SUB SWAP1 SWAP2 AND DUP2 MSTORE PUSH1 0x20 SWAP1 RETURN JUMPDEST CALLVALUE PUSH2 0x1BB JUMPI PUSH1 0x20 CALLDATASIZE PUSH1 0x3 NOT ADD SLT PUSH2 0x1BB JUMPI PUSH1 0x4 CALLDATALOAD PUSH1 0x0 MSTORE PUSH1 0xC PUSH1 0x20 MSTORE PUSH1 0x20 PUSH1 0x40 PUSH1 0x0 KECCAK256 SLOAD PUSH1 0x40 MLOAD SWAP1 DUP2 MSTORE RETURN JUMPDEST CALLVALUE PUSH2 0x1BB JUMPI PUSH1 0x0 CALLDATASIZE PUSH1 0x3 NOT ADD SLT PUSH2 0x1BB JUMPI PUSH1 0x10 SLOAD PUSH1 0x40 MLOAD PUSH1 0x1 PUSH1 0x1 PUSH1 0xA0 SHL SUB SWAP1 SWAP2 AND DUP2 MSTORE PUSH1 0x20 SWAP1 RETURN JUMPDEST CALLVALUE PUSH2 0x1BB JUMPI PUSH1 0x80 CALLDATASIZE PUSH1 0x3 NOT ADD SLT PUSH2 0x1BB JUMPI PUSH2 0x4A2 PUSH2 0x17D3 JUMP JUMPDEST PUSH2 0x4AA PUSH2 0x17BD JUMP JUMPDEST PUSH1 0x64 CALLDATALOAD SWAP2 PUSH8 0xFFFFFFFFFFFFFFFF DUP4 GT PUSH2 0x1BB JUMPI PUSH2 0x4CE PUSH2 0x4D8 SWAP4 CALLDATASIZE SWAP1 PUSH1 0x4 ADD PUSH2 0x185F JUMP JUMPDEST SWAP2 PUSH1 0x44 CALLDATALOAD SWAP2 PUSH2 0x1B83 JUMP JUMPDEST STOP JUMPDEST CALLVALUE PUSH2 0x1BB JUMPI PUSH1 0x40 CALLDATASIZE PUSH1 0x3 NOT ADD SLT PUSH2 0x1BB JUMPI PUSH2 0x4F3 PUSH2 0x17D3 JUMP JUMPDEST PUSH1 0x24 CALLDATALOAD SWAP1 DUP2 ISZERO ISZERO SWAP1 DUP2 DUP4 SUB PUSH2 0x1BB JUMPI PUSH1 0x1 PUSH1 0x1 PUSH1 0xA0 SHL SUB AND SWAP2 CALLER DUP4 EQ PUSH2 0x570 JUMPI PUSH2 0x542 SWAP1 CALLER PUSH1 0x0 MSTORE PUSH1 0x5 PUSH1 0x20 MSTORE PUSH1 0x40 PUSH1 0x0 KECCAK256 DUP5 PUSH1 0x0 MSTORE PUSH1 0x20 MSTORE PUSH1 0x40 PUSH1 0x0 KECCAK256 SWAP1 PUSH1 0xFF DUP1 NOT DUP4 SLOAD AND SWAP2 ISZERO ISZERO AND OR SWAP1 SSTORE JUMP JUMPDEST PUSH1 0x40 MLOAD SWAP1 DUP2 MSTORE PUSH32 0x17307EAB39AB6107E8899845AD3D59BD9653F200F220920489CA2B5937696C31 PUSH1 0x20 CALLER SWAP3 LOG3 STOP JUMPDEST PUSH1 0x40 MLOAD PUSH3 0x461BCD PUSH1 0xE5 SHL DUP2 MSTORE PUSH1 0x20 PUSH1 0x4 DUP3 ADD MSTORE PUSH1 0x19 PUSH1 0x24 DUP3 ADD MSTORE PUSH32 0x4552433732313A20617070726F766520746F2063616C6C657200000000000000 PUSH1 0x44 DUP3 ADD MSTORE PUSH1 0x64 SWAP1 REVERT JUMPDEST CALLVALUE PUSH2 0x1BB JUMPI PUSH1 0x0 CALLDATASIZE PUSH1 0x3 NOT ADD SLT PUSH2 0x1BB JUMPI PUSH1 0x40 MLOAD PUSH1 0x0 PUSH1 0x1 DUP1 SLOAD SWAP1 PUSH2 0x5D9 DUP3 PUSH2 0x1939 JUMP JUMPDEST DUP1 DUP6 MSTORE SWAP2 DUP2 DUP2 AND SWAP1 DUP2 ISZERO PUSH2 0x66D JUMPI POP PUSH1 0x1 EQ PUSH2 0x614 JUMPI JUMPDEST PUSH2 0x34C DUP5 PUSH2 0x600 DUP2 DUP7 SUB DUP3 PUSH2 0x1821 JUMP JUMPDEST PUSH1 0x40 MLOAD SWAP2 DUP3 SWAP2 PUSH1 0x20 DUP4 MSTORE PUSH1 0x20 DUP4 ADD SWAP1 PUSH2 0x18C9 JUMP JUMPDEST PUSH1 0x0 DUP2 DUP2 MSTORE SWAP3 POP PUSH32 0xB10E2D527612073B26EECDFD717E6A320CF44B4AFAC2B0732D9FCBE2B7FA0CF6 JUMPDEST DUP3 DUP5 LT PUSH2 0x655 JUMPI POP POP POP DUP2 ADD PUSH1 0x20 ADD PUSH2 0x600 DUP3 PUSH2 0x5F0 JUMP JUMPDEST DUP1 SLOAD PUSH1 0x20 DUP6 DUP8 ADD DUP2 ADD SWAP2 SWAP1 SWAP2 MSTORE SWAP1 SWAP4 ADD SWAP3 DUP2 ADD PUSH2 0x63D JUMP JUMPDEST PUSH1 0xFF NOT AND PUSH1 0x20 DUP1 DUP8 ADD SWAP2 SWAP1 SWAP2 MSTORE SWAP3 ISZERO ISZERO PUSH1 0x5 SHL DUP6 ADD SWAP1 SWAP3 ADD SWAP3 POP PUSH2 0x600 SWAP2 POP DUP4 SWAP1 POP PUSH2 0x5F0 JUMP JUMPDEST CALLVALUE PUSH2 0x1BB JUMPI PUSH1 0x0 CALLDATASIZE PUSH1 0x3 NOT ADD SLT PUSH2 0x1BB JUMPI PUSH1 0x7 SLOAD PUSH1 0x40 MLOAD PUSH1 0x1 PUSH1 0x1 PUSH1 0xA0 SHL SUB SWAP1 SWAP2 AND DUP2 MSTORE PUSH1 0x20 SWAP1 RETURN JUMPDEST CALLVALUE PUSH2 0x1BB JUMPI PUSH1 0x40 CALLDATASIZE PUSH1 0x3 NOT ADD SLT PUSH2 0x1BB JUMPI PUSH2 0x6D6 PUSH2 0x17BD JUMP JUMPDEST PUSH1 0x4 CALLDATALOAD PUSH1 0x0 MSTORE PUSH1 0xD PUSH1 0x20 MSTORE PUSH1 0x40 PUSH1 0x0 KECCAK256 SWAP1 PUSH1 0x1 DUP1 PUSH1 0xA0 SHL SUB AND PUSH1 0x0 MSTORE PUSH1 0x20 MSTORE PUSH1 0x20 PUSH1 0xFF PUSH1 0x40 PUSH1 0x0 KECCAK256 SLOAD AND PUSH1 0x40 MLOAD SWAP1 ISZERO ISZERO DUP2 MSTORE RETURN JUMPDEST CALLVALUE PUSH2 0x1BB JUMPI PUSH1 0x0 CALLDATASIZE PUSH1 0x3 NOT ADD SLT PUSH2 0x1BB JUMPI PUSH1 0x20 PUSH1 0x40 MLOAD PUSH1 0x64 DUP2 MSTORE RETURN JUMPDEST CALLVALUE PUSH2 0x1BB JUMPI PUSH1 0x20 CALLDATASIZE PUSH1 0x3 NOT ADD SLT PUSH2 0x1BB JUMPI PUSH2 0x73F PUSH2 0x17D3 JUMP JUMPDEST PUSH2 0x747 PUSH2 0x1A19 JUMP JUMPDEST PUSH1 0xA DUP1 SLOAD PUSH1 0x1 PUSH1 0x1 PUSH1 0xA0 SHL SUB SWAP3 DUP4 AND PUSH1 0x1 PUSH1 0x1 PUSH1 0xA0 SHL SUB NOT DUP3 AND DUP2 OR SWAP1 SWAP3 SSTORE SWAP1 SWAP2 AND PUSH32 0xF86B5DE3FAE5D5998DCCFD7996EFA6F426BA2F69659E888427FFB2EF9135380B PUSH1 0x0 DUP1 LOG3 STOP JUMPDEST CALLVALUE PUSH2 0x1BB JUMPI PUSH1 0x0 CALLDATASIZE PUSH1 0x3 NOT ADD SLT PUSH2 0x1BB JUMPI PUSH2 0x7A9 PUSH2 0x1A19 JUMP JUMPDEST PUSH1 0x7 DUP1 SLOAD PUSH1 0x1 PUSH1 0x1 PUSH1 0xA0 SHL SUB NOT DUP2 AND SWAP1 SWAP2 SSTORE PUSH1 0x0 SWAP1 PUSH1 0x1 PUSH1 0x1 PUSH1 0xA0 SHL SUB AND PUSH32 0x8BE0079C531659141344CD1FD0A4F28419497F9722A3DAAFE3B4186F6B6457E0 DUP3 DUP1 LOG3 STOP JUMPDEST CALLVALUE PUSH2 0x1BB JUMPI PUSH1 0x20 CALLDATASIZE PUSH1 0x3 NOT ADD SLT PUSH2 0x1BB JUMPI PUSH2 0x806 PUSH2 0x17D3 JUMP JUMPDEST PUSH2 0x80E PUSH2 0x1A19 JUMP JUMPDEST PUSH1 0x10 DUP1 SLOAD PUSH1 0x1 PUSH1 0x1 PUSH1 0xA0 SHL SUB NOT AND PUSH1 0x1 PUSH1 0x1 PUSH1 0xA0 SHL SUB SWAP3 SWAP1 SWAP3 AND SWAP2 SWAP1 SWAP2 OR SWAP1 SSTORE STOP JUMPDEST CALLVALUE PUSH2 0x1BB JUMPI PUSH1 0x20 CALLDATASIZE PUSH1 0x3 NOT ADD SLT PUSH2 0x1BB JUMPI PUSH1 0x1 PUSH1 0x1 PUSH1 0xA0 SHL SUB PUSH2 0x851 PUSH2 0x17D3 JUMP JUMPDEST AND DUP1 ISZERO PUSH2 0x870 JUMPI PUSH1 0x0 MSTORE PUSH1 0x3 PUSH1 0x20 MSTORE PUSH1 0x20 PUSH1 0x40 PUSH1 0x0 KECCAK256 SLOAD PUSH1 0x40 MLOAD SWAP1 DUP2 MSTORE RETURN JUMPDEST PUSH1 0x40 MLOAD PUSH3 0x461BCD PUSH1 0xE5 SHL DUP2 MSTORE PUSH1 0x20 PUSH1 0x4 DUP3 ADD MSTORE PUSH1 0x29 PUSH1 0x24 DUP3 ADD MSTORE PUSH32 0x4552433732313A2061646472657373207A65726F206973206E6F742061207661 PUSH1 0x44 DUP3 ADD MSTORE PUSH9 0x3634B21037BBB732B9 PUSH1 0xB9 SHL PUSH1 0x64 DUP3 ADD MSTORE PUSH1 0x84 SWAP1 REVERT JUMPDEST CALLVALUE PUSH2 0x1BB JUMPI PUSH1 0x20 CALLDATASIZE PUSH1 0x3 NOT ADD SLT PUSH2 0x1BB JUMPI PUSH1 0x20 PUSH2 0x8E5 PUSH1 0x4 CALLDATALOAD PUSH2 0x1ABD JUMP JUMPDEST PUSH1 0x40 MLOAD PUSH1 0x1 PUSH1 0x1 PUSH1 0xA0 SHL SUB SWAP1 SWAP2 AND DUP2 MSTORE RETURN JUMPDEST CALLVALUE PUSH2 0x1BB JUMPI PUSH1 0xC0 CALLDATASIZE PUSH1 0x3 NOT ADD SLT PUSH2 0x1BB JUMPI PUSH1 0x24 CALLDATALOAD PUSH8 0xFFFFFFFFFFFFFFFF DUP2 GT PUSH2 0x1BB JUMPI PUSH2 0x928 SWAP1 CALLDATASIZE SWAP1 PUSH1 0x4 ADD PUSH2 0x185F JUMP JUMPDEST PUSH1 0x64 SWAP1 DUP2 CALLDATALOAD SWAP2 PUSH1 0xA4 CALLDATALOAD PUSH8 0xFFFFFFFFFFFFFFFF DUP2 GT PUSH2 0x1BB JUMPI PUSH2 0x94E SWAP1 CALLDATASIZE SWAP1 PUSH1 0x4 ADD PUSH2 0x185F JUMP JUMPDEST PUSH1 0x2 PUSH1 0x8 SLOAD EQ PUSH2 0xF94 JUMPI PUSH1 0x2 PUSH1 0x8 SSTORE PUSH1 0xA SLOAD PUSH1 0x40 MLOAD PUSH4 0xD305485D PUSH1 0xE0 SHL DUP2 MSTORE PUSH1 0x4 DUP1 CALLDATALOAD SWAP1 DUP3 ADD MSTORE SWAP4 SWAP5 SWAP1 PUSH1 0x0 SWAP1 DUP6 SWAP1 PUSH1 0x24 SWAP1 DUP3 SWAP1 PUSH1 0x1 PUSH1 0x1 PUSH1 0xA0 SHL SUB AND GAS STATICCALL SWAP4 DUP5 ISZERO PUSH2 0xF88 JUMPI PUSH1 0x0 SWAP5 PUSH2 0xF63 JUMPI JUMPDEST POP PUSH1 0xC0 DUP5 ADD MLOAD ISZERO PUSH2 0xF0F JUMPI PUSH1 0x4 CALLDATALOAD PUSH1 0x0 MSTORE PUSH1 0xD PUSH1 0x20 MSTORE PUSH1 0x40 PUSH1 0x0 KECCAK256 CALLER PUSH1 0x0 MSTORE PUSH1 0x20 MSTORE PUSH2 0x9D0 PUSH1 0xFF PUSH1 0x40 PUSH1 0x0 KECCAK256 SLOAD AND ISZERO PUSH2 0x201E JUMP JUMPDEST PUSH1 0x84 CALLDATALOAD SWAP2 PUSH2 0x258 DUP4 ADD DUP1 DUP5 GT PUSH2 0xEF9 JUMPI TIMESTAMP GT PUSH2 0xEAB JUMPI PUSH1 0x40 MLOAD PUSH1 0x20 DUP2 ADD SWAP1 PUSH1 0x4 CALLDATALOAD DUP3 MSTORE CALLER PUSH1 0x60 SHL PUSH1 0x40 DUP3 ADD MSTORE PUSH1 0x44 CALLDATALOAD SWAP5 DUP6 PUSH1 0x54 DUP4 ADD MSTORE DUP5 PUSH1 0x74 DUP4 ADD MSTORE PUSH1 0x94 DUP3 ADD MSTORE PUSH1 0x94 DUP2 MSTORE PUSH2 0xA1E DUP2 PUSH2 0x17E9 JUMP JUMPDEST MLOAD SWAP1 KECCAK256 PUSH32 0x19457468657265756D205369676E6564204D6573736167653A0A333200000000 PUSH1 0x0 MSTORE PUSH1 0x1C MSTORE PUSH1 0x3C PUSH1 0x0 KECCAK256 SWAP1 DUP2 PUSH1 0x0 MSTORE PUSH1 0xF PUSH1 0x20 MSTORE PUSH1 0xFF PUSH1 0x40 PUSH1 0x0 KECCAK256 SLOAD AND PUSH2 0xE68 JUMPI PUSH2 0xA71 PUSH2 0xA79 SWAP2 DUP4 PUSH2 0x24D6 JUMP JUMPDEST SWAP2 SWAP1 SWAP2 PUSH2 0x23BC JUMP JUMPDEST PUSH1 0x10 SLOAD PUSH1 0x1 PUSH1 0x1 PUSH1 0xA0 SHL SUB SWAP1 DUP2 AND SWAP2 AND SUB PUSH2 0xE24 JUMPI PUSH1 0x0 MSTORE PUSH1 0xF PUSH1 0x20 MSTORE PUSH1 0x40 PUSH1 0x0 KECCAK256 PUSH1 0x1 PUSH1 0xFF NOT DUP3 SLOAD AND OR SWAP1 SSTORE DUP4 MLOAD SWAP2 PUSH1 0x20 DUP6 ADD MLOAD SWAP3 DUP2 DUP2 SGT PUSH1 0x0 EQ PUSH2 0xE15 JUMPI SWAP1 PUSH2 0xAC3 SWAP2 PUSH2 0x259D JUMP JUMPDEST SWAP2 JUMPDEST DUP2 DUP2 SGT ISZERO PUSH2 0xE06 JUMPI SWAP1 PUSH2 0xAD7 SWAP2 PUSH2 0x259D JUMP JUMPDEST SWAP1 JUMPDEST PUSH3 0xDBBA0 DUP1 SWAP2 GT ISZERO SWAP2 DUP3 PUSH2 0xDFB JUMPI JUMPDEST POP POP ISZERO PUSH2 0xD9B JUMPI POP PUSH1 0x40 PUSH1 0x1 PUSH1 0x9 SLOAD ADD SWAP2 DUP3 PUSH1 0x9 SSTORE PUSH1 0x4 CALLDATALOAD PUSH1 0x0 MSTORE PUSH1 0xC PUSH1 0x20 MSTORE DUP2 PUSH1 0x0 KECCAK256 PUSH2 0xB16 DUP2 SLOAD PUSH2 0x207E JUMP JUMPDEST SWAP1 SSTORE PUSH1 0x4 CALLDATALOAD PUSH1 0x0 MSTORE PUSH1 0xC PUSH1 0x20 MSTORE PUSH2 0xB3C DUP3 PUSH1 0x0 KECCAK256 SLOAD SWAP5 PUSH2 0xB36 DUP6 CALLER PUSH2 0x20D9 JUMP JUMPDEST DUP5 PUSH2 0x21CD JUMP JUMPDEST ADD MLOAD SWAP2 PUSH1 0x40 MLOAD SWAP3 PUSH2 0xB4C DUP5 PUSH2 0x17E9 JUMP JUMPDEST PUSH1 0x4 CALLDATALOAD DUP5 MSTORE PUSH1 0x20 DUP5 ADD SWAP1 CALLER DUP3 MSTORE PUSH1 0x40 DUP6 ADD TIMESTAMP DUP2 MSTORE PUSH1 0x60 DUP7 ADD SWAP1 DUP5 DUP3 MSTORE PUSH1 0x80 DUP8 ADD SWAP3 DUP4 MSTORE PUSH1 0x1 PUSH1 0xA0 DUP9 ADD MSTORE DUP6 PUSH1 0x0 MSTORE PUSH1 0xB PUSH1 0x20 MSTORE PUSH1 0x40 PUSH1 0x0 KECCAK256 SWAP4 DUP8 MLOAD DUP6 SSTORE PUSH1 0x1 DUP6 ADD SWAP1 PUSH1 0x1 DUP1 PUSH1 0xA0 SHL SUB SWAP1 MLOAD AND PUSH1 0x1 PUSH1 0x1 PUSH1 0x60 SHL SUB PUSH1 0xA0 SHL DUP3 SLOAD AND OR SWAP1 SSTORE MLOAD PUSH1 0x2 DUP5 ADD SSTORE MLOAD PUSH1 0x3 DUP4 ADD SSTORE MLOAD SWAP4 DUP5 MLOAD PUSH8 0xFFFFFFFFFFFFFFFF DUP2 GT PUSH2 0xD85 JUMPI PUSH2 0xBD5 PUSH1 0x4 DUP5 ADD SLOAD PUSH2 0x1939 JUMP JUMPDEST SWAP6 PUSH1 0x1F DUP8 GT PUSH2 0xD3A JUMPI JUMPDEST PUSH1 0x20 SWAP7 POP DUP7 SWAP1 PUSH1 0x1F DUP4 GT PUSH1 0x1 EQ PUSH2 0xCC3 JUMPI SWAP3 DUP3 PUSH1 0x5 SWAP4 PUSH1 0xA0 SWAP4 PUSH2 0xC34 SWAP8 SWAP7 PUSH1 0x0 SWAP3 PUSH2 0xCB8 JUMPI JUMPDEST POP POP DUP2 PUSH1 0x1 SHL SWAP2 PUSH1 0x0 NOT SWAP1 PUSH1 0x3 SHL SHR NOT AND OR PUSH1 0x4 DUP6 ADD SSTORE JUMPDEST ADD MLOAD ISZERO ISZERO SWAP2 ADD SWAP1 PUSH1 0xFF DUP1 NOT DUP4 SLOAD AND SWAP2 ISZERO ISZERO AND OR SWAP1 SSTORE JUMP JUMPDEST PUSH1 0x4 CALLDATALOAD PUSH1 0x0 MSTORE PUSH1 0xD DUP4 MSTORE PUSH1 0x40 PUSH1 0x0 KECCAK256 CALLER PUSH1 0x0 MSTORE DUP4 MSTORE PUSH1 0x40 PUSH1 0x0 KECCAK256 PUSH1 0x1 PUSH1 0xFF NOT DUP3 SLOAD AND OR SWAP1 SSTORE PUSH1 0x4 CALLDATALOAD PUSH1 0x0 MSTORE PUSH1 0xE DUP4 MSTORE PUSH1 0x40 PUSH1 0x0 KECCAK256 DUP2 PUSH1 0x0 MSTORE DUP4 MSTORE DUP2 PUSH1 0x40 PUSH1 0x0 KECCAK256 SSTORE PUSH1 0x40 MLOAD SWAP1 DUP2 MSTORE TIMESTAMP DUP4 DUP3 ADD MSTORE CALLER SWAP1 DUP3 PUSH32 0x6A637CD1359E4EEC19D4267C8234482F1071920BC10DDE1E5FBF69204C26CDEE PUSH1 0x40 PUSH1 0x4 CALLDATALOAD SWAP4 LOG4 PUSH1 0x1 PUSH1 0x8 SSTORE PUSH1 0x40 MLOAD SWAP1 DUP2 MSTORE RETURN JUMPDEST ADD MLOAD SWAP1 POP DUP11 DUP1 PUSH2 0xC05 JUMP JUMPDEST SWAP1 PUSH1 0x4 DUP6 ADD PUSH1 0x0 MSTORE DUP8 PUSH1 0x0 KECCAK256 SWAP2 PUSH1 0x0 JUMPDEST PUSH1 0x1F NOT DUP6 AND DUP2 LT PUSH2 0xD23 JUMPI POP DUP4 PUSH1 0xA0 SWAP4 PUSH2 0xC34 SWAP8 SWAP7 SWAP4 PUSH1 0x1 SWAP4 PUSH1 0x5 SWAP8 PUSH1 0x1F NOT DUP2 AND LT PUSH2 0xD0A JUMPI JUMPDEST POP POP POP DUP2 SHL ADD PUSH1 0x4 DUP6 ADD SSTORE PUSH2 0xC1D JUMP JUMPDEST ADD MLOAD PUSH1 0x0 NOT PUSH1 0xF8 DUP5 PUSH1 0x3 SHL AND SHR NOT AND SWAP1 SSTORE DUP11 DUP1 DUP1 PUSH2 0xCFA JUMP JUMPDEST SWAP2 SWAP3 DUP10 PUSH1 0x1 DUP2 SWAP3 DUP7 DUP6 ADD MLOAD DUP2 SSTORE ADD SWAP5 ADD SWAP3 ADD PUSH2 0xCD3 JUMP JUMPDEST PUSH1 0x4 DUP5 ADD PUSH1 0x0 MSTORE PUSH1 0x20 PUSH1 0x0 KECCAK256 PUSH1 0x1F DUP4 ADD PUSH1 0x5 SHR DUP2 ADD SWAP8 PUSH1 0x20 DUP5 LT PUSH2 0xD7B JUMPI JUMPDEST PUSH1 0x1F ADD PUSH1 0x5 SHR ADD SWAP7 JUMPDEST DUP8 DUP2 LT PUSH2 0xD6F JUMPI POP PUSH2 0xBDF JUMP JUMPDEST PUSH1 0x0 DUP2 SSTORE PUSH1 0x1 ADD PUSH2 0xD62 JUMP JUMPDEST SWAP1 SWAP8 POP DUP8 SWAP1 PUSH2 0xD59 JUMP JUMPDEST PUSH4 0x4E487B71 PUSH1 0xE0 SHL PUSH1 0x0 MSTORE PUSH1 0x41 PUSH1 0x4 MSTORE PUSH1 0x24 PUSH1 0x0 REVERT JUMPDEST PUSH1 0x84 SWAP1 PUSH19 0x3A379030B93A3BB7B935903637B1B0BA34B7B7 PUSH1 0x69 SHL PUSH1 0x40 MLOAD SWAP2 PUSH3 0x461BCD PUSH1 0xE5 SHL DUP4 MSTORE PUSH1 0x20 PUSH1 0x4 DUP5 ADD MSTORE PUSH1 0x33 PUSH1 0x24 DUP5 ADD MSTORE PUSH32 0x4E4654436C61696D3A2055736572206E6F7420636C6F736520656E6F75676820 PUSH1 0x44 DUP5 ADD MSTORE DUP3 ADD MSTORE REVERT JUMPDEST GT ISZERO SWAP1 POP DUP5 DUP1 PUSH2 0xAE8 JUMP JUMPDEST PUSH2 0xE0F SWAP2 PUSH2 0x259D JUMP JUMPDEST SWAP1 PUSH2 0xAD9 JUMP JUMPDEST PUSH2 0xE1E SWAP2 PUSH2 0x259D JUMP JUMPDEST SWAP2 PUSH2 0xAC5 JUMP JUMPDEST PUSH1 0x40 MLOAD PUSH3 0x461BCD PUSH1 0xE5 SHL DUP2 MSTORE PUSH1 0x20 PUSH1 0x4 DUP3 ADD MSTORE PUSH1 0x1B PUSH1 0x24 DUP3 ADD MSTORE PUSH32 0x4E4654436C61696D3A20496E76616C6964207369676E61747572650000000000 PUSH1 0x44 DUP3 ADD MSTORE DUP5 SWAP1 REVERT JUMPDEST DUP5 PUSH1 0x40 MLOAD PUSH3 0x461BCD PUSH1 0xE5 SHL DUP2 MSTORE PUSH1 0x20 PUSH1 0x4 DUP3 ADD MSTORE PUSH1 0x20 PUSH1 0x24 DUP3 ADD MSTORE PUSH32 0x4E4654436C61696D3A205369676E617475726520616C72656164792075736564 PUSH1 0x44 DUP3 ADD MSTORE REVERT JUMPDEST PUSH1 0x40 MLOAD PUSH3 0x461BCD PUSH1 0xE5 SHL DUP2 MSTORE PUSH1 0x20 PUSH1 0x4 DUP3 ADD MSTORE PUSH1 0x21 PUSH1 0x24 DUP3 ADD MSTORE PUSH32 0x4E4654436C61696D3A20436C61696D2074696D657374616D7020746F6F206F6C PUSH1 0x44 DUP3 ADD MSTORE PUSH1 0x19 PUSH1 0xFA SHL DUP2 DUP7 ADD MSTORE PUSH1 0x84 SWAP1 REVERT JUMPDEST PUSH4 0x4E487B71 PUSH1 0xE0 SHL PUSH1 0x0 MSTORE PUSH1 0x11 PUSH1 0x4 MSTORE PUSH1 0x24 PUSH1 0x0 REVERT JUMPDEST PUSH1 0x40 MLOAD PUSH3 0x461BCD PUSH1 0xE5 SHL DUP2 MSTORE PUSH1 0x20 PUSH1 0x4 DUP3 ADD MSTORE PUSH1 0x27 PUSH1 0x24 DUP3 ADD MSTORE PUSH32 0x4E4654436C61696D3A204F726967696E616C204E4654206973206E6F7420636C PUSH1 0x44 DUP3 ADD MSTORE PUSH7 0x61696D61626C65 PUSH1 0xC8 SHL DUP2 DUP6 ADD MSTORE PUSH1 0x84 SWAP1 REVERT JUMPDEST PUSH2 0xF81 SWAP2 SWAP5 POP RETURNDATASIZE DUP1 PUSH1 0x0 DUP4 RETURNDATACOPY PUSH2 0xF79 DUP2 DUP4 PUSH2 0x1821 JUMP JUMPDEST DUP2 ADD SWAP1 PUSH2 0x1F5E JUMP JUMPDEST SWAP3 DUP6 PUSH2 0x99C JUMP JUMPDEST PUSH1 0x40 MLOAD RETURNDATASIZE PUSH1 0x0 DUP3 RETURNDATACOPY RETURNDATASIZE SWAP1 REVERT JUMPDEST POP PUSH1 0x40 MLOAD PUSH3 0x461BCD PUSH1 0xE5 SHL DUP2 MSTORE PUSH1 0x20 PUSH1 0x4 DUP3 ADD MSTORE PUSH1 0x1F PUSH1 0x24 DUP3 ADD MSTORE PUSH32 0x5265656E7472616E637947756172643A207265656E7472616E742063616C6C00 PUSH1 0x44 DUP3 ADD MSTORE REVERT JUMPDEST CALLVALUE PUSH2 0x1BB JUMPI PUSH2 0x4D8 PUSH2 0xFE8 CALLDATASIZE PUSH2 0x18EE JUMP JUMPDEST SWAP1 PUSH1 0x40 MLOAD SWAP3 PUSH2 0xFF6 DUP5 PUSH2 0x1805 JUMP JUMPDEST PUSH1 0x0 DUP5 MSTORE PUSH2 0x1B83 JUMP JUMPDEST CALLVALUE PUSH2 0x1BB JUMPI PUSH2 0x4D8 PUSH2 0x1010 CALLDATASIZE PUSH2 0x18EE JUMP JUMPDEST SWAP2 PUSH2 0x1023 PUSH2 0x101E DUP5 CALLER PUSH2 0x1C1E JUMP JUMPDEST PUSH2 0x1B21 JUMP JUMPDEST PUSH2 0x1CE6 JUMP JUMPDEST CALLVALUE PUSH2 0x1BB JUMPI PUSH1 0x20 DUP1 PUSH1 0x3 NOT CALLDATASIZE ADD SLT PUSH2 0x1BB JUMPI PUSH1 0x4 CALLDATALOAD PUSH1 0x0 PUSH1 0xA0 PUSH1 0x40 MLOAD PUSH2 0x104D DUP2 PUSH2 0x17E9 JUMP JUMPDEST DUP3 DUP2 MSTORE DUP3 DUP6 DUP3 ADD MSTORE DUP3 PUSH1 0x40 DUP3 ADD MSTORE DUP3 PUSH1 0x60 DUP3 ADD MSTORE PUSH1 0x60 PUSH1 0x80 DUP3 ADD MSTORE ADD MSTORE PUSH2 0x1089 DUP2 PUSH1 0x0 MSTORE PUSH1 0x2 PUSH1 0x20 MSTORE PUSH1 0x1 DUP1 PUSH1 0xA0 SHL SUB PUSH1 0x40 PUSH1 0x0 KECCAK256 SLOAD AND ISZERO ISZERO SWAP1 JUMP JUMPDEST ISZERO PUSH2 0x1142 JUMPI PUSH1 0x0 MSTORE PUSH1 0xB DUP2 MSTORE PUSH1 0x40 PUSH1 0x0 KECCAK256 PUSH1 0x40 MLOAD SWAP1 PUSH2 0x10A7 DUP3 PUSH2 0x17E9 JUMP JUMPDEST DUP1 SLOAD DUP3 MSTORE PUSH2 0x1135 PUSH1 0x1 DUP1 PUSH1 0xA0 SHL SUB SWAP2 DUP3 PUSH1 0x1 DUP3 ADD SLOAD AND SWAP3 DUP6 DUP6 ADD SWAP4 DUP5 MSTORE PUSH1 0x2 DUP3 ADD SLOAD PUSH1 0x40 DUP7 ADD SWAP1 DUP2 MSTORE PUSH1 0x3 DUP4 ADD SLOAD SWAP2 PUSH1 0x60 DUP8 ADD SWAP3 DUP4 MSTORE PUSH1 0xFF PUSH1 0x5 PUSH2 0x10ED PUSH1 0x4 DUP8 ADD PUSH2 0x1973 JUMP JUMPDEST SWAP6 PUSH1 0x80 DUP11 ADD SWAP7 DUP8 MSTORE ADD SLOAD AND SWAP6 PUSH1 0xA0 DUP9 ADD SWAP7 ISZERO ISZERO DUP8 MSTORE PUSH1 0x40 MLOAD SWAP9 DUP10 SWAP9 DUP2 DUP11 MSTORE MLOAD SWAP1 DUP10 ADD MSTORE MLOAD AND PUSH1 0x40 DUP8 ADD MSTORE MLOAD PUSH1 0x60 DUP7 ADD MSTORE MLOAD PUSH1 0x80 DUP6 ADD MSTORE MLOAD PUSH1 0xC0 PUSH1 0xA0 DUP6 ADD MSTORE PUSH1 0xE0 DUP5 ADD SWAP1 PUSH2 0x18C9 JUMP JUMPDEST SWAP1 MLOAD ISZERO ISZERO PUSH1 0xC0 DUP4 ADD MSTORE SUB SWAP1 RETURN JUMPDEST PUSH1 0x40 MLOAD PUSH3 0x461BCD PUSH1 0xE5 SHL DUP2 MSTORE PUSH1 0x4 DUP2 ADD DUP4 SWAP1 MSTORE PUSH1 0x24 DUP1 DUP3 ADD MSTORE PUSH32 0x4E4654436C61696D3A20436C61696D20746F6B656E20646F6573206E6F742065 PUSH1 0x44 DUP3 ADD MSTORE PUSH4 0x1E1A5CDD PUSH1 0xE2 SHL PUSH1 0x64 DUP3 ADD MSTORE PUSH1 0x84 SWAP1 REVERT JUMPDEST CALLVALUE PUSH2 0x1BB JUMPI PUSH1 0x0 CALLDATASIZE PUSH1 0x3 NOT ADD SLT PUSH2 0x1BB JUMPI PUSH1 0x20 PUSH1 0x9 SLOAD PUSH1 0x40 MLOAD SWAP1 DUP2 MSTORE RETURN JUMPDEST CALLVALUE PUSH2 0x1BB JUMPI PUSH1 0x40 CALLDATASIZE PUSH1 0x3 NOT ADD SLT PUSH2 0x1BB JUMPI PUSH2 0x11CA PUSH2 0x17D3 JUMP JUMPDEST PUSH1 0x24 CALLDATALOAD SWAP1 PUSH1 0x1 PUSH1 0x1 PUSH1 0xA0 SHL SUB DUP1 DUP1 PUSH2 0x11E1 DUP6 PUSH2 0x1ABD JUMP JUMPDEST AND SWAP3 AND SWAP2 DUP1 DUP4 EQ PUSH2 0x12DC JUMPI DUP1 CALLER EQ SWAP1 DUP2 ISZERO PUSH2 0x12B7 JUMPI JUMPDEST POP ISZERO PUSH2 0x124C JUMPI PUSH1 0x0 DUP4 DUP2 MSTORE PUSH1 0x4 PUSH1 0x20 MSTORE PUSH1 0x40 SWAP1 KECCAK256 DUP1 SLOAD PUSH1 0x1 PUSH1 0x1 PUSH1 0xA0 SHL SUB NOT AND DUP4 OR SWAP1 SSTORE PUSH2 0x1224 DUP4 PUSH2 0x1ABD JUMP JUMPDEST AND PUSH32 0x8C5BE1E5EBEC7D5BD14F71427D1E84F3DD0314C0F7B2291E5B200AC8C7C3B925 PUSH1 0x0 DUP1 LOG4 STOP JUMPDEST PUSH1 0x40 MLOAD PUSH3 0x461BCD PUSH1 0xE5 SHL DUP2 MSTORE PUSH1 0x20 PUSH1 0x4 DUP3 ADD MSTORE PUSH1 0x3D PUSH1 0x24 DUP3 ADD MSTORE PUSH32 0x4552433732313A20617070726F76652063616C6C6572206973206E6F7420746F PUSH1 0x44 DUP3 ADD MSTORE PUSH32 0x6B656E206F776E6572206F7220617070726F76656420666F7220616C6C000000 PUSH1 0x64 DUP3 ADD MSTORE PUSH1 0x84 SWAP1 REVERT JUMPDEST SWAP1 POP PUSH1 0x0 MSTORE PUSH1 0x5 PUSH1 0x20 MSTORE PUSH1 0x40 PUSH1 0x0 KECCAK256 CALLER PUSH1 0x0 MSTORE PUSH1 0x20 MSTORE PUSH1 0xFF PUSH1 0x40 PUSH1 0x0 KECCAK256 SLOAD AND DUP5 PUSH2 0x11F7 JUMP JUMPDEST PUSH1 0x40 MLOAD PUSH3 0x461BCD PUSH1 0xE5 SHL DUP2 MSTORE PUSH1 0x20 PUSH1 0x4 DUP3 ADD MSTORE PUSH1 0x21 PUSH1 0x24 DUP3 ADD MSTORE PUSH32 0x4552433732313A20617070726F76616C20746F2063757272656E74206F776E65 PUSH1 0x44 DUP3 ADD MSTORE PUSH1 0x39 PUSH1 0xF9 SHL PUSH1 0x64 DUP3 ADD MSTORE PUSH1 0x84 SWAP1 REVERT JUMPDEST CALLVALUE PUSH2 0x1BB JUMPI PUSH1 0x20 CALLDATASIZE PUSH1 0x3 NOT ADD SLT PUSH2 0x1BB JUMPI PUSH1 0x20 PUSH2 0x8E5 PUSH1 0x4 CALLDATALOAD PUSH2 0x1AE3 JUMP JUMPDEST CALLVALUE PUSH2 0x1BB JUMPI PUSH1 0x0 CALLDATASIZE PUSH1 0x3 NOT ADD SLT PUSH2 0x1BB JUMPI PUSH1 0x40 MLOAD PUSH1 0x0 DUP1 SLOAD PUSH2 0x136A DUP2 PUSH2 0x1939 JUMP JUMPDEST DUP1 DUP5 MSTORE SWAP1 PUSH1 0x1 SWAP1 DUP2 DUP2 AND SWAP1 DUP2 ISZERO PUSH2 0x66D JUMPI POP PUSH1 0x1 EQ PUSH2 0x1393 JUMPI PUSH2 0x34C DUP5 PUSH2 0x600 DUP2 DUP7 SUB DUP3 PUSH2 0x1821 JUMP JUMPDEST PUSH1 0x0 DUP1 DUP1 MSTORE SWAP3 POP PUSH32 0x290DECD9548B62A8D60345A988386FC84BA6BC95484008F6362F93160EF3E563 JUMPDEST DUP3 DUP5 LT PUSH2 0x13D4 JUMPI POP POP POP DUP2 ADD PUSH1 0x20 ADD PUSH2 0x600 DUP3 PUSH2 0x5F0 JUMP JUMPDEST DUP1 SLOAD PUSH1 0x20 DUP6 DUP8 ADD DUP2 ADD SWAP2 SWAP1 SWAP2 MSTORE SWAP1 SWAP4 ADD SWAP3 DUP2 ADD PUSH2 0x13BC JUMP JUMPDEST CALLVALUE PUSH2 0x1BB JUMPI PUSH1 0x60 CALLDATASIZE PUSH1 0x3 NOT ADD SLT PUSH2 0x1BB JUMPI PUSH2 0x1405 PUSH2 0x17BD JUMP JUMPDEST PUSH1 0x44 CALLDATALOAD PUSH8 0xFFFFFFFFFFFFFFFF SWAP2 DUP3 DUP3 GT PUSH2 0x1BB JUMPI PUSH2 0x1429 PUSH1 0x24 SWAP3 CALLDATASIZE SWAP1 PUSH1 0x4 ADD PUSH2 0x185F JUMP JUMPDEST SWAP1 PUSH2 0x1432 PUSH2 0x1A19 JUMP JUMPDEST PUSH1 0xA SLOAD PUSH1 0x40 MLOAD PUSH4 0xD305485D PUSH1 0xE0 SHL DUP2 MSTORE PUSH1 0x4 DUP1 CALLDATALOAD SWAP1 DUP3 ADD MSTORE SWAP4 PUSH1 0x1 PUSH1 0x1 PUSH1 0xA0 SHL SUB SWAP3 SWAP2 PUSH1 0x0 SWAP2 DUP7 SWAP2 DUP3 SWAP1 DUP7 AND GAS STATICCALL SWAP4 DUP5 ISZERO PUSH2 0xF88 JUMPI PUSH1 0x0 SWAP5 PUSH2 0x171B JUMPI JUMPDEST POP PUSH1 0x4 CALLDATALOAD PUSH1 0x0 MSTORE PUSH1 0xD PUSH1 0x20 MSTORE PUSH1 0x40 PUSH1 0x0 KECCAK256 DUP3 DUP3 AND PUSH1 0x0 MSTORE PUSH1 0x20 MSTORE PUSH2 0x149B PUSH1 0xFF PUSH1 0x40 PUSH1 0x0 KECCAK256 SLOAD AND ISZERO PUSH2 0x201E JUMP JUMPDEST PUSH1 0x40 PUSH1 0x1 PUSH1 0x9 SLOAD ADD SWAP5 DUP6 PUSH1 0x9 SSTORE PUSH1 0x4 CALLDATALOAD PUSH1 0x0 MSTORE PUSH1 0xC PUSH1 0x20 MSTORE DUP2 PUSH1 0x0 KECCAK256 PUSH2 0x14C1 DUP2 SLOAD PUSH2 0x207E JUMP JUMPDEST SWAP1 SSTORE PUSH1 0x4 CALLDATALOAD PUSH1 0x0 MSTORE PUSH1 0xC PUSH1 0x20 MSTORE PUSH2 0x14E7 DUP3 PUSH1 0x0 KECCAK256 SLOAD SWAP6 PUSH2 0x14E1 DUP9 DUP7 PUSH2 0x20D9 JUMP JUMPDEST DUP8 PUSH2 0x21CD JUMP JUMPDEST ADD MLOAD PUSH1 0x40 MLOAD PUSH2 0x14F5 DUP2 PUSH2 0x17E9 JUMP JUMPDEST PUSH1 0x4 CALLDATALOAD DUP2 MSTORE PUSH1 0x20 DUP2 ADD SWAP2 DUP5 DUP5 AND DUP4 MSTORE PUSH1 0x40 DUP3 ADD TIMESTAMP DUP2 MSTORE PUSH1 0x60 DUP4 ADD SWAP1 DUP8 DUP3 MSTORE PUSH1 0x80 DUP5 ADD SWAP3 DUP4 MSTORE PUSH1 0x0 PUSH1 0xA0 DUP6 ADD MSTORE DUP9 PUSH1 0x0 MSTORE PUSH1 0xB PUSH1 0x20 MSTORE PUSH1 0x40 PUSH1 0x0 KECCAK256 SWAP5 DUP5 MLOAD DUP7 SSTORE DUP8 PUSH1 0x1 DUP8 ADD SWAP2 MLOAD AND PUSH1 0x1 PUSH1 0x1 PUSH1 0x60 SHL SUB PUSH1 0xA0 SHL DUP3 SLOAD AND OR SWAP1 SSTORE MLOAD PUSH1 0x2 DUP6 ADD SSTORE MLOAD PUSH1 0x3 DUP5 ADD SSTORE MLOAD SWAP7 DUP8 MLOAD SWAP1 DUP2 GT PUSH2 0xD85 JUMPI PUSH2 0x1571 PUSH1 0x4 DUP5 ADD SLOAD PUSH2 0x1939 JUMP JUMPDEST SWAP8 PUSH1 0x1F DUP10 GT PUSH2 0x16D0 JUMPI JUMPDEST PUSH1 0x20 SWAP9 POP DUP9 SWAP1 PUSH1 0x1F DUP4 GT PUSH1 0x1 EQ PUSH2 0x165A JUMPI SWAP3 DUP3 PUSH1 0x5 SWAP4 PUSH1 0xA0 SWAP4 PUSH2 0x15CE SWAP8 SWAP7 PUSH1 0x0 SWAP3 PUSH2 0x164F JUMPI POP POP DUP2 PUSH1 0x1 SHL SWAP2 PUSH1 0x0 NOT SWAP1 PUSH1 0x3 SHL SHR NOT AND OR PUSH1 0x4 DUP6 ADD SSTORE ADD MLOAD ISZERO ISZERO SWAP2 ADD SWAP1 PUSH1 0xFF DUP1 NOT DUP4 SLOAD AND SWAP2 ISZERO ISZERO AND OR SWAP1 SSTORE JUMP JUMPDEST PUSH1 0x4 CALLDATALOAD PUSH1 0x0 MSTORE PUSH1 0xD DUP6 MSTORE PUSH1 0x40 PUSH1 0x0 KECCAK256 DUP3 DUP3 AND PUSH1 0x0 MSTORE DUP6 MSTORE PUSH1 0x40 PUSH1 0x0 KECCAK256 PUSH1 0x1 PUSH1 0xFF NOT DUP3 SLOAD AND OR SWAP1 SSTORE PUSH1 0x4 CALLDATALOAD PUSH1 0x0 MSTORE PUSH1 0xE DUP6 MSTORE PUSH1 0x40 PUSH1 0x0 KECCAK256 DUP4 PUSH1 0x0 MSTORE DUP6 MSTORE DUP4 PUSH1 0x40 PUSH1 0x0 KECCAK256 SSTORE PUSH1 0x40 MLOAD SWAP3 DUP4 MSTORE TIMESTAMP DUP6 DUP5 ADD MSTORE AND SWAP1 DUP3 PUSH32 0x6A637CD1359E4EEC19D4267C8234482F1071920BC10DDE1E5FBF69204C26CDEE PUSH1 0x40 PUSH1 0x4 CALLDATALOAD SWAP4 LOG4 PUSH1 0x40 MLOAD SWAP1 DUP2 MSTORE RETURN JUMPDEST ADD MLOAD SWAP1 POP DUP13 DUP1 PUSH2 0xC05 JUMP JUMPDEST SWAP1 PUSH1 0x4 DUP6 ADD PUSH1 0x0 MSTORE DUP10 PUSH1 0x0 KECCAK256 SWAP2 PUSH1 0x0 JUMPDEST PUSH1 0x1F NOT DUP6 AND DUP2 LT PUSH2 0x16B9 JUMPI POP DUP4 PUSH1 0xA0 SWAP4 PUSH2 0x15CE SWAP8 SWAP7 SWAP4 PUSH1 0x1 SWAP4 PUSH1 0x5 SWAP8 PUSH1 0x1F NOT DUP2 AND LT PUSH2 0x16A0 JUMPI POP POP POP DUP2 SHL ADD PUSH1 0x4 DUP6 ADD SSTORE PUSH2 0xC1D JUMP JUMPDEST ADD MLOAD PUSH1 0x0 NOT PUSH1 0xF8 DUP5 PUSH1 0x3 SHL AND SHR NOT AND SWAP1 SSTORE DUP13 DUP1 DUP1 PUSH2 0xCFA JUMP JUMPDEST SWAP2 SWAP3 DUP12 PUSH1 0x1 DUP2 SWAP3 DUP7 DUP6 ADD MLOAD DUP2 SSTORE ADD SWAP5 ADD SWAP3 ADD PUSH2 0x166A JUMP JUMPDEST PUSH1 0x4 DUP5 ADD PUSH1 0x0 MSTORE PUSH1 0x20 PUSH1 0x0 KECCAK256 PUSH1 0x1F DUP4 ADD PUSH1 0x5 SHR DUP2 ADD SWAP10 PUSH1 0x20 DUP5 LT PUSH2 0x1711 JUMPI JUMPDEST PUSH1 0x1F ADD PUSH1 0x5 SHR ADD SWAP9 JUMPDEST DUP10 DUP2 LT PUSH2 0x1705 JUMPI POP PUSH2 0x157B JUMP JUMPDEST PUSH1 0x0 DUP2 SSTORE PUSH1 0x1 ADD PUSH2 0x16F8 JUMP JUMPDEST SWAP1 SWAP10 POP DUP10 SWAP1 PUSH2 0x16EF JUMP JUMPDEST PUSH2 0x1731 SWAP2 SWAP5 POP RETURNDATASIZE DUP1 PUSH1 0x0 DUP4 RETURNDATACOPY PUSH2 0xF79 DUP2 DUP4 PUSH2 0x1821 JUMP JUMPDEST SWAP3 DUP6 PUSH2 0x146F JUMP JUMPDEST CALLVALUE PUSH2 0x1BB JUMPI PUSH1 0x20 CALLDATASIZE PUSH1 0x3 NOT ADD SLT PUSH2 0x1BB JUMPI PUSH1 0x4 CALLDATALOAD SWAP1 PUSH4 0xFFFFFFFF PUSH1 0xE0 SHL DUP3 AND DUP1 SWAP3 SUB PUSH2 0x1BB JUMPI PUSH1 0x20 SWAP2 PUSH4 0x24832483 PUSH1 0xE1 SHL DUP2 EQ SWAP1 DUP2 ISZERO PUSH2 0x177A JUMPI JUMPDEST POP ISZERO ISZERO DUP2 MSTORE RETURN JUMPDEST PUSH4 0x80AC58CD PUSH1 0xE0 SHL DUP2 EQ SWAP2 POP DUP2 ISZERO PUSH2 0x17AC JUMPI JUMPDEST DUP2 ISZERO PUSH2 0x179B JUMPI JUMPDEST POP DUP4 PUSH2 0x1773 JUMP JUMPDEST PUSH4 0x1FFC9A7 PUSH1 0xE0 SHL EQ SWAP1 POP DUP4 PUSH2 0x1794 JUMP JUMPDEST PUSH4 0x5B5E139F PUSH1 0xE0 SHL DUP2 EQ SWAP2 POP PUSH2 0x178D JUMP JUMPDEST PUSH1 0x24 CALLDATALOAD SWAP1 PUSH1 0x1 PUSH1 0x1 PUSH1 0xA0 SHL SUB DUP3 AND DUP3 SUB PUSH2 0x1BB JUMPI JUMP JUMPDEST PUSH1 0x4 CALLDATALOAD SWAP1 PUSH1 0x1 PUSH1 0x1 PUSH1 0xA0 SHL SUB DUP3 AND DUP3 SUB PUSH2 0x1BB JUMPI JUMP JUMPDEST PUSH1 0xC0 DUP2 ADD SWAP1 DUP2 LT PUSH8 0xFFFFFFFFFFFFFFFF DUP3 GT OR PUSH2 0xD85 JUMPI PUSH1 0x40 MSTORE JUMP JUMPDEST PUSH1 0x20 DUP2 ADD SWAP1 DUP2 LT PUSH8 0xFFFFFFFFFFFFFFFF DUP3 GT OR PUSH2 0xD85 JUMPI PUSH1 0x40 MSTORE JUMP JUMPDEST SWAP1 PUSH1 0x1F DUP1 NOT SWAP2 ADD AND DUP2 ADD SWAP1 DUP2 LT PUSH8 0xFFFFFFFFFFFFFFFF DUP3 GT OR PUSH2 0xD85 JUMPI PUSH1 0x40 MSTORE JUMP JUMPDEST PUSH8 0xFFFFFFFFFFFFFFFF DUP2 GT PUSH2 0xD85 JUMPI PUSH1 0x1F ADD PUSH1 0x1F NOT AND PUSH1 0x20 ADD SWAP1 JUMP JUMPDEST DUP2 PUSH1 0x1F DUP3 ADD SLT ISZERO PUSH2 0x1BB JUMPI DUP1 CALLDATALOAD SWAP1 PUSH2 0x1876 DUP3 PUSH2 0x1843 JUMP JUMPDEST SWAP3 PUSH2 0x1884 PUSH1 0x40 MLOAD SWAP5 DUP6 PUSH2 0x1821 JUMP JUMPDEST DUP3 DUP5 MSTORE PUSH1 0x20 DUP4 DUP4 ADD ADD GT PUSH2 0x1BB JUMPI DUP2 PUSH1 0x0 SWAP3 PUSH1 0x20 DUP1 SWAP4 ADD DUP4 DUP7 ADD CALLDATACOPY DUP4 ADD ADD MSTORE SWAP1 JUMP JUMPDEST PUSH1 0x0 JUMPDEST DUP4 DUP2 LT PUSH2 0x18B9 JUMPI POP POP PUSH1 0x0 SWAP2 ADD MSTORE JUMP JUMPDEST DUP2 DUP2 ADD MLOAD DUP4 DUP3 ADD MSTORE PUSH1 0x20 ADD PUSH2 0x18A9 JUMP JUMPDEST SWAP1 PUSH1 0x20 SWAP2 PUSH2 0x18E2 DUP2 MLOAD DUP1 SWAP3 DUP2 DUP6 MSTORE DUP6 DUP1 DUP7 ADD SWAP2 ADD PUSH2 0x18A6 JUMP JUMPDEST PUSH1 0x1F ADD PUSH1 0x1F NOT AND ADD ADD SWAP1 JUMP JUMPDEST PUSH1 0x60 SWAP1 PUSH1 0x3 NOT ADD SLT PUSH2 0x1BB JUMPI PUSH1 0x1 PUSH1 0x1 PUSH1 0xA0 SHL SUB SWAP1 PUSH1 0x4 CALLDATALOAD DUP3 DUP2 AND DUP2 SUB PUSH2 0x1BB JUMPI SWAP2 PUSH1 0x24 CALLDATALOAD SWAP1 DUP2 AND DUP2 SUB PUSH2 0x1BB JUMPI SWAP1 PUSH1 0x44 CALLDATALOAD SWAP1 JUMP JUMPDEST PUSH1 0x40 SWAP1 PUSH1 0x3 NOT ADD SLT PUSH2 0x1BB JUMPI PUSH1 0x4 CALLDATALOAD SWAP1 PUSH1 0x24 CALLDATALOAD SWAP1 JUMP JUMPDEST SWAP1 PUSH1 0x1 DUP3 DUP2 SHR SWAP3 AND DUP1 ISZERO PUSH2 0x1969 JUMPI JUMPDEST PUSH1 0x20 DUP4 LT EQ PUSH2 0x1953 JUMPI JUMP JUMPDEST PUSH4 0x4E487B71 PUSH1 0xE0 SHL PUSH1 0x0 MSTORE PUSH1 0x22 PUSH1 0x4 MSTORE PUSH1 0x24 PUSH1 0x0 REVERT JUMPDEST SWAP2 PUSH1 0x7F AND SWAP2 PUSH2 0x1948 JUMP JUMPDEST SWAP1 PUSH1 0x40 MLOAD SWAP2 DUP3 PUSH1 0x0 DUP3 SLOAD SWAP3 PUSH2 0x1987 DUP5 PUSH2 0x1939 JUMP JUMPDEST SWAP1 DUP2 DUP5 MSTORE PUSH1 0x1 SWAP5 DUP6 DUP2 AND SWAP1 DUP2 PUSH1 0x0 EQ PUSH2 0x19F6 JUMPI POP PUSH1 0x1 EQ PUSH2 0x19B3 JUMPI JUMPDEST POP POP PUSH2 0x19B1 SWAP3 POP SUB DUP4 PUSH2 0x1821 JUMP JUMPDEST JUMP JUMPDEST SWAP1 SWAP4 SWAP2 POP PUSH1 0x0 MSTORE PUSH1 0x20 SWAP1 DUP2 PUSH1 0x0 KECCAK256 SWAP4 PUSH1 0x0 SWAP2 JUMPDEST DUP2 DUP4 LT PUSH2 0x19DE JUMPI POP POP PUSH2 0x19B1 SWAP4 POP DUP3 ADD ADD CODESIZE DUP1 PUSH2 0x19A3 JUMP JUMPDEST DUP6 SLOAD DUP9 DUP5 ADD DUP6 ADD MSTORE SWAP5 DUP6 ADD SWAP5 DUP8 SWAP5 POP SWAP2 DUP4 ADD SWAP2 PUSH2 0x19C6 JUMP JUMPDEST SWAP2 POP POP PUSH2 0x19B1 SWAP5 POP PUSH1 0x20 SWAP3 POP PUSH1 0xFF NOT AND DUP3 DUP5 ADD MSTORE ISZERO ISZERO PUSH1 0x5 SHL DUP3 ADD ADD CODESIZE DUP1 PUSH2 0x19A3 JUMP JUMPDEST PUSH1 0x7 SLOAD PUSH1 0x1 PUSH1 0x1 PUSH1 0xA0 SHL SUB AND CALLER SUB PUSH2 0x1A2D JUMPI JUMP JUMPDEST PUSH1 0x64 PUSH1 0x40 MLOAD PUSH3 0x461BCD PUSH1 0xE5 SHL DUP2 MSTORE PUSH1 0x20 PUSH1 0x4 DUP3 ADD MSTORE PUSH1 0x20 PUSH1 0x24 DUP3 ADD MSTORE PUSH32 0x4F776E61626C653A2063616C6C6572206973206E6F7420746865206F776E6572 PUSH1 0x44 DUP3 ADD MSTORE REVERT JUMPDEST ISZERO PUSH2 0x1A78 JUMPI JUMP JUMPDEST PUSH1 0x40 MLOAD PUSH3 0x461BCD PUSH1 0xE5 SHL DUP2 MSTORE PUSH1 0x20 PUSH1 0x4 DUP3 ADD MSTORE PUSH1 0x18 PUSH1 0x24 DUP3 ADD MSTORE PUSH32 0x4552433732313A20696E76616C696420746F6B656E2049440000000000000000 PUSH1 0x44 DUP3 ADD MSTORE PUSH1 0x64 SWAP1 REVERT JUMPDEST PUSH1 0x0 SWAP1 DUP2 MSTORE PUSH1 0x2 PUSH1 0x20 MSTORE PUSH1 0x40 SWAP1 KECCAK256 SLOAD PUSH1 0x1 PUSH1 0x1 PUSH1 0xA0 SHL SUB AND PUSH2 0x1AE0 DUP2 ISZERO ISZERO PUSH2 0x1A71 JUMP JUMPDEST SWAP1 JUMP JUMPDEST PUSH1 0x0 DUP2 DUP2 MSTORE PUSH1 0x2 PUSH1 0x20 MSTORE PUSH1 0x40 SWAP1 KECCAK256 SLOAD PUSH2 0x1B06 SWAP1 PUSH1 0x1 PUSH1 0x1 PUSH1 0xA0 SHL SUB AND ISZERO ISZERO PUSH2 0x1A71 JUMP JUMPDEST PUSH1 0x0 SWAP1 DUP2 MSTORE PUSH1 0x4 PUSH1 0x20 MSTORE PUSH1 0x40 SWAP1 KECCAK256 SLOAD PUSH1 0x1 PUSH1 0x1 PUSH1 0xA0 SHL SUB AND SWAP1 JUMP JUMPDEST ISZERO PUSH2 0x1B28 JUMPI JUMP JUMPDEST PUSH1 0x40 MLOAD PUSH3 0x461BCD PUSH1 0xE5 SHL DUP2 MSTORE PUSH1 0x20 PUSH1 0x4 DUP3 ADD MSTORE PUSH1 0x2D PUSH1 0x24 DUP3 ADD MSTORE PUSH32 0x4552433732313A2063616C6C6572206973206E6F7420746F6B656E206F776E65 PUSH1 0x44 DUP3 ADD MSTORE PUSH13 0x1C881BDC88185C1C1C9BDD9959 PUSH1 0x9A SHL PUSH1 0x64 DUP3 ADD MSTORE PUSH1 0x84 SWAP1 REVERT JUMPDEST SWAP1 PUSH2 0x1BA7 SWAP4 SWAP3 SWAP2 PUSH2 0x1B97 PUSH2 0x101E DUP5 CALLER PUSH2 0x1C1E JUMP JUMPDEST PUSH2 0x1BA2 DUP4 DUP4 DUP4 PUSH2 0x1CE6 JUMP JUMPDEST PUSH2 0x1DF7 JUMP JUMPDEST ISZERO PUSH2 0x1BAE JUMPI JUMP JUMPDEST PUSH1 0x40 MLOAD PUSH3 0x461BCD PUSH1 0xE5 SHL DUP2 MSTORE DUP1 PUSH2 0x1BC7 PUSH1 0x4 DUP3 ADD PUSH2 0x1BCB JUMP JUMPDEST SUB SWAP1 REVERT JUMPDEST PUSH1 0x80 SWAP1 PUSH1 0x20 DUP2 MSTORE PUSH1 0x32 PUSH1 0x20 DUP3 ADD MSTORE PUSH32 0x4552433732313A207472616E7366657220746F206E6F6E204552433732315265 PUSH1 0x40 DUP3 ADD MSTORE PUSH18 0x31B2B4BB32B91034B6B83632B6B2B73A32B9 PUSH1 0x71 SHL PUSH1 0x60 DUP3 ADD MSTORE ADD SWAP1 JUMP JUMPDEST SWAP1 PUSH1 0x1 PUSH1 0x1 PUSH1 0xA0 SHL SUB DUP1 DUP1 PUSH2 0x1C32 DUP5 PUSH2 0x1ABD JUMP JUMPDEST AND SWAP4 AND SWAP2 DUP4 DUP4 EQ SWAP4 DUP5 ISZERO PUSH2 0x1C65 JUMPI JUMPDEST POP DUP4 ISZERO PUSH2 0x1C4F JUMPI JUMPDEST POP POP POP SWAP1 JUMP JUMPDEST PUSH2 0x1C5B SWAP2 SWAP3 SWAP4 POP PUSH2 0x1AE3 JUMP JUMPDEST AND EQ CODESIZE DUP1 DUP1 PUSH2 0x1C49 JUMP JUMPDEST SWAP1 SWAP4 POP PUSH1 0x0 MSTORE PUSH1 0x5 PUSH1 0x20 MSTORE PUSH1 0x40 PUSH1 0x0 KECCAK256 DUP3 PUSH1 0x0 MSTORE PUSH1 0x20 MSTORE PUSH1 0xFF PUSH1 0x40 PUSH1 0x0 KECCAK256 SLOAD AND SWAP3 CODESIZE PUSH2 0x1C41 JUMP JUMPDEST ISZERO PUSH2 0x1C93 JUMPI JUMP JUMPDEST PUSH1 0x40 MLOAD PUSH3 0x461BCD PUSH1 0xE5 SHL DUP2 MSTORE PUSH1 0x20 PUSH1 0x4 DUP3 ADD MSTORE PUSH1 0x25 PUSH1 0x24 DUP3 ADD MSTORE PUSH32 0x4552433732313A207472616E736665722066726F6D20696E636F727265637420 PUSH1 0x44 DUP3 ADD MSTORE PUSH5 0x37BBB732B9 PUSH1 0xD9 SHL PUSH1 0x64 DUP3 ADD MSTORE PUSH1 0x84 SWAP1 REVERT JUMPDEST SWAP1 PUSH2 0x1D0E SWAP2 PUSH2 0x1CF4 DUP5 PUSH2 0x1ABD JUMP JUMPDEST PUSH1 0x1 PUSH1 0x1 PUSH1 0xA0 SHL SUB SWAP4 SWAP2 DUP5 AND SWAP3 DUP5 SWAP3 SWAP1 SWAP2 DUP4 AND DUP5 EQ PUSH2 0x1C8C JUMP JUMPDEST AND SWAP2 DUP3 ISZERO PUSH2 0x1DA6 JUMPI DUP2 PUSH2 0x1D2B SWAP2 PUSH2 0x1D24 DUP7 PUSH2 0x1ABD JUMP JUMPDEST AND EQ PUSH2 0x1C8C JUMP JUMPDEST PUSH32 0xDDF252AD1BE2C89B69C2B068FC378DAA952BA7F163C4A11628F55A4DF523B3EF PUSH1 0x0 DUP5 DUP2 MSTORE PUSH1 0x4 PUSH1 0x20 MSTORE PUSH1 0x40 DUP2 KECCAK256 PUSH1 0x1 PUSH1 0x1 PUSH1 0x60 SHL SUB PUSH1 0xA0 SHL SWAP1 DUP2 DUP2 SLOAD AND SWAP1 SSTORE DUP4 DUP3 MSTORE PUSH1 0x3 PUSH1 0x20 MSTORE PUSH1 0x40 DUP3 KECCAK256 PUSH1 0x0 NOT DUP2 SLOAD ADD SWAP1 SSTORE DUP5 DUP3 MSTORE PUSH1 0x40 DUP3 KECCAK256 PUSH1 0x1 DUP2 SLOAD ADD SWAP1 SSTORE DUP6 DUP3 MSTORE PUSH1 0x2 PUSH1 0x20 MSTORE DUP5 PUSH1 0x40 DUP4 KECCAK256 SWAP2 DUP3 SLOAD AND OR SWAP1 SSTORE DUP1 LOG4 JUMP JUMPDEST PUSH1 0x40 MLOAD PUSH3 0x461BCD PUSH1 0xE5 SHL DUP2 MSTORE PUSH1 0x20 PUSH1 0x4 DUP3 ADD MSTORE PUSH1 0x24 DUP1 DUP3 ADD MSTORE PUSH32 0x4552433732313A207472616E7366657220746F20746865207A65726F20616464 PUSH1 0x44 DUP3 ADD MSTORE PUSH4 0x72657373 PUSH1 0xE0 SHL PUSH1 0x64 DUP3 ADD MSTORE PUSH1 0x84 SWAP1 REVERT JUMPDEST SWAP3 SWAP4 PUSH1 0x0 SWAP4 SWAP1 SWAP3 SWAP2 DUP1 EXTCODESIZE ISZERO PUSH2 0x1F11 JUMPI SWAP5 DUP5 SWAP2 PUSH2 0x1E51 SWAP7 PUSH1 0x40 MLOAD DUP1 SWAP5 DUP2 SWAP4 PUSH4 0xA85BD01 PUSH1 0xE1 SHL SWAP8 DUP9 DUP5 MSTORE CALLER PUSH1 0x4 DUP6 ADD MSTORE PUSH1 0x1 DUP1 PUSH1 0xA0 SHL SUB DUP1 SWAP3 AND PUSH1 0x24 DUP6 ADD MSTORE PUSH1 0x44 DUP5 ADD MSTORE PUSH1 0x80 PUSH1 0x64 DUP5 ADD MSTORE DUP3 PUSH1 0x20 SWAP12 DUP13 SWAP8 PUSH1 0x84 DUP4 ADD SWAP1 PUSH2 0x18C9 JUMP JUMPDEST SUB SWAP4 AND GAS CALL DUP5 SWAP2 DUP2 PUSH2 0x1ECD JUMPI JUMPDEST POP PUSH2 0x1EBC JUMPI POP POP POP RETURNDATASIZE PUSH1 0x0 EQ PUSH2 0x1EB4 JUMPI RETURNDATASIZE PUSH2 0x1E78 DUP2 PUSH2 0x1843 JUMP JUMPDEST SWAP1 PUSH2 0x1E86 PUSH1 0x40 MLOAD SWAP3 DUP4 PUSH2 0x1821 JUMP JUMPDEST DUP2 MSTORE DUP1 SWAP2 DUP4 RETURNDATASIZE SWAP3 ADD RETURNDATACOPY JUMPDEST DUP1 MLOAD SWAP2 DUP3 PUSH2 0x1EB1 JUMPI PUSH1 0x40 MLOAD PUSH3 0x461BCD PUSH1 0xE5 SHL DUP2 MSTORE DUP1 PUSH2 0x1BC7 PUSH1 0x4 DUP3 ADD PUSH2 0x1BCB JUMP JUMPDEST ADD REVERT JUMPDEST POP PUSH1 0x60 PUSH2 0x1E90 JUMP JUMPDEST PUSH1 0x1 PUSH1 0x1 PUSH1 0xE0 SHL SUB NOT AND EQ SWAP3 POP SWAP1 POP JUMP JUMPDEST SWAP1 SWAP2 POP DUP6 DUP2 DUP2 RETURNDATASIZE DUP4 GT PUSH2 0x1F0A JUMPI JUMPDEST PUSH2 0x1EE5 DUP2 DUP4 PUSH2 0x1821 JUMP JUMPDEST DUP2 ADD SUB SLT PUSH2 0x1F06 JUMPI MLOAD PUSH1 0x1 PUSH1 0x1 PUSH1 0xE0 SHL SUB NOT DUP2 AND DUP2 SUB PUSH2 0x1F06 JUMPI SWAP1 CODESIZE PUSH2 0x1E5E JUMP JUMPDEST DUP5 DUP1 REVERT JUMPDEST POP RETURNDATASIZE PUSH2 0x1EDB JUMP JUMPDEST POP POP POP SWAP2 POP POP PUSH1 0x1 SWAP1 JUMP JUMPDEST DUP2 PUSH1 0x1F DUP3 ADD SLT ISZERO PUSH2 0x1BB JUMPI DUP1 MLOAD PUSH2 0x1F32 DUP2 PUSH2 0x1843 JUMP JUMPDEST SWAP3 PUSH2 0x1F40 PUSH1 0x40 MLOAD SWAP5 DUP6 PUSH2 0x1821 JUMP JUMPDEST DUP2 DUP5 MSTORE PUSH1 0x20 DUP3 DUP5 ADD ADD GT PUSH2 0x1BB JUMPI PUSH2 0x1AE0 SWAP2 PUSH1 0x20 DUP1 DUP6 ADD SWAP2 ADD PUSH2 0x18A6 JUMP JUMPDEST SWAP1 PUSH1 0x20 DUP3 DUP3 SUB SLT PUSH2 0x1BB JUMPI DUP2 MLOAD PUSH8 0xFFFFFFFFFFFFFFFF SWAP3 DUP4 DUP3 GT PUSH2 0x1BB JUMPI ADD PUSH1 0xE0 DUP2 DUP4 SUB SLT PUSH2 0x1BB JUMPI PUSH1 0x40 MLOAD SWAP3 PUSH1 0xE0 DUP5 ADD DUP5 DUP2 LT DUP3 DUP3 GT OR PUSH2 0xD85 JUMPI PUSH1 0x40 MSTORE DUP2 MLOAD DUP5 MSTORE PUSH1 0x20 DUP3 ADD MLOAD PUSH1 0x20 DUP6 ADD MSTORE PUSH1 0x40 DUP3 ADD MLOAD DUP2 DUP2 GT PUSH2 0x1BB JUMPI DUP4 PUSH2 0x1FC3 SWAP2 DUP5 ADD PUSH2 0x1F1C JUMP JUMPDEST PUSH1 0x40 DUP6 ADD MSTORE PUSH1 0x60 DUP3 ADD MLOAD PUSH1 0x1 PUSH1 0x1 PUSH1 0xA0 SHL SUB DUP2 AND DUP2 SUB PUSH2 0x1BB JUMPI PUSH1 0x60 DUP6 ADD MSTORE PUSH1 0x80 DUP3 ADD MLOAD PUSH1 0x80 DUP6 ADD MSTORE PUSH1 0xA0 DUP3 ADD MLOAD SWAP1 DUP2 GT PUSH2 0x1BB JUMPI PUSH1 0xC0 SWAP3 PUSH2 0x2006 SWAP2 DUP4 ADD PUSH2 0x1F1C JUMP JUMPDEST PUSH1 0xA0 DUP5 ADD MSTORE ADD MLOAD DUP1 ISZERO ISZERO DUP2 SUB PUSH2 0x1BB JUMPI PUSH1 0xC0 DUP3 ADD MSTORE SWAP1 JUMP JUMPDEST ISZERO PUSH2 0x2025 JUMPI JUMP JUMPDEST PUSH1 0x40 MLOAD PUSH3 0x461BCD PUSH1 0xE5 SHL DUP2 MSTORE PUSH1 0x20 PUSH1 0x4 DUP3 ADD MSTORE PUSH1 0x2B PUSH1 0x24 DUP3 ADD MSTORE PUSH32 0x4E4654436C61696D3A20557365722068617320616C726561647920636C61696D PUSH1 0x44 DUP3 ADD MSTORE PUSH11 0x1959081D1A1A5CC8139195 PUSH1 0xAA SHL PUSH1 0x64 DUP3 ADD MSTORE PUSH1 0x84 SWAP1 REVERT JUMPDEST PUSH1 0x0 NOT DUP2 EQ PUSH2 0xEF9 JUMPI PUSH1 0x1 ADD SWAP1 JUMP JUMPDEST ISZERO PUSH2 0x2094 JUMPI JUMP JUMPDEST PUSH1 0x40 MLOAD PUSH3 0x461BCD PUSH1 0xE5 SHL DUP2 MSTORE PUSH1 0x20 PUSH1 0x4 DUP3 ADD MSTORE PUSH1 0x1C PUSH1 0x24 DUP3 ADD MSTORE PUSH32 0x4552433732313A20746F6B656E20616C7265616479206D696E74656400000000 PUSH1 0x44 DUP3 ADD MSTORE PUSH1 0x64 SWAP1 REVERT JUMPDEST PUSH1 0x1 PUSH1 0x1 PUSH1 0xA0 SHL SUB AND DUP1 ISZERO PUSH2 0x2189 JUMPI PUSH1 0x0 DUP3 DUP2 MSTORE PUSH1 0x2 PUSH1 0x20 MSTORE PUSH1 0x40 SWAP1 KECCAK256 SLOAD PUSH2 0x210D SWAP1 PUSH1 0x1 PUSH1 0x1 PUSH1 0xA0 SHL SUB AND ISZERO ISZERO JUMPDEST ISZERO PUSH2 0x208D JUMP JUMPDEST PUSH1 0x0 DUP3 DUP2 MSTORE PUSH1 0x2 PUSH1 0x20 MSTORE PUSH1 0x40 SWAP1 KECCAK256 SLOAD PUSH2 0x2130 SWAP1 PUSH1 0x1 PUSH1 0x1 PUSH1 0xA0 SHL SUB AND ISZERO ISZERO PUSH2 0x2107 JUMP JUMPDEST PUSH1 0x0 DUP2 DUP2 MSTORE PUSH1 0x3 PUSH1 0x20 MSTORE PUSH1 0x40 DUP2 KECCAK256 PUSH1 0x1 DUP2 SLOAD ADD SWAP1 SSTORE DUP3 DUP2 MSTORE PUSH1 0x2 PUSH1 0x20 MSTORE PUSH1 0x40 DUP2 KECCAK256 DUP3 PUSH1 0x1 PUSH1 0x1 PUSH1 0x60 SHL SUB PUSH1 0xA0 SHL DUP3 SLOAD AND OR SWAP1 SSTORE PUSH32 0xDDF252AD1BE2C89B69C2B068FC378DAA952BA7F163C4A11628F55A4DF523B3EF DUP2 DUP1 LOG4 JUMP JUMPDEST PUSH1 0x64 PUSH1 0x40 MLOAD PUSH3 0x461BCD PUSH1 0xE5 SHL DUP2 MSTORE PUSH1 0x20 PUSH1 0x4 DUP3 ADD MSTORE PUSH1 0x20 PUSH1 0x24 DUP3 ADD MSTORE PUSH32 0x4552433732313A206D696E7420746F20746865207A65726F2061646472657373 PUSH1 0x44 DUP3 ADD MSTORE REVERT JUMPDEST PUSH1 0x0 DUP2 DUP2 MSTORE PUSH1 0x2 PUSH1 0x20 MSTORE PUSH1 0x40 SWAP1 KECCAK256 SLOAD SWAP2 SWAP3 SWAP2 PUSH1 0x1 PUSH1 0x1 PUSH1 0xA0 SHL SUB AND ISZERO PUSH2 0x2360 JUMPI PUSH1 0x0 SWAP1 DUP1 DUP3 MSTORE PUSH1 0x20 SWAP2 PUSH1 0x6 DUP4 MSTORE PUSH1 0x40 DUP2 KECCAK256 SWAP1 DUP6 MLOAD SWAP1 PUSH8 0xFFFFFFFFFFFFFFFF DUP3 GT PUSH2 0x234C JUMPI PUSH2 0x221B DUP4 SLOAD PUSH2 0x1939 JUMP JUMPDEST PUSH1 0x1F DUP2 GT PUSH2 0x2309 JUMPI JUMPDEST POP DUP5 SWAP1 PUSH1 0x1F DUP4 GT PUSH1 0x1 EQ PUSH2 0x2285 JUMPI SWAP1 PUSH32 0xF8E1A15ABA9398E019F0B49DF1A4FDE98EE17AE345CB5F6B5E2C27F5033E8CE7 SWAP7 SWAP8 DUP4 PUSH2 0x227A JUMPI JUMPDEST POP POP DUP2 PUSH1 0x1 SHL SWAP2 PUSH1 0x0 NOT SWAP1 PUSH1 0x3 SHL SHR NOT AND OR SWAP1 SSTORE JUMPDEST PUSH1 0x40 MLOAD SWAP1 DUP2 MSTORE LOG1 JUMP JUMPDEST ADD MLOAD SWAP1 POP CODESIZE DUP1 PUSH2 0x225C JUMP JUMPDEST SWAP2 SWAP7 PUSH1 0x1F NOT DUP9 AND DUP5 DUP5 MSTORE DUP7 DUP5 KECCAK256 SWAP4 JUMPDEST DUP2 DUP2 LT PUSH2 0x22F2 JUMPI POP SWAP2 PUSH1 0x1 SWAP4 SWAP2 DUP10 PUSH32 0xF8E1A15ABA9398E019F0B49DF1A4FDE98EE17AE345CB5F6B5E2C27F5033E8CE7 SWAP10 SWAP11 SWAP5 LT PUSH2 0x22D9 JUMPI JUMPDEST POP POP POP DUP2 SHL ADD SWAP1 SSTORE PUSH2 0x2271 JUMP JUMPDEST ADD MLOAD PUSH1 0x0 NOT PUSH1 0xF8 DUP5 PUSH1 0x3 SHL AND SHR NOT AND SWAP1 SSTORE CODESIZE DUP1 DUP1 PUSH2 0x22CC JUMP JUMPDEST SWAP3 SWAP4 DUP8 PUSH1 0x1 DUP2 SWAP3 DUP8 DUP7 ADD MLOAD DUP2 SSTORE ADD SWAP6 ADD SWAP4 ADD PUSH2 0x2294 JUMP JUMPDEST DUP4 DUP3 MSTORE DUP6 DUP3 KECCAK256 PUSH1 0x1F DUP5 ADD PUSH1 0x5 SHR DUP2 ADD SWAP2 DUP8 DUP6 LT PUSH2 0x2342 JUMPI JUMPDEST PUSH1 0x1F ADD PUSH1 0x5 SHR ADD SWAP1 JUMPDEST DUP2 DUP2 LT PUSH2 0x2337 JUMPI POP PUSH2 0x2224 JUMP JUMPDEST DUP3 DUP2 SSTORE PUSH1 0x1 ADD PUSH2 0x232A JUMP JUMPDEST SWAP1 SWAP2 POP DUP2 SWAP1 PUSH2 0x2321 JUMP JUMPDEST PUSH4 0x4E487B71 PUSH1 0xE0 SHL DUP2 MSTORE PUSH1 0x41 PUSH1 0x4 MSTORE PUSH1 0x24 SWAP1 REVERT JUMPDEST PUSH1 0x40 MLOAD PUSH3 0x461BCD PUSH1 0xE5 SHL DUP2 MSTORE PUSH1 0x20 PUSH1 0x4 DUP3 ADD MSTORE PUSH1 0x2E PUSH1 0x24 DUP3 ADD MSTORE PUSH32 0x45524337323155524953746F726167653A2055524920736574206F66206E6F6E PUSH1 0x44 DUP3 ADD MSTORE PUSH14 0x32BC34B9BA32B73A103A37B5B2B7 PUSH1 0x91 SHL PUSH1 0x64 DUP3 ADD MSTORE PUSH1 0x84 SWAP1 REVERT JUMPDEST PUSH1 0x5 DUP2 LT ISZERO PUSH2 0x24C0 JUMPI DUP1 PUSH2 0x23CD JUMPI POP JUMP JUMPDEST PUSH1 0x1 DUP2 SUB PUSH2 0x241A JUMPI PUSH1 0x40 MLOAD PUSH3 0x461BCD PUSH1 0xE5 SHL DUP2 MSTORE PUSH1 0x20 PUSH1 0x4 DUP3 ADD MSTORE PUSH1 0x18 PUSH1 0x24 DUP3 ADD MSTORE PUSH32 0x45434453413A20696E76616C6964207369676E61747572650000000000000000 PUSH1 0x44 DUP3 ADD MSTORE PUSH1 0x64 SWAP1 REVERT JUMPDEST PUSH1 0x2 DUP2 SUB PUSH2 0x2467 JUMPI PUSH1 0x40 MLOAD PUSH3 0x461BCD PUSH1 0xE5 SHL DUP2 MSTORE PUSH1 0x20 PUSH1 0x4 DUP3 ADD MSTORE PUSH1 0x1F PUSH1 0x24 DUP3 ADD MSTORE PUSH32 0x45434453413A20696E76616C6964207369676E6174757265206C656E67746800 PUSH1 0x44 DUP3 ADD MSTORE PUSH1 0x64 SWAP1 REVERT JUMPDEST PUSH1 0x3 EQ PUSH2 0x2470 JUMPI JUMP JUMPDEST PUSH1 0x40 MLOAD PUSH3 0x461BCD PUSH1 0xE5 SHL DUP2 MSTORE PUSH1 0x20 PUSH1 0x4 DUP3 ADD MSTORE PUSH1 0x22 PUSH1 0x24 DUP3 ADD MSTORE PUSH32 0x45434453413A20696E76616C6964207369676E6174757265202773272076616C PUSH1 0x44 DUP3 ADD MSTORE PUSH2 0x7565 PUSH1 0xF0 SHL PUSH1 0x64 DUP3 ADD MSTORE PUSH1 0x84 SWAP1 REVERT JUMPDEST PUSH4 0x4E487B71 PUSH1 0xE0 SHL PUSH1 0x0 MSTORE PUSH1 0x21 PUSH1 0x4 MSTORE PUSH1 0x24 PUSH1 0x0 REVERT JUMPDEST SWAP1 PUSH1 0x41 DUP2 MLOAD EQ PUSH1 0x0 EQ PUSH2 0x2504 JUMPI PUSH2 0x2500 SWAP2 PUSH1 0x20 DUP3 ADD MLOAD SWAP1 PUSH1 0x60 PUSH1 0x40 DUP5 ADD MLOAD SWAP4 ADD MLOAD PUSH1 0x0 BYTE SWAP1 PUSH2 0x250E JUMP JUMPDEST SWAP1 SWAP2 JUMP JUMPDEST POP POP PUSH1 0x0 SWAP1 PUSH1 0x2 SWAP1 JUMP JUMPDEST SWAP3 SWAP2 SWAP1 PUSH32 0x7FFFFFFFFFFFFFFFFFFFFFFFFFFFFFFF5D576E7357A4501DDFE92F46681B20A0 DUP4 GT PUSH2 0x2591 JUMPI SWAP2 PUSH1 0x80 SWAP5 SWAP4 SWAP2 PUSH1 0xFF PUSH1 0x20 SWAP5 PUSH1 0x40 MLOAD SWAP5 DUP6 MSTORE AND DUP5 DUP5 ADD MSTORE PUSH1 0x40 DUP4 ADD MSTORE PUSH1 0x60 DUP3 ADD MSTORE PUSH1 0x0 SWAP4 DUP5 SWAP2 DUP3 DUP1 MSTORE PUSH1 0x1 GAS STATICCALL ISZERO PUSH2 0x2584 JUMPI DUP2 MLOAD PUSH1 0x1 PUSH1 0x1 PUSH1 0xA0 SHL SUB DUP2 AND ISZERO PUSH2 0x257E JUMPI SWAP2 SWAP1 JUMP JUMPDEST POP PUSH1 0x1 SWAP1 JUMP JUMPDEST POP PUSH1 0x40 MLOAD SWAP1 RETURNDATASIZE SWAP1 DUP3 RETURNDATACOPY RETURNDATASIZE SWAP1 REVERT JUMPDEST POP POP POP POP PUSH1 0x0 SWAP1 PUSH1 0x3 SWAP1 JUMP JUMPDEST DUP2 DUP2 SUB SWAP3 SWAP2 PUSH1 0x0 SGT DUP1 ISZERO DUP3 DUP6 SGT AND SWAP2 DUP5 SLT AND OR PUSH2 0xEF9 JUMPI JUMP INVALID LOG2 PUSH5 0x6970667358 0x22 SLT KECCAK256 0xB4 0x24 0x27 0xC6 DUP14 0xC4 0x22 0xC SWAP5 SSTORE 0xD4 CREATE 0xC CALL MOD 0x4D SAR PUSH19 0x602484D38389489F22C96A5BAF664736F6C63 NUMBER STOP ADDMOD SGT STOP CALLER "},"methodIdentifiers":{"LOCATION_TOLERANCE()":"7fde3761","approve(address,uint256)":"095ea7b3","balanceOf(address)":"70a08231","claimData(uint256)":"c6f0308c","claimNFT(uint256,string,int256,int256,uint256,bytes)":"4e0a9927","claimTokenByOrder(uint256,uint256)":"39d40ec4","emergencyClaim(uint256,address,string)":"05289552","geoTaggedNFTContract()":"c29bb1dc","getApproved(uint256)":"081812fc","getClaimData(uint256)":"1afce6e9","getClaimTokenByOrder(uint256,uint256)":"c4a9c1f0","getTotalClaims(uint256)":"54903f46","hasClaimed(uint256,address)":"873f6f9e","hasUserClaimed(uint256,address)":"07c7a72d","isApprovedForAll(address,address)":"e985e9c5","name()":"06fdde03","owner()":"8da5cb5b","ownerOf(uint256)":"6352211e","renounceOwnership()":"715018a6","safeTransferFrom(address,address,uint256)":"42842e0e","safeTransferFrom(address,address,uint256,bytes)":"b88d4fde","setApprovalForAll(address,bool)":"a22cb465","setVerificationSigner(address)":"71364b8b","supportsInterface(bytes4)":"01ffc9a7","symbol()":"95d89b41","tokenURI(uint256)":"c87b56dd","totalClaims(uint256)":"bbc538fb","totalSupply()":"18160ddd","transferFrom(address,address,uint256)":"23b872dd","transferOwnership(address)":"f2fde38b","updateGeoTaggedNFTContract(address)":"77c7794f","usedSignatures(bytes32)":"f978fd61","verificationSigner()":"ba92c799"}}}}}