{
  "_format": "hh-sol-artifact-1",
  "contractName": "NFTClaimContract",
  "sourceName": "contracts/NFTClaimContract.sol",
  "abi": [
    {
      "inputs": [
        {
          "internalType": "address",
          "name": "_geoTaggedNFTContract",
          "type": "address"
        }
      ],
      "stateMutability": "nonpayable",
      "type": "constructor"
    },
    {
      "anonymous": false,
      "inputs": [
        {
          "indexed": true,
          "internalType": "address",
          "name": "owner",
          "type": "address"
        },
        {
          "indexed": true,
          "internalType": "address",
          "name": "approved",
          "type": "address"
        },
        {
          "indexed": true,
          "internalType": "uint256",
          "name": "tokenId",
          "type": "uint256"
        }
      ],
      "name": "Approval",
      "type": "event"
    },
    {
      "anonymous": false,
      "inputs": [
        {
          "indexed": true,
          "internalType": "address",
          "name": "owner",
          "type": "address"
        },
        {
          "indexed": true,
          "internalType": "address",
          "name": "operator",
          "type": "address"
        },
        {
          "indexed": false,
          "internalType": "bool",
          "name": "approved",
          "type": "bool"
        }
      ],
      "name": "ApprovalForAll",
      "type": "event"
    },
    {
      "anonymous": false,
      "inputs": [
        {
          "indexed": false,
          "internalType": "uint256",
          "name": "_fromTokenId",
          "type": "uint256"
        },
        {
          "indexed": false,
          "internalType": "uint256",
          "name": "_toTokenId",
          "type": "uint256"
        }
      ],
      "name": "BatchMetadataUpdate",
      "type": "event"
    },
    {
      "anonymous": false,
      "inputs": [
        {
          "indexed": true,
          "internalType": "address",
          "name": "oldContract",
          "type": "address"
        },
        {
          "indexed": true,
          "internalType": "address",
          "name": "newContract",
          "type": "address"
        }
      ],
      "name": "ClaimContractUpdated",
      "type": "event"
    },
    {
      "anonymous": false,
      "inputs": [
        {
          "indexed": false,
          "internalType": "uint256",
          "name": "_tokenId",
          "type": "uint256"
        }
      ],
      "name": "MetadataUpdate",
      "type": "event"
    },
    {
      "anonymous": false,
      "inputs": [
        {
          "indexed": true,
          "internalType": "uint256",
          "name": "claimTokenId",
          "type": "uint256"
        },
        {
          "indexed": true,
          "internalType": "uint256",
          "name": "originalTokenId",
          "type": "uint256"
        },
        {
          "indexed": true,
          "internalType": "address",
          "name": "claimer",
          "type": "address"
        },
        {
          "indexed": false,
          "internalType": "uint256",
          "name": "claimOrder",
          "type": "uint256"
        },
        {
          "indexed": false,
          "internalType": "uint256",
          "name": "timestamp",
          "type": "uint256"
        }
      ],
      "name": "NFTClaimed",
      "type": "event"
    },
    {
      "anonymous": false,
      "inputs": [
        {
          "indexed": true,
          "internalType": "address",
          "name": "previousOwner",
          "type": "address"
        },
        {
          "indexed": true,
          "internalType": "address",
          "name": "newOwner",
          "type": "address"
        }
      ],
      "name": "OwnershipTransferred",
      "type": "event"
    },
    {
      "anonymous": false,
      "inputs": [
        {
          "indexed": true,
          "internalType": "address",
          "name": "from",
          "type": "address"
        },
        {
          "indexed": true,
          "internalType": "address",
          "name": "to",
          "type": "address"
        },
        {
          "indexed": true,
          "internalType": "uint256",
          "name": "tokenId",
          "type": "uint256"
        }
      ],
      "name": "Transfer",
      "type": "event"
    },
    {
      "inputs": [],
      "name": "LOCATION_TOLERANCE",
      "outputs": [
        {
          "internalType": "uint256",
          "name": "",
          "type": "uint256"
        }
      ],
      "stateMutability": "view",
      "type": "function"
    },
    {
      "inputs": [
        {
          "internalType": "address",
          "name": "to",
          "type": "address"
        },
        {
          "internalType": "uint256",
          "name": "tokenId",
          "type": "uint256"
        }
      ],
      "name": "approve",
      "outputs": [],
      "stateMutability": "nonpayable",
      "type": "function"
    },
    {
      "inputs": [
        {
          "internalType": "address",
          "name": "owner",
          "type": "address"
        }
      ],
      "name": "balanceOf",
      "outputs": [
        {
          "internalType": "uint256",
          "name": "",
          "type": "uint256"
        }
      ],
      "stateMutability": "view",
      "type": "function"
    },
    {
      "inputs": [
        {
          "internalType": "uint256",
          "name": "",
          "type": "uint256"
        }
      ],
      "name": "claimData",
      "outputs": [
        {
          "internalType": "uint256",
          "name": "originalTokenId",
          "type": "uint256"
        },
        {
          "internalType": "address",
          "name": "claimer",
          "type": "address"
        },
        {
          "internalType": "uint256",
          "name": "claimedAt",
          "type": "uint256"
        },
        {
          "internalType": "uint256",
          "name": "claimOrder",
          "type": "uint256"
        },
        {
          "internalType": "string",
          "name": "claimLocation",
          "type": "string"
        },
        {
          "internalType": "bool",
          "name": "verified",
          "type": "bool"
        }
      ],
      "stateMutability": "view",
      "type": "function"
    },
    {
      "inputs": [
        {
          "internalType": "uint256",
          "name": "originalTokenId",
          "type": "uint256"
        },
        {
          "internalType": "string",
          "name": "claimMetadataURI",
          "type": "string"
        },
        {
          "internalType": "int256",
          "name": "userLatitude",
          "type": "int256"
        },
        {
          "internalType": "int256",
          "name": "userLongitude",
          "type": "int256"
        },
        {
          "internalType": "uint256",
          "name": "timestamp",
          "type": "uint256"
        },
        {
          "internalType": "bytes",
          "name": "signature",
          "type": "bytes"
        }
      ],
      "name": "claimNFT",
      "outputs": [
        {
          "internalType": "uint256",
          "name": "",
          "type": "uint256"
        }
      ],
      "stateMutability": "nonpayable",
      "type": "function"
    },
    {
      "inputs": [
        {
          "internalType": "uint256",
          "name": "",
          "type": "uint256"
        },
        {
          "internalType": "uint256",
          "name": "",
          "type": "uint256"
        }
      ],
      "name": "claimTokenByOrder",
      "outputs": [
        {
          "internalType": "uint256",
          "name": "",
          "type": "uint256"
        }
      ],
      "stateMutability": "view",
      "type": "function"
    },
    {
      "inputs": [
        {
          "internalType": "uint256",
          "name": "originalTokenId",
          "type": "uint256"
        },
        {
          "internalType": "address",
          "name": "claimer",
          "type": "address"
        },
        {
          "internalType": "string",
          "name": "claimMetadataURI",
          "type": "string"
        }
      ],
      "name": "emergencyClaim",
      "outputs": [
        {
          "internalType": "uint256",
          "name": "",
          "type": "uint256"
        }
      ],
      "stateMutability": "nonpayable",
      "type": "function"
    },
    {
      "inputs": [],
      "name": "geoTaggedNFTContract",
      "outputs": [
        {
          "internalType": "contract IGeoTaggedNFT",
          "name": "",
          "type": "address"
        }
      ],
      "stateMutability": "view",
      "type": "function"
    },
    {
      "inputs": [
        {
          "internalType": "uint256",
          "name": "tokenId",
          "type": "uint256"
        }
      ],
      "name": "getApproved",
      "outputs": [
        {
          "internalType": "address",
          "name": "",
          "type": "address"
        }
      ],
      "stateMutability": "view",
      "type": "function"
    },
    {
      "inputs": [
        {
          "internalType": "uint256",
          "name": "claimTokenId",
          "type": "uint256"
        }
      ],
      "name": "getClaimData",
      "outputs": [
        {
          "components": [
            {
              "internalType": "uint256",
              "name": "originalTokenId",
              "type": "uint256"
            },
            {
              "internalType": "address",
              "name": "claimer",
              "type": "address"
            },
            {
              "internalType": "uint256",
              "name": "claimedAt",
              "type": "uint256"
            },
            {
              "internalType": "uint256",
              "name": "claimOrder",
              "type": "uint256"
            },
            {
              "internalType": "string",
              "name": "claimLocation",
              "type": "string"
            },
            {
              "internalType": "bool",
              "name": "verified",
              "type": "bool"
            }
          ],
          "internalType": "struct NFTClaimContract.ClaimData",
          "name": "",
          "type": "tuple"
        }
      ],
      "stateMutability": "view",
      "type": "function"
    },
    {
      "inputs": [
        {
          "internalType": "uint256",
          "name": "originalTokenId",
          "type": "uint256"
        },
        {
          "internalType": "uint256",
          "name": "order",
          "type": "uint256"
        }
      ],
      "name": "getClaimTokenByOrder",
      "outputs": [
        {
          "internalType": "uint256",
          "name": "",
          "type": "uint256"
        }
      ],
      "stateMutability": "view",
      "type": "function"
    },
    {
      "inputs": [
        {
          "internalType": "uint256",
          "name": "originalTokenId",
          "type": "uint256"
        }
      ],
      "name": "getTotalClaims",
      "outputs": [
        {
          "internalType": "uint256",
          "name": "",
          "type": "uint256"
        }
      ],
      "stateMutability": "view",
      "type": "function"
    },
    {
      "inputs": [
        {
          "internalType": "uint256",
          "name": "",
          "type": "uint256"
        },
        {
          "internalType": "address",
          "name": "",
          "type": "address"
        }
      ],
      "name": "hasClaimed",
      "outputs": [
        {
          "internalType": "bool",
          "name": "",
          "type": "bool"
        }
      ],
      "stateMutability": "view",
      "type": "function"
    },
    {
      "inputs": [
        {
          "internalType": "uint256",
          "name": "originalTokenId",
          "type": "uint256"
        },
        {
          "internalType": "address",
          "name": "user",
          "type": "address"
        }
      ],
      "name": "hasUserClaimed",
      "outputs": [
        {
          "internalType": "bool",
          "name": "",
          "type": "bool"
        }
      ],
      "stateMutability": "view",
      "type": "function"
    },
    {
      "inputs": [
        {
          "internalType": "address",
          "name": "owner",
          "type": "address"
        },
        {
          "internalType": "address",
          "name": "operator",
          "type": "address"
        }
      ],
      "name": "isApprovedForAll",
      "outputs": [
        {
          "internalType": "bool",
          "name": "",
          "type": "bool"
        }
      ],
      "stateMutability": "view",
      "type": "function"
    },
    {
      "inputs": [],
      "name": "name",
      "outputs": [
        {
          "internalType": "string",
          "name": "",
          "type": "string"
        }
      ],
      "stateMutability": "view",
      "type": "function"
    },
    {
      "inputs": [],
      "name": "owner",
      "outputs": [
        {
          "internalType": "address",
          "name": "",
          "type": "address"
        }
      ],
      "stateMutability": "view",
      "type": "function"
    },
    {
      "inputs": [
        {
          "internalType": "uint256",
          "name": "tokenId",
          "type": "uint256"
        }
      ],
      "name": "ownerOf",
      "outputs": [
        {
          "internalType": "address",
          "name": "",
          "type": "address"
        }
      ],
      "stateMutability": "view",
      "type": "function"
    },
    {
      "inputs": [],
      "name": "renounceOwnership",
      "outputs": [],
      "stateMutability": "nonpayable",
      "type": "function"
    },
    {
      "inputs": [
        {
          "internalType": "address",
          "name": "from",
          "type": "address"
        },
        {
          "internalType": "address",
          "name": "to",
          "type": "address"
        },
        {
          "internalType": "uint256",
          "name": "tokenId",
          "type": "uint256"
        }
      ],
      "name": "safeTransferFrom",
      "outputs": [],
      "stateMutability": "nonpayable",
      "type": "function"
    },
    {
      "inputs": [
        {
          "internalType": "address",
          "name": "from",
          "type": "address"
        },
        {
          "internalType": "address",
          "name": "to",
          "type": "address"
        },
        {
          "internalType": "uint256",
          "name": "tokenId",
          "type": "uint256"
        },
        {
          "internalType": "bytes",
          "name": "data",
          "type": "bytes"
        }
      ],
      "name": "safeTransferFrom",
      "outputs": [],
      "stateMutability": "nonpayable",
      "type": "function"
    },
    {
      "inputs": [
        {
          "internalType": "address",
          "name": "operator",
          "type": "address"
        },
        {
          "internalType": "bool",
          "name": "approved",
          "type": "bool"
        }
      ],
      "name": "setApprovalForAll",
      "outputs": [],
      "stateMutability": "nonpayable",
      "type": "function"
    },
    {
      "inputs": [
        {
          "internalType": "address",
          "name": "_verificationSigner",
          "type": "address"
        }
      ],
      "name": "setVerificationSigner",
      "outputs": [],
      "stateMutability": "nonpayable",
      "type": "function"
    },
    {
      "inputs": [
        {
          "internalType": "bytes4",
          "name": "interfaceId",
          "type": "bytes4"
        }
      ],
      "name": "supportsInterface",
      "outputs": [
        {
          "internalType": "bool",
          "name": "",
          "type": "bool"
        }
      ],
      "stateMutability": "view",
      "type": "function"
    },
    {
      "inputs": [],
      "name": "symbol",
      "outputs": [
        {
          "internalType": "string",
          "name": "",
          "type": "string"
        }
      ],
      "stateMutability": "view",
      "type": "function"
    },
    {
      "inputs": [
        {
          "internalType": "uint256",
          "name": "tokenId",
          "type": "uint256"
        }
      ],
      "name": "tokenURI",
      "outputs": [
        {
          "internalType": "string",
          "name": "",
          "type": "string"
        }
      ],
      "stateMutability": "view",
      "type": "function"
    },
    {
      "inputs": [
        {
          "internalType": "uint256",
          "name": "",
          "type": "uint256"
        }
      ],
      "name": "totalClaims",
      "outputs": [
        {
          "internalType": "uint256",
          "name": "",
          "type": "uint256"
        }
      ],
      "stateMutability": "view",
      "type": "function"
    },
    {
      "inputs": [],
      "name": "totalSupply",
      "outputs": [
        {
          "internalType": "uint256",
          "name": "",
          "type": "uint256"
        }
      ],
      "stateMutability": "view",
      "type": "function"
    },
    {
      "inputs": [
        {
          "internalType": "address",
          "name": "from",
          "type": "address"
        },
        {
          "internalType": "address",
          "name": "to",
          "type": "address"
        },
        {
          "internalType": "uint256",
          "name": "tokenId",
          "type": "uint256"
        }
      ],
      "name": "transferFrom",
      "outputs": [],
      "stateMutability": "nonpayable",
      "type": "function"
    },
    {
      "inputs": [
        {
          "internalType": "address",
          "name": "newOwner",
          "type": "address"
        }
      ],
      "name": "transferOwnership",
      "outputs": [],
      "stateMutability": "nonpayable",
      "type": "function"
    },
    {
      "inputs": [
        {
          "internalType": "address",
          "name": "_newContract",
          "type": "address"
        }
      ],
      "name": "updateGeoTaggedNFTContract",
      "outputs": [],
      "stateMutability": "nonpayable",
      "type": "function"
    },
    {
      "inputs": [
        {
          "internalType": "bytes32",
          "name": "",
          "type": "bytes32"
        }
      ],
      "name": "usedSignatures",
      "outputs": [
        {
          "internalType": "bool",
          "name": "",
          "type": "bool"
        }
      ],
      "stateMutability": "view",
      "type": "function"
    },
    {
      "inputs": [],
      "name": "verificationSigner",
      "outputs": [
        {
          "internalType": "address",
          "name": "",
          "type": "address"
        }
      ],
      "stateMutability": "view",
      "type": "function"
    }
  ],
  "bytecode": "0x608034620003c257601f90601f19906001600160401b0390620029d4388190038581018516830184811184821017620003ac57839282916040528339602092839181010312620003c257516001600160a01b03948582169391849003620003c2576200006a620003c7565b92601484527f43757272656e7420436c61696d20546f6b656e73000000000000000000000000818501526200009e620003c7565b906005825264434c41494d60d81b81830152845196848811620003ac576000978854966001978881811c91168015620003a1575b858210146200038d579081878493116200033a575b508490878311600114620002d9578b92620002cd575b5050600019600383901b1c191690871b1788555b8251948511620002b95785548681811c91168015620002ae575b838210146200029a5790818587969594931162000241575b5081938511600114620001dc5750508692620001d0575b5050600019600383901b1c191690821b1781555b60075460018060a01b03199333858316176007557f8be0079c531659141344cd1fd0a4f28419497f9722a3daafe3b4186f6b6457e0604051963393169180a360085581600a541617600a55339060105416176010556125ec9081620003e88239f35b0151905038806200015a565b869593929193168589528389209389905b8282106200022757505084116200020d575b505050811b0181556200016e565b015160001960f88460031b161c19169055388080620001ff565b8484015186558897909501949384019390810190620001ed565b9091929394508689528289208580880160051c82019285891062000290575b9188978a9297969594930160051c01915b8281106200028157505062000143565b8b815588975089910162000271565b9250819262000260565b634e487b7160e01b89526022600452602489fd5b90607f16906200012b565b634e487b7160e01b88526041600452602488fd5b015190503880620000fd565b90848a9416918c8052868d20928d5b8882821062000323575050841162000309575b505050811b01885562000111565b015160001960f88460031b161c19169055388080620002fb565b8385015186558d97909501949384019301620002e8565b9091508a8052848b208780850160051c82019287861062000383575b918b91869594930160051c01915b82811062000374575050620000e7565b8d81558594508b910162000364565b9250819262000356565b634e487b7160e01b8b52602260045260248bfd5b90607f1690620000d2565b634e487b7160e01b600052604160045260246000fd5b600080fd5b60408051919082016001600160401b03811183821017620003ac5760405256fe608080604052600436101561001357600080fd5b60003560e01c90816301ffc9a7146117385750806305289552146113ec57806306fdde031461134957806307c7a72d146106bd578063081812fc1461132b578063095ea7b3146111b157806318160ddd146111935780631afce6e91461102857806323b872dd14610fff57806339d40ec4146103d857806342842e0e14610fd75780634e0a9927146108f757806354903f46146104345780636352211e146108c757806370a082311461083057806371364b8b146107ed578063715018a61461079057806377c7794f146107265780637fde37611461070a578063873f6f9e146106bd5780638da5cb5b1461069457806395d89b41146105b5578063a22cb465146104da578063b88d4fde14610489578063ba92c79914610460578063bbc538fb14610434578063c29bb1dc1461040b578063c4a9c1f0146103d8578063c6f0308c14610350578063c87b56dd146102da578063e985e9c514610284578063f2fde38b146101c05763f978fd611461018a57600080fd5b346101bb5760203660031901126101bb57600435600052600f602052602060ff604060002054166040519015158152f35b600080fd5b346101bb5760203660031901126101bb576101d96117d3565b6101e1611a19565b6001600160a01b0390811690811561023057600754826001600160601b0360a01b821617600755167f8be0079c531659141344cd1fd0a4f28419497f9722a3daafe3b4186f6b6457e0600080a3005b60405162461bcd60e51b815260206004820152602660248201527f4f776e61626c653a206e6577206f776e657220697320746865207a65726f206160448201526564647265737360d01b6064820152608490fd5b346101bb5760403660031901126101bb5761029d6117d3565b6102a56117bd565b9060018060a01b03809116600052600560205260406000209116600052602052602060ff604060002054166040519015158152f35b346101bb5760203660031901126101bb57600435600081815260026020526040902054610311906001600160a01b03161515611a71565b600052600660205261034c6103296040600020611973565b600060405161033781611805565b526040519182916020835260208301906118c9565b0390f35b346101bb5760203660031901126101bb57600435600052600b6020526040600020805460018060a01b03600183015416916103cc600282015491600381015460ff600561039f60048501611973565b9301541693604051968796875260208701526040860152606085015260c0608085015260c08401906118c9565b90151560a08301520390f35b346101bb576103e636611923565b90600052600e6020526040600020906000526020526020604060002054604051908152f35b346101bb5760003660031901126101bb57600a546040516001600160a01b039091168152602090f35b346101bb5760203660031901126101bb57600435600052600c6020526020604060002054604051908152f35b346101bb5760003660031901126101bb576010546040516001600160a01b039091168152602090f35b346101bb5760803660031901126101bb576104a26117d3565b6104aa6117bd565b6064359167ffffffffffffffff83116101bb576104ce6104d893369060040161185f565b9160443591611b83565b005b346101bb5760403660031901126101bb576104f36117d3565b60243590811515908183036101bb576001600160a01b031691338314610570576105429033600052600560205260406000208460005260205260406000209060ff801983541691151516179055565b6040519081527f17307eab39ab6107e8899845ad3d59bd9653f200f220920489ca2b5937696c3160203392a3005b60405162461bcd60e51b815260206004820152601960248201527f4552433732313a20617070726f766520746f2063616c6c6572000000000000006044820152606490fd5b346101bb5760003660031901126101bb57604051600060018054906105d982611939565b8085529181811690811561066d5750600114610614575b61034c8461060081860382611821565b6040519182916020835260208301906118c9565b600081815292507fb10e2d527612073b26eecdfd717e6a320cf44b4afac2b0732d9fcbe2b7fa0cf65b828410610655575050508101602001610600826105f0565b8054602085870181019190915290930192810161063d565b60ff191660208087019190915292151560051b8501909201925061060091508390506105f0565b346101bb5760003660031901126101bb576007546040516001600160a01b039091168152602090f35b346101bb5760403660031901126101bb576106d66117bd565b600435600052600d60205260406000209060018060a01b0316600052602052602060ff604060002054166040519015158152f35b346101bb5760003660031901126101bb57602060405160648152f35b346101bb5760203660031901126101bb5761073f6117d3565b610747611a19565b600a80546001600160a01b039283166001600160a01b0319821681179092559091167ff86b5de3fae5d5998dccfd7996efa6f426ba2f69659e888427ffb2ef9135380b600080a3005b346101bb5760003660031901126101bb576107a9611a19565b600780546001600160a01b031981169091556000906001600160a01b03167f8be0079c531659141344cd1fd0a4f28419497f9722a3daafe3b4186f6b6457e08280a3005b346101bb5760203660031901126101bb576108066117d3565b61080e611a19565b601080546001600160a01b0319166001600160a01b0392909216919091179055005b346101bb5760203660031901126101bb576001600160a01b036108516117d3565b1680156108705760005260036020526020604060002054604051908152f35b60405162461bcd60e51b815260206004820152602960248201527f4552433732313a2061646472657373207a65726f206973206e6f7420612076616044820152683634b21037bbb732b960b91b6064820152608490fd5b346101bb5760203660031901126101bb5760206108e5600435611abd565b6040516001600160a01b039091168152f35b346101bb5760c03660031901126101bb5760243567ffffffffffffffff81116101bb5761092890369060040161185f565b60649081359160a43567ffffffffffffffff81116101bb5761094e90369060040161185f565b600260085414610f94576002600855600a5460405163d305485d60e01b81526004803590820152939490600090859060249082906001600160a01b03165afa938415610f8857600094610f63575b5060c084015115610f0f57600435600052600d6020526040600020336000526020526109d060ff604060002054161561201e565b608435916102588301808411610ef9574211610eab57604051602081019060043582523360601b604082015260443594856054830152846074830152609482015260948152610a1e816117e9565b5190207f19457468657265756d205369676e6564204d6573736167653a0a333200000000600052601c52603c6000209081600052600f60205260ff60406000205416610e6857610a71610a7991836124d6565b9190916123bc565b6010546001600160a01b03908116911603610e2457600052600f6020526040600020600160ff19825416179055835191602085015192818113600014610e155790610ac39161259d565b915b81811315610e065790610ad79161259d565b905b620dbba0809111159182610dfb575b505015610d9b575060406001600954019182600955600435600052600c60205281600020610b16815461207e565b9055600435600052600c602052610b3c826000205494610b3685336120d9565b846121cd565b01519160405192610b4c846117e9565b6004358452602084019033825260408501428152606086019084825260808701928352600160a088015285600052600b60205260406000209387518555600185019060018060a01b039051166001600160601b0360a01b8254161790555160028401555160038301555193845167ffffffffffffffff8111610d8557610bd56004840154611939565b95601f8711610d3a575b602096508690601f8311600114610cc357928260059360a093610c349796600092610cb8575b50508160011b916000199060031b1c19161760048501555b0151151591019060ff801983541691151516179055565b600435600052600d835260406000203360005283526040600020600160ff19825416179055600435600052600e835260406000208160005283528160406000205560405190815242838201523390827f6a637cd1359e4eec19d4267c8234482f1071920bc10dde1e5fbf69204c26cdee604060043593a46001600855604051908152f35b015190508a80610c05565b9060048501600052876000209160005b601f1985168110610d2357508360a093610c34979693600193600597601f19811610610d0a575b505050811b016004850155610c1d565b015160001960f88460031b161c191690558a8080610cfa565b919289600181928685015181550194019201610cd3565b600484016000526020600020601f830160051c81019760208410610d7b575b601f0160051c01965b878110610d6f5750610bdf565b60008155600101610d62565b9097508790610d59565b634e487b7160e01b600052604160045260246000fd5b608490723a379030b93a3bb7b935903637b1b0ba34b7b760691b6040519162461bcd60e51b835260206004840152603360248401527f4e4654436c61696d3a2055736572206e6f7420636c6f736520656e6f756768206044840152820152fd5b111590508480610ae8565b610e0f9161259d565b90610ad9565b610e1e9161259d565b91610ac5565b60405162461bcd60e51b815260206004820152601b60248201527f4e4654436c61696d3a20496e76616c6964207369676e6174757265000000000060448201528490fd5b8460405162461bcd60e51b815260206004820152602060248201527f4e4654436c61696d3a205369676e617475726520616c726561647920757365646044820152fd5b60405162461bcd60e51b815260206004820152602160248201527f4e4654436c61696d3a20436c61696d2074696d657374616d7020746f6f206f6c6044820152601960fa1b81860152608490fd5b634e487b7160e01b600052601160045260246000fd5b60405162461bcd60e51b815260206004820152602760248201527f4e4654436c61696d3a204f726967696e616c204e4654206973206e6f7420636c60448201526661696d61626c6560c81b81850152608490fd5b610f819194503d806000833e610f798183611821565b810190611f5e565b928561099c565b6040513d6000823e3d90fd5b5060405162461bcd60e51b815260206004820152601f60248201527f5265656e7472616e637947756172643a207265656e7472616e742063616c6c006044820152fd5b346101bb576104d8610fe8366118ee565b9060405192610ff684611805565b60008452611b83565b346101bb576104d8611010366118ee565b9161102361101e8433611c1e565b611b21565b611ce6565b346101bb576020806003193601126101bb57600435600060a060405161104d816117e9565b828152828582015282604082015282606082015260606080820152015261108981600052600260205260018060a01b0360406000205416151590565b1561114257600052600b81526040600020604051906110a7826117e9565b8054825261113560018060a01b039182600182015416928585019384526002820154604086019081526003830154916060870192835260ff60056110ed60048701611973565b9560808a019687520154169560a088019615158752604051988998818a525190890152511660408701525160608601525160808501525160c060a085015260e08401906118c9565b9051151560c08301520390f35b60405162461bcd60e51b8152600481018390526024808201527f4e4654436c61696d3a20436c61696d20746f6b656e20646f6573206e6f7420656044820152631e1a5cdd60e21b6064820152608490fd5b346101bb5760003660031901126101bb576020600954604051908152f35b346101bb5760403660031901126101bb576111ca6117d3565b602435906001600160a01b0380806111e185611abd565b169216918083146112dc578033149081156112b7575b501561124c57600083815260046020526040902080546001600160a01b0319168317905561122483611abd565b167f8c5be1e5ebec7d5bd14f71427d1e84f3dd0314c0f7b2291e5b200ac8c7c3b925600080a4005b60405162461bcd60e51b815260206004820152603d60248201527f4552433732313a20617070726f76652063616c6c6572206973206e6f7420746f60448201527f6b656e206f776e6572206f7220617070726f76656420666f7220616c6c0000006064820152608490fd5b9050600052600560205260406000203360005260205260ff60406000205416846111f7565b60405162461bcd60e51b815260206004820152602160248201527f4552433732313a20617070726f76616c20746f2063757272656e74206f776e656044820152603960f91b6064820152608490fd5b346101bb5760203660031901126101bb5760206108e5600435611ae3565b346101bb5760003660031901126101bb576040516000805461136a81611939565b8084529060019081811690811561066d57506001146113935761034c8461060081860382611821565b600080805292507f290decd9548b62a8d60345a988386fc84ba6bc95484008f6362f93160ef3e5635b8284106113d4575050508101602001610600826105f0565b805460208587018101919091529093019281016113bc565b346101bb5760603660031901126101bb576114056117bd565b60443567ffffffffffffffff918282116101bb57611429602492369060040161185f565b90611432611a19565b600a5460405163d305485d60e01b81526004803590820152936001600160a01b0392916000918691829086165afa938415610f885760009461171b575b50600435600052600d602052604060002082821660005260205261149b60ff604060002054161561201e565b60406001600954019485600955600435600052600c602052816000206114c1815461207e565b9055600435600052600c6020526114e78260002054956114e188866120d9565b876121cd565b01516040516114f5816117e9565b60043581526020810191848416835260408201428152606083019087825260808401928352600060a085015288600052600b6020526040600020948451865587600187019151166001600160601b0360a01b82541617905551600285015551600384015551968751908111610d85576115716004840154611939565b97601f89116116d0575b602098508890601f831160011461165a57928260059360a0936115ce979660009261164f5750508160011b916000199060031b1c19161760048501550151151591019060ff801983541691151516179055565b600435600052600d8552604060002082821660005285526040600020600160ff19825416179055600435600052600e855260406000208360005285528360406000205560405192835242858401521690827f6a637cd1359e4eec19d4267c8234482f1071920bc10dde1e5fbf69204c26cdee604060043593a4604051908152f35b015190508c80610c05565b9060048501600052896000209160005b601f19851681106116b957508360a0936115ce979693600193600597601f198116106116a057505050811b016004850155610c1d565b015160001960f88460031b161c191690558c8080610cfa565b91928b60018192868501518155019401920161166a565b600484016000526020600020601f830160051c81019960208410611711575b601f0160051c01985b898110611705575061157b565b600081556001016116f8565b90995089906116ef565b6117319194503d806000833e610f798183611821565b928561146f565b346101bb5760203660031901126101bb576004359063ffffffff60e01b82168092036101bb57602091632483248360e11b811490811561177a575b5015158152f35b6380ac58cd60e01b8114915081156117ac575b811561179b575b5083611773565b6301ffc9a760e01b14905083611794565b635b5e139f60e01b8114915061178d565b602435906001600160a01b03821682036101bb57565b600435906001600160a01b03821682036101bb57565b60c0810190811067ffffffffffffffff821117610d8557604052565b6020810190811067ffffffffffffffff821117610d8557604052565b90601f8019910116810190811067ffffffffffffffff821117610d8557604052565b67ffffffffffffffff8111610d8557601f01601f191660200190565b81601f820112156101bb5780359061187682611843565b926118846040519485611821565b828452602083830101116101bb57816000926020809301838601378301015290565b60005b8381106118b95750506000910152565b81810151838201526020016118a9565b906020916118e2815180928185528580860191016118a6565b601f01601f1916010190565b60609060031901126101bb576001600160a01b039060043582811681036101bb579160243590811681036101bb579060443590565b60409060031901126101bb576004359060243590565b90600182811c92168015611969575b602083101461195357565b634e487b7160e01b600052602260045260246000fd5b91607f1691611948565b906040519182600082549261198784611939565b9081845260019485811690816000146119f657506001146119b3575b50506119b192500383611821565b565b9093915060005260209081600020936000915b8183106119de5750506119b1935082010138806119a3565b855488840185015294850194879450918301916119c6565b9150506119b194506020925060ff191682840152151560051b82010138806119a3565b6007546001600160a01b03163303611a2d57565b606460405162461bcd60e51b815260206004820152602060248201527f4f776e61626c653a2063616c6c6572206973206e6f7420746865206f776e65726044820152fd5b15611a7857565b60405162461bcd60e51b815260206004820152601860248201527f4552433732313a20696e76616c696420746f6b656e20494400000000000000006044820152606490fd5b6000908152600260205260409020546001600160a01b0316611ae0811515611a71565b90565b600081815260026020526040902054611b06906001600160a01b03161515611a71565b6000908152600460205260409020546001600160a01b031690565b15611b2857565b60405162461bcd60e51b815260206004820152602d60248201527f4552433732313a2063616c6c6572206973206e6f7420746f6b656e206f776e6560448201526c1c881bdc88185c1c1c9bdd9959609a1b6064820152608490fd5b90611ba7939291611b9761101e8433611c1e565b611ba2838383611ce6565b611df7565b15611bae57565b60405162461bcd60e51b815280611bc760048201611bcb565b0390fd5b60809060208152603260208201527f4552433732313a207472616e7366657220746f206e6f6e20455243373231526560408201527131b2b4bb32b91034b6b83632b6b2b73a32b960711b60608201520190565b906001600160a01b038080611c3284611abd565b16931691838314938415611c65575b508315611c4f575b50505090565b611c5b91929350611ae3565b1614388080611c49565b909350600052600560205260406000208260005260205260ff604060002054169238611c41565b15611c9357565b60405162461bcd60e51b815260206004820152602560248201527f4552433732313a207472616e736665722066726f6d20696e636f72726563742060448201526437bbb732b960d91b6064820152608490fd5b90611d0e91611cf484611abd565b6001600160a01b0393918416928492909183168414611c8c565b16918215611da65781611d2b91611d2486611abd565b1614611c8c565b7fddf252ad1be2c89b69c2b068fc378daa952ba7f163c4a11628f55a4df523b3ef60008481526004602052604081206001600160601b0360a01b9081815416905583825260036020526040822060001981540190558482526040822060018154019055858252600260205284604083209182541617905580a4565b60405162461bcd60e51b8152602060048201526024808201527f4552433732313a207472616e7366657220746f20746865207a65726f206164646044820152637265737360e01b6064820152608490fd5b9293600093909291803b15611f1157948491611e519660405180948193630a85bd0160e11b9788845233600485015260018060a01b0380921660248501526044840152608060648401528260209b8c9760848301906118c9565b0393165af1849181611ecd575b50611ebc575050503d600014611eb4573d611e7881611843565b90611e866040519283611821565b81528091833d92013e5b80519182611eb15760405162461bcd60e51b815280611bc760048201611bcb565b01fd5b506060611e90565b6001600160e01b0319161492509050565b9091508581813d8311611f0a575b611ee58183611821565b81010312611f0657516001600160e01b031981168103611f06579038611e5e565b8480fd5b503d611edb565b505050915050600190565b81601f820112156101bb578051611f3281611843565b92611f406040519485611821565b818452602082840101116101bb57611ae091602080850191016118a6565b906020828203126101bb57815167ffffffffffffffff928382116101bb570160e0818303126101bb576040519260e0840184811082821117610d8557604052815184526020820151602085015260408201518181116101bb5783611fc3918401611f1c565b604085015260608201516001600160a01b03811681036101bb5760608501526080820151608085015260a08201519081116101bb5760c092612006918301611f1c565b60a0840152015180151581036101bb5760c082015290565b1561202557565b60405162461bcd60e51b815260206004820152602b60248201527f4e4654436c61696d3a20557365722068617320616c726561647920636c61696d60448201526a1959081d1a1a5cc813919560aa1b6064820152608490fd5b6000198114610ef95760010190565b1561209457565b60405162461bcd60e51b815260206004820152601c60248201527f4552433732313a20746f6b656e20616c7265616479206d696e746564000000006044820152606490fd5b6001600160a01b031680156121895760008281526002602052604090205461210d906001600160a01b031615155b1561208d565b600082815260026020526040902054612130906001600160a01b03161515612107565b600081815260036020526040812060018154019055828152600260205260408120826001600160601b0360a01b8254161790557fddf252ad1be2c89b69c2b068fc378daa952ba7f163c4a11628f55a4df523b3ef8180a4565b606460405162461bcd60e51b815260206004820152602060248201527f4552433732313a206d696e7420746f20746865207a65726f20616464726573736044820152fd5b6000818152600260205260409020549192916001600160a01b0316156123605760009080825260209160068352604081209085519067ffffffffffffffff821161234c5761221b8354611939565b601f8111612309575b508490601f831160011461228557907ff8e1a15aba9398e019f0b49df1a4fde98ee17ae345cb5f6b5e2c27f5033e8ce796978361227a575b50508160011b916000199060031b1c19161790555b604051908152a1565b01519050388061225c565b9196601f198816848452868420935b8181106122f257509160019391897ff8e1a15aba9398e019f0b49df1a4fde98ee17ae345cb5f6b5e2c27f5033e8ce7999a94106122d9575b505050811b019055612271565b015160001960f88460031b161c191690553880806122cc565b929387600181928786015181550195019301612294565b838252858220601f840160051c810191878510612342575b601f0160051c01905b8181106123375750612224565b82815560010161232a565b9091508190612321565b634e487b7160e01b81526041600452602490fd5b60405162461bcd60e51b815260206004820152602e60248201527f45524337323155524953746f726167653a2055524920736574206f66206e6f6e60448201526d32bc34b9ba32b73a103a37b5b2b760911b6064820152608490fd5b60058110156124c057806123cd5750565b6001810361241a5760405162461bcd60e51b815260206004820152601860248201527f45434453413a20696e76616c6964207369676e617475726500000000000000006044820152606490fd5b600281036124675760405162461bcd60e51b815260206004820152601f60248201527f45434453413a20696e76616c6964207369676e6174757265206c656e677468006044820152606490fd5b60031461247057565b60405162461bcd60e51b815260206004820152602260248201527f45434453413a20696e76616c6964207369676e6174757265202773272076616c604482015261756560f01b6064820152608490fd5b634e487b7160e01b600052602160045260246000fd5b90604181511460001461250457612500916020820151906060604084015193015160001a9061250e565b9091565b5050600090600290565b9291907f7fffffffffffffffffffffffffffffff5d576e7357a4501ddfe92f46681b20a083116125915791608094939160ff602094604051948552168484015260408301526060820152600093849182805260015afa156125845781516001600160a01b0381161561257e579190565b50600190565b50604051903d90823e3d90fd5b50505050600090600390565b81810392916000138015828513169184121617610ef95756fea2646970667358221220b42427c68dc4220c9455d4f00cf1064d1d720602484d38389489f22c96a5baf664736f6c63430008130033",
  "linkReferences": {},
  "deployedLinkReferences": {}
}